:020000040800F2
:1000000000500020255D00086D5D00086D5D000852
:100010006D5D00086D5D00086D5D0008000000006A
:100020000000000000000000000000006D5D0008FE
:100030006D5D0008000000006D5D0008ED470008E0
:100040006D5D00086D5D00086D5D00086D5D000868
:100050006D5D00086D5D00086D5D00086D5D000858
:10006000F94700086D5D00086D5D00086D5D0008D2
:100070006D5D00086D5D00086D5D00086D5D000838
:100080006D5D00086D5D00086D5D00086D5D000828
:100090006D5D00086D5D00086D5D00086D5D000818
:1000A0006D5D00086D5D00086D5D00086D5D000808
:1000B0001D4800086D5D00086D5D00086D5D00085D
:1000C0006D5D00086D5D00086D5D00086D5D0008E8
:1000D0006D5D0008255100086D5D00086D5D00082C
:1000E000C54800086D5D00086D5D00080000000057
:1000F0000000000000000000000000000000000000
:0C01000000000000000000005FF808F1A3
:10010C0010B5054C237833B9044B13B10448AFF345
:10011C0000800123237010BD940500200000000016
:10012C00F069000808B5034B1BB103490348AFF352
:10013C00008008BD0000000098050020F069000850
:10014C0010F8012B11F8013B012A28BF9A42F7D075
:10015C00D01A7047034613F8012B002AFBD1181A4A
:10016C000138704780B500AF01F02AF8FEE70000B7
:10017C0080B400AF154B1B68144A43F001031360A5
:10018C00124B5A681149124B13404B600F4B1B68B2
:10019C000E4A23F0847323F4803313600B4B1B68DB
:1001AC000A4A23F480231360084B5B68074A23F444
:1001BC00FE035360054B4FF41F029A60054B4FF042
:1001CC0000629A6000BFBD4680BC704700100240C0
:1001DC000000FFF800ED00E080B485B000AF002314
:1001EC00FB600023BB6000237B602C4B5B6803F03F
:1001FC000C03FB60FB68042B07D0082B09D0002BE9
:10020C0033D1274B274A1A6033E0254B254A1A6015
:10021C002FE0224B5B6803F47013BB601F4B5B68D1
:10022C0003F480337B60BB689B0C0233BB607B6840
:10023C00002B06D1BB681C4A02FB03F3184A13605F
:10024C0017E0164B5B6803F40033002B06D0BB6839
:10025C00154A02FB03F3124A13600AE0BB68114A09
:10026C0002FB03F30E4A136003E00D4B0D4A1A60B8
:10027C0000BF0A4B5B681B0903F00F030B4AD35CEE
:10028C00FB60074B1A68FB6822FA03F3044A1360FD
:10029C0000BF1437BD4680BC704700BF0010024041
:1002AC000000002000127A0000093D00D0870008F1
:1002BC0080B487B000AFF860B9601346FB800023B0
:1002CC00FB820023BB8233E0FB8A9B00BA68134499
:1002DC001968BB8AFA681344CAB21A70FB8A9B006D
:1002EC00BA6813441B68190ABB8A0133FA681344B1
:1002FC00CAB21A70FB8A9B00BA6813441B68190CAB
:10030C00BB8A0233FA681344CAB21A70FB8A9B0088
:10031C00BA6813441B68190EBB8A0333FA6813447A
:10032C00CAB21A70FB8A0133FB82BB8A0433BB82CC
:10033C00BA8AFB889A42C7D300BF1C37BD4680BC23
:10034C00704780B487B000AFF860B9601346FB808B
:10035C000023FB820023BB8226E0BB8ABA681344CD
:10036C001B781946BB8A0133BA6813441B781B02ED
:10037C0041EA0302BB8A0233B9680B441B781B04A5
:10038C0042EA0301BB8A0333BA6813441B781A068A
:10039C00FB8A9B00F86803440A431A60FB8A01330A
:1003AC00FB82BB8A0433BB82BA8AFB889A42D4D3C1
:1003BC0000BF1C37BD4680BC7047000080B596B0AE
:1003CC0000AF786039607B681B687B657B685B6815
:1003DC003B657B689B68FB647B68DB68BB6407F1EF
:1003EC000803402239681846FFF7ABFF3A6DFB6CE7
:1003FC001A403B6DD943BB6C0B401A43BB681A4483
:10040C007B6D1A44A24B13447B657B6D4FEA73637F
:10041C007B657A6D3B6D13447B657A6D3B6D1A4041
:10042C007B6DD943FB6C0B401A43FB681A44BB6CC5
:10043C001A44984B1344BB64BB6C4FEA3353BB64F4
:10044C00BA6C7B6D1344BB64BA6C7B6D1A40BB6C8D
:10045C00D9433B6D0B401A433B691A44FB6C1A445D
:10046C008D4B1344FB64FB6C4FEAF333FB64FA6C67
:10047C00BB6C1344FB64FA6CBB6C1A40FB6CD94329
:10048C007B6D0B401A437B691A443B6D1A44834BBA
:10049C0013443B653B6D4FEAB3233B653A6DFB6CF4
:1004AC0013443B653A6DFB6C1A403B6DD943BB6CF6
:1004BC000B401A43BB691A447B6D1A44784B1344A6
:1004CC007B657B6D4FEA73637B657A6D3B6D134483
:1004DC007B657A6D3B6D1A407B6DD943FB6C0B4091
:1004EC001A43FB691A44BB6C1A446E4B1344BB642D
:1004FC00BB6C4FEA3353BB64BA6C7B6D1344BB6467
:10050C00BA6C7B6D1A40BB6CD9433B6D0B401A43E4
:10051C003B6A1A44FB6C1A44634B1344FB64FB6C3C
:10052C004FEAF333FB64FA6CBB6C1344FB64FA6C58
:10053C00BB6C1A40FB6CD9437B6D0B401A437B6A36
:10054C001A443B6D1A44594B13443B653B6D4FEABF
:10055C00B3233B653A6DFB6C13443B653A6DFB6C06
:10056C001A403B6DD943BB6C0B401A43BB6A1A440F
:10057C007B6D1A444E4B13447B657B6D4FEA736362
:10058C007B657A6D3B6D13447B657A6D3B6D1A40D0
:10059C007B6DD943FB6C0B401A43FB6A1A44BB6C52
:1005AC001A44444B1344BB64BB6C4FEA3353BB64D7
:1005BC00BA6C7B6D1344BB64BA6C7B6D1A40BB6C1C
:1005CC00D9433B6D0B401A433B6B1A44FB6C1344F1
:1005DC00A3F524434F3BFB64FB6C4FEAF333FB6402
:1005EC00FA6CBB6C1344FB64FA6CBB6C1A40FB6C6E
:1005FC00D9437B6D0B401A437B6B1A443B6D1A44F9
:10060C002D4B13443B653B6D4FEAB3233B653A6D71
:10061C00FB6C13443B653A6DFB6C1A403B6DD94344
:10062C00BB6C0B401A43BB6B1A447B6D1A44234BB7
:10063C0013447B657B6D4FEA73637B657A6D3B6D11
:10064C0013447B657A6D3B6D1A407B6DD943FB6C13
:10065C000B401A43FB6B1A44BB6C1A44184B1344E3
:10066C00BB64BB6C4FEA3353BB64BA6C7B6D1344F5
:10067C00BB64BA6C7B6D1A40BB6CD9433B6D0B40B1
:10068C001A433B6C1A44FB6C1A440E4B13441BE08C
:10069C0078A46AD756B7C7E8DB702024EECEBDC16C
:1006AC00AF0F7CF52AC68747134630A8019546FD47
:1006BC00D8988069AFF7448BBED75C892211906BB8
:1006CC00937198FD8E4379A6FB64FB6C4FEAF33370
:1006DC00FB64FA6CBB6C1344FB64FA6CBB6C1A4085
:1006EC00FB6CD9437B6D0B401A437B6C1A443B6DFE
:1006FC001A44A24B13443B653B6D4FEAB3233B6555
:10070C003A6DFB6C13443B653A6DBB6C1A40BB6C89
:10071C00D943FB6C0B401A43FB681A447B6D1A449B
:10072C00974B13447B657B6D4FEAF3637B657A6D66
:10073C003B6D13447B657A6DFB6C1A40FB6CD943A3
:10074C003B6D0B401A433B6A1A44BB6C1A448D4BED
:10075C001344BB64BB6C4FEAF353BB64BA6C7B6D44
:10076C001344BB64BA6C3B6D1A403B6DD9437B6D33
:10077C000B401A437B6B1A44FB6C1A44824B134498
:10078C00FB64FB6C4FEAB343FB64FA6CBB6C134425
:10079C00FB64FA6C7B6D1A407B6DD943BB6C0B40D0
:1007AC001A43BB681A443B6D1A44784B13443B659F
:1007BC003B6D4FEA33333B653A6DFB6C13443B6541
:1007CC003A6DBB6C1A40BB6CD943FB6C0B401A43A3
:1007DC00FB691A447B6D1A446D4B13447B657B6D2E
:1007EC004FEAF3637B657A6D3B6D13447B657A6DE1
:1007FC00FB6C1A40FB6CD9433B6D0B401A433B6BB3
:10080C001A44BB6C1A44634B1344BB64BB6C4FEA75
:10081C00F353BB64BA6C7B6D1344BB64BA6C3B6D15
:10082C001A403B6DD9437B6D0B401A437B6C1A44C9
:10083C00FB6C1A44584B1344FB64FB6C4FEAB343F8
:10084C00FB64FA6CBB6C1344FB64FA6C7B6D1A4052
:10085C007B6DD943BB6C0B401A43BB691A443B6D8F
:10086C001A444E4B13443B653B6D4FEA33333B65A7
:10087C003A6DFB6C13443B653A6DBB6C1A40BB6C18
:10088C00D943FB6C0B401A43FB6A1A447B6D1A4428
:10089C00434B13447B657B6D4FEAF3637B657A6D49
:1008AC003B6D13447B657A6DFB6C1A40FB6CD94332
:1008BC003B6D0B401A433B6C1A44BB6C1A44394BCE
:1008CC001344BB64BB6C4FEAF353BB64BA6C7B6DD3
:1008DC001344BB64BA6C3B6D1A403B6DD9437B6DC2
:1008EC000B401A437B691A44FB6C1A442E4B13447D
:1008FC00FB64FB6C4FEAB343FB64FA6CBB6C1344B4
:10090C00FB64FA6C7B6D1A407B6DD943BB6C0B405E
:10091C001A43BB6A1A443B6D1A44244B13443B657F
:10092C003B6D4FEA33333B653A6DFB6C13443B65CF
:10093C003A6DBB6C1A40BB6CD943FB6C0B401A4331
:10094C00FB6B1A447B6D1A44194B13447B657B6D0E
:10095C004FEAF3637B657A6D3B6D13447B657A6D6F
:10096C00FB6C1A40FB6CD9433B6D0B401A433B6943
:10097C001A44BB6C1A440F4B13441DE02108B449B4
:10098C0062251EF640B340C0515A5E26AAC7B6E98E
:10099C005D102FD65314440281E6A1D8C8FBD3E7CF
:1009AC00E6CDE121D60737C3870DD5F4ED145A45B2
:1009BC0005E9E3A9F8A3EFFCBB64BB6C4FEAF35366
:1009CC00BB64BA6C7B6D1344BB64BA6C3B6D1A4050
:1009DC003B6DD9437B6D0B401A437B6A1A44FB6C0D
:1009EC001A44A04B1344FB64FB6C4FEAB343FB6407
:1009FC00FA6CBB6C1344FB64FA6C7B6D1A407B6D18
:100A0C00D943BB6C0B401A43BB6B1A443B6D1A4465
:100A1C00954B13443B653B6D4FEA33333B653A6D65
:100A2C00FB6C13443B653A6DFB6C5A40BB6C5A40F3
:100A3C00FB691A447B6D1344A3F5B823A3F2BE6380
:100A4C007B657B6D4FEA33737B657A6D3B6D13442D
:100A5C007B657A6D3B6D5A40FB6C5A40BB6A1A44FD
:100A6C00BB6C1A44814B1344BB64BB6C4FEA73538D
:100A7C00BB64BA6C7B6D1344BB64BA6C7B6D5A401F
:100A8C003B6D5A407B6B1A44FB6C1A44784B1344F5
:100A9C00FB64FB6C4FEA3343FB64FA6CBB6C134492
:100AAC00FB64FA6CBB6C5A407B6D5A403B6C1A442D
:100ABC003B6D1A446F4B13443B653B6D4FEA7323FC
:100ACC003B653A6DFB6C13443B653A6DFB6C5A40CD
:100ADC00BB6C5A40FB681A447B6D1A44664B13443A
:100AEC007B657B6D4FEA33737B657A6D3B6D13448D
:100AFC007B657A6D3B6D5A40FB6C5A40BB691A445E
:100B0C00BB6C1A445D4B1344BB64BB6C4FEA735310
:100B1C00BB64BA6C7B6D1344BB64BA6C7B6D5A407E
:100B2C003B6D5A407B6A1A44FB6C1A44544B134479
:100B3C00FB64FB6C4FEA3343FB64FA6CBB6C1344F1
:100B4C00FB64FA6CBB6C5A407B6D5A403B6B1A448D
:100B5C003B6D1A444B4B13443B653B6D4FEA73237F
:100B6C003B653A6DFB6C13443B653A6DFB6C5A402C
:100B7C00BB6C5A40FB6B1A447B6D1A44424B1344BA
:100B8C007B657B6D4FEA33737B657A6D3B6D1344EC
:100B9C007B657A6D3B6D5A40FB6C5A40BB681A44BE
:100BAC00BB6C1A44394B1344BB64BB6C4FEA735394
:100BBC00BB64BA6C7B6D1344BB64BA6C7B6D5A40DE
:100BCC003B6D5A407B691A44FB6C1A44304B1344FE
:100BDC00FB64FB6C4FEA3343FB64FA6CBB6C134451
:100BEC00FB64FA6CBB6C5A407B6D5A403B6A1A44EE
:100BFC003B6D1A44274B13443B653B6D4FEA732303
:100C0C003B653A6DFB6C13443B653A6DFB6C5A408B
:100C1C00BB6C5A40FB6A1A447B6D1A441E4B13443E
:100C2C007B657B6D4FEA33737B657A6D3B6D13444B
:100C3C007B657A6D3B6D5A40FB6C5A40BB6B1A441A
:100C4C00BB6C1A44154B1344BB64BB6C4FEA735317
:100C5C00BB64BA6C7B6D1344BB64BA6C7B6D5A403D
:100C6C001EE000BFD9026F678A4C2A8D81F671870E
:100C7C0022619D6D0C38E5FD44EABEA4A9CFDE4B84
:100C8C00604BBBF670BCBFBEC67E9B28FA27A1EAA0
:100C9C008530EFD4051D880439D0D4D9E599DBE62D
:100CAC003B6D5A407B6C1A44FB6C1A44A24B1344A8
:100CBC00FB64FB6C4FEA3343FB64FA6CBB6C134470
:100CCC00FB64FA6CBB6C5A407B6D5A403B691A440E
:100CDC003B6D1A44994B13443B653B6D4FEA7323B0
:100CEC003B653A6DFB6C13443B65BB6CDA433B6D67
:100CFC001A43FB6C5A40BB681A447B6D1A44904BE8
:100D0C0013447B657B6D4FEAB3637B657A6D3B6DFA
:100D1C0013447B65FB6CDA437B6D1A433B6D5A4085
:100D2C007B6A1A44BB6C1A44864B1344BB64BB6C81
:100D3C004FEAB353BB64BA6C7B6D1344BB643B6D1D
:100D4C00DA43BB6C1A437B6D5A403B6C1A44FB6C08
:100D5C001A447D4B1344FB64FB6C4FEA7343FB64F6
:100D6C00FA6CBB6C1344FB647B6DDA43FB6C1A436B
:100D7C00BB6C5A40FB691A443B6D1A44734B1344C9
:100D8C003B653B6D4FEAF3233B653A6DFB6C1344BB
:100D9C003B65BB6CDA433B6D1A43FB6C5A40BB6B37
:100DAC001A447B6D1A446A4B13447B657B6D4FEA86
:100DBC00B3637B657A6D3B6D13447B65FB6CDA43E7
:100DCC007B6D1A433B6D5A407B691A44BB6C1A44C9
:100DDC00604B1344BB64BB6C4FEAB353BB64BA6C3B
:100DEC007B6D1344BB643B6DDA43BB6C1A437B6D68
:100DFC005A403B6B1A44FB6C1344A3F58013A3F6C7
:100E0C008333FB64FB6C4FEA7343FB64FA6CBB6C7F
:100E1C001344FB647B6DDA43FB6C1A43BB6C5A4086
:100E2C00FB681A443B6D1A444B4B13443B653B6DBA
:100E3C004FEAF3233B653A6DFB6C13443B65BB6C8B
:100E4C00DA433B6D1A43FB6C5A40BB6A1A447B6D08
:100E5C001A44424B13447B657B6D4FEAB3637B654D
:100E6C007A6D3B6D13447B65FB6CDA437B6D1A43E7
:100E7C003B6D5A407B6C1A44BB6C1A44384B134480
:100E8C00BB64BB6C4FEAB353BB64BA6C7B6D13444D
:100E9C00BB643B6DDA43BB6C1A437B6D5A403B6AB7
:100EAC001A44FB6C1A442F4B1344FB64FB6C4FEA43
:100EBC007343FB64FA6CBB6C1344FB647B6DDA43C9
:100ECC00FB6C1A43BB6C5A40FB6B1A443B6D1A44C7
:100EDC00254B13443B653B6D4FEAF3233B653A6D61
:100EEC00FB6C13443B65BB6CDA433B6D1A43FB6CE8
:100EFC005A40BB691A447B6D1A441C4B13447B65E6
:100F0C007B6D4FEAB3637B657A6D3B6D13447B65F8
:100F1C00FB6CDA437B6D1A433B6D5A407B6B1A4476
:100F2C00BB6C1A44124B1344BB64BB6C4FEAB353F7
:100F3C00BB64BA6C1EE000BFF87CA21F6556ACC443
:100F4C00442229F497FF2A43A72394AB39A093FC9E
:100F5C00C3595B6592CC0C8FD15D84854F7EA86F95
:100F6C00E0E62CFE144301A3A111084E827E53F738
:100F7C0035F23ABD7B6D1344BB643B6DDA43BB6CFD
:100F8C001A437B6D5A403B691A44FB6C1A44244B40
:100F9C001344FB64FB6C4FEA7343FB64FA6CBB6C4D
:100FAC001344FB647B6DDA43FB6C1A43BB6C5A40F5
:100FBC00FB6A1A443B6D1A441A4B13443B653B6D58
:100FCC004FEAF3233B653A6DFB6C13443B657B683E
:100FDC001A687B6D1A447B681A607B680433196845
:100FEC007B6804333A6D0A441A607B6808331968CD
:100FFC007B680833FA6C0A441A607B680C331968F6
:10100C007B680C33BA6C0A441A6007F1080340225F
:10101C000021184604F012FF00BF5837BD4680BDB2
:10102C00BBD2D72A91D386EB80B483B000AF786063
:10103C007B6800225A617B685A697B681A617B68FD
:10104C00074A1A607B68074A5A607B68064A9A60AE
:10105C007B68064ADA6000BF0C37BD4680BC70471F
:10106C000123456789ABCDEFFEDCBA98765432107C
:10107C0080B586B000AFF860B9607A60FB681B6918
:10108C00DB089BB203F03F03BB82FB681A697B68E9
:10109C00DB001A44FB681A61FB681A697B68DB0089
:1010AC009A4204D2FB685B695A1CFB685A61FB6864
:1010BC005A697B685B0F1A44FB685A61BB8AC3F19F
:1010CC0040037B827B8A7A689A4225D3BB8A183389
:1010DC00FA6813447A8AB968184604F0A4FEFA68D0
:1010EC00FB68183319461046FFF768F97B8AFB82B8
:1010FC0009E0F868FB8ABA6813441946FFF75EF9F1
:10110C00FB8A4033FB82FB8A3F331A467B6893424F
:10111C00EFD80023BB8201E00023FB82BB8A18338B
:10112C00FA68D018FB8ABA68D118FB8A7A68D31A85
:10113C001A4604F078FE00BF1837BD4680BD00008B
:10114C0080B586B000AF786039603B6803F1100160
:10115C0007F10C0308221846FFF7AAF83B681B6935
:10116C00DB089BB203F03F03FB82FB8A372B04D8CE
:10117C00FB8AC3F138039BB203E0FB8AC3F178030B
:10118C009BB2BB82BB8A1A460C493868FFF770FFCA
:10119C0007F10C03082219463868FFF769FF3B6812
:1011AC00102219467868FFF783F858220021386816
:1011BC0004F044FE00BF1837BD4680BDE087000830
:1011CC0080B500AF02F016FC00BF80BD80B483B0C8
:1011DC0000AF124B01221A7000237B6007E0104A0B
:1011EC007B68134401221A707B6801337B607B6837
:1011FC00042BF4DD00233B6007E00A4A3B681344F0
:10120C0001221A703B6801333B603B68042BF4DD10
:10121C0000BF0C37BD4680BC704700BF5C0000208F
:10122C00E40600205C06002080B400AF034B0022D3
:10123C001A7000BFBD4680BC704700BF5C00002028
:10124C0090B58DB000AF0446084611461A462346A9
:10125C00FB710346BB710B467B7113463B71324BE2
:10126C001B78002B5BD0FB79304A52F82310BB79EA
:10127C002F4A52F823301A462E4800F065F8002306
:10128C003B6107F1140300221A605A609A60DA601D
:10129C001A615A611A837B79002B1BD03B79002B86
:1012AC000ED07B79244A52F823103B79224A52F80B
:1012BC00233007F110000A46204904F0D5FE09E05E
:1012CC007B791D4A52F8232007F11003114618466A
:1012DC0004F0F9FE07F110031946194800F034F830
:1012EC0000233B743B6C002B0CD03B6C3A22062148
:1012FC00184600F007F9024607F11003114618468C
:10130C0004F0E1FE07F1100319460E4800F01CF83A
:10131C0007F14803FB60F968786C00F027F800BF10
:10132C003437BD4690BD00BF5C0000202800002073
:10133C0040000020C06C000804000020CC6C0008A9
:10134C00D46C0008DC6C00080FB480B582B000AF20
:10135C0007F114037B607968386900F007F800BF67
:10136C000837BD46BDE8804004B0704780B58AB0F0
:10137C0000AF78603960B8E07B681B78252B40F0B3
:10138C00AC807B6801337B607B681B78642B3ED020
:10139C00642B04DC2D2B48D0632B2ED0A2E06C2BBD
:1013AC0003D0732B00F08F809CE07B6801337B6053
:1013BC007B681B78732B11D0752B00D092E03B68A7
:1013CC001A1D3A601B68FB61FB690A224B491846DF
:1013DC0004F008FD494803F047FE0DE03B681A1D78
:1013EC003A601B68BB610A224449B86904F0FAFCF4
:1013FC00424803F039FE00BF74E03B681A1D3A60A6
:10140C001B68FB74FB7C184603F012FE6AE03B6819
:10141C001A1D3A601B687B610A223849786904F00E
:10142C00E1FC364803F020FE5CE07B6801337B6016
:10143C00002387F827300023BB7416E097F8273079
:10144C00022B02D92E4803F00FFE97F827305A1CB6
:10145C0087F8272019467B681A7807F128030B4474
:10146C0003F8202C7B6801337B607B681B78732B23
:10147C00E4D197F8273007F128021344002203F82F
:10148C00202C07F10803184604F06BFC0346BB74D0
:10149C003B681A1D3A601B68FB60F86803F0E4FDBA
:1014AC00034687F8263007E097F82630013387F893
:1014BC002630202003F0BCFD97F82620BB7C9A42F6
:1014CC00F2D300BF0EE03B681A1D3A601B683B620A
:1014DC00386A03F0C9FD00BF04E07B681B7818462E
:1014EC0003F0A6FD7B6801337B607B681B78002BC7
:1014FC007FF442AF00BF2837BD4680BDEC0600200C
:10150C00E46C000880B584B000AF78600B46FB70CB
:10151C001346BB700023FB730023BB730023FB73C8
:10152C0013E0BB7B134A9818FB7B7A6813441B7837
:10153C001A46BB78104904F097FD0346DAB2BB7B20
:10154C001344BB73FB7B0133FB73FA7BFB78013BCE
:10155C009A42E6DBBB7B074A9818FB7B7A681344FC
:10156C001B781A46054904F07FFD024B18461037CC
:10157C00BD4680BD64060020F86C0008006D0008B4
:10158C0080B586B000AF786000233B61092004F081
:10159C002BFC0346FB6007237B611AE07A687B69AE
:1015AC0042FA03F3BB60BB6803F00103002B05D0C8
:1015BC003B69FA68134431221A7004E03B69FA68FB
:1015CC00134430221A703B6901333B617B69013B48
:1015DC007B617B69002BE1DA3B69FA6813440022DA
:1015EC001A70FB6818461837BD4680BD80B584B0AC
:1015FC0000AF0346FB7103F081FCFB7903F01F0382
:10160C00DBB2184603F092FCFF2003F08FFC03467C
:10161C00FB7303F07FFCFB7B18461037BD4680BD87
:10162C0080B584B000AF03460A46FB711346BB710C
:10163C0003F064FCFB7903F01F03DBB243F02003DF
:10164C00DBB2184603F072FCBB79184603F06EFC53
:10165C000346FB7303F05EFCFB7B18461037BD465C
:10166C0080BD90B585B000AF3A601A460346FB7159
:10167C000B46BB7113467B71FB79012B08D1BB79EF
:10168C00A02B05D0BB79B02B02D0BB792033BB711A
:10169C0003F034FCBB79184603F048FC0023FB60D4
:1016AC0017E0FB79002B07D1FB683A68D418FF20B0
:1016BC0003F03CFC03462370FB79012B06D1FB683D
:1016CC003A6813441B78184603F030FCFB6801336E
:1016DC00FB607B79FA689A42E3DB03F01BFC00BFEA
:1016EC001437BD4690BD000080B584B000AF786063
:1016FC0039607B681B78032B35D0052B65D0012B0B
:10170C006DD13B681A787B681B799A4226D33B686B
:10171C001A787B685B799A4220D87B685B7818468C
:10172C00FFF764FF03461A467B689B781340BB7334
:10173C003B681B781A467B68DB7802FA03F35AB2D3
:10174C0097F90E3013435BB2BB737B685B78BA7B43
:10175C0011461846FFF764FF012341E0224803F0CD
:10176C009EFC00233CE03B685A787B681B799A42CC
:10177C0026D33B685A787B685B799A4220D87B6881
:10178C005B781846FFF732FF03461A467B689B7856
:10179C001340FB733B685B781A467B68DB7802FA74
:1017AC0003F35AB297F90F3013435BB2FB737B68A8
:1017BC005B78FA7B11461846FFF732FF01230FE0E6
:1017CC00094803F06CFC00230AE07B6859783B68FD
:1017DC005A6805230120FFF744FF012300E0002392
:1017EC0018461037BD4680BD606F000880B584B0C8
:1017FC0000AF786039607B681B78052B4FD801A24D
:10180C0052F823F029180008291800086518000858
:10181C006518000897180008971800087B685B7813
:10182C001846FFF7E3FE03465AB27B689B785BB21F
:10183C00DB435BB213405BB27B737B7B7A68D27801
:10184C0013413B733B7B002B14BF01230023DAB203
:10185C003B681A70012323E07B685B781846FFF71E
:10186C00C5FE03465AB27B689B785BB2DB435BB226
:10187C0013405BB2FB73FB7B7A68D2781341BB736A
:10188C003B68BA7B5A7001230AE07B6859783B6845
:10189C005A6805230020FFF7E4FE012300E0002333
:1018AC0018461037BD4680BD80B483B000AF0346E8
:1018BC00FB71044AFB791370024B18460C37BD467A
:1018CC0080BC70470006002080B483B000AF034694
:1018DC00FB71044AFB795370024B18460C37BD461A
:1018EC0080BC70470006002080B483B000AF7860E5
:1018FC000B46FB70054A7B685360044AFB781372F5
:10190C00024B18460C37BD4680BC704700060020C1
:10191C0080B582B000AF0346FB71FB79002B05D07C
:10192C00012B00D005E003F001FA02E003F00AFA03
:10193C0000BF00BF0837BD4680BD000090B583B026
:10194C0000AF0346FB71FB79002B0DD0012B00D0AF
:10195C0015E00D4B1C680120FFF7A6FF0346194646
:10196C002046FFF7C1FE0AE0074B1C680020FFF77A
:10197C009BFF034619462046FFF7B6FE00BF00BF8B
:10198C000C37BD4690BD00BF6000002098B500AF7D
:10199C00054B5C680120FFF787FF0346194620467C
:1019AC00FFF7A2FE00BF98BD6000002098B500AF05
:1019BC00054BDC680120FFF777FF034619462046EC
:1019CC00FFF792FE00BF98BD6000002098B500AFF5
:1019DC00054BDC680020FFF767FF034619462046DD
:1019EC00FFF782FE00BF98BD6000002080B500AFFD
:1019FC00044BDB6804491846FFF7F8FE024B1B78D2
:101A0C00184680BD600000204406002090B583B0CD
:101A1C0000AF0346FB710A4B9C68FB79002B14BF8B
:101A2C0001230023DBB21846FFF73EFF034619469D
:101A3C002046FFF759FE00BF0C37BD4690BD00BFD6
:101A4C006000002080B500AF044B9B680449184629
:101A5C00FFF7CCFE024B1B78184680BD60000020BF
:101A6C004406002098B500AF054B1C690020FFF719
:101A7C001BFF034619462046FFF736FE00BF98BDF4
:101A8C006000002098B500AF054B5C690020FFF7A3
:101A9C000BFF034619462046FFF726FE00BF98BDF4
:101AAC006000002098B500AF054B9C690020FFF743
:101ABC00FBFE034619462046FFF716FE00BF98BDF5
:101ACC006000002080B582B000AF0346FB7102209D
:101ADC00FFF78CFD03465AB2FB79012101FA03F39F
:101AEC005BB213435BB2DBB219460220FFF798FDE1
:101AFC0000BF0837BD4680BD90B583B000AF03462C
:101B0C00FB71084BDC6CFB79023BDBB21846FFF730
:101B1C00DBFE034619462046FFF7E6FD00BF0C37F7
:101B2C00BD4690BD6000002080B500AF054BDB6C5E
:101B3C0005491846FFF75AFE034B5B780233DBB2BC
:101B4C00184680BD600000204406002090B583B08C
:101B5C0000AF0346FB71074B1C6DFB791846FFF772
:101B6C00B3FE034619462046FFF7BEFD00BF0C37F7
:101B7C00BD4690BD6000002080B500AF044B1B6DCE
:101B8C0004491846FFF732FE024B5B78184680BDBD
:101B9C00600000204406002090B583B000AF0346DF
:101BAC00FB71074B5C6DFB791846FFF78DFE034606
:101BBC0019462046FFF798FD00BF0C37BD4690BD77
:101BCC006000002080B500AF044B5B6D04491846E3
:101BDC00FFF70CFE024B5B78184680BD60000020BE
:101BEC004406002090B583B000AF0346FB71074B51
:101BFC009C6DFB791846FFF767FE03461946204695
:101C0C00FFF772FD00BF0C37BD4690BD6000002091
:101C1C0080B500AF044B9B6D04491846FFF7E6FDF9
:101C2C00024B5B78184680BD600000204406002003
:101C3C0090B583B000AF0346FB71074BDC6DFB79AD
:101C4C001846FFF741FE034619462046FFF74CFDA8
:101C5C0000BF0C37BD4690BD6000002080B500AFC2
:101C6C00044BDB6D04491846FFF7C0FD024B5B7853
:101C7C00184680BD600000204406002090B583B05B
:101C8C0000AF0346FB71FB79002B2ADB012B0DDD2A
:101C9C00022B00D025E0154B9C6E0120FFF704FEB3
:101CAC00034619462046FFF71FFD1AE00F4B9C6EAA
:101CBC000020FFF7F9FD034619462046FFF714FDF7
:101CCC000A4B1C6EFB79002B14BF01230023DBB2E3
:101CDC001846FFF7E9FD034619462046FFF704FDB9
:101CEC0000BF00BF0C37BD4690BD00BF6000002098
:101CFC0080B582B000AF0E4B9B6E0E491846FFF7B5
:101D0C0075FD0C4B1B78FB71FB79002B01D002236A
:101D1C0009E0074B1B6E07491846FFF767FD054B9B
:101D2C001B78BB71BB7918460837BD4680BD00BF18
:101D3C00600000204406002080B500AF044B5B6FB0
:101D4C0004491846FFF752FD024B5B78184680BDDC
:101D5C00600000204406002080B500AF044B9B6F50
:101D6C0004491846FFF742FD024B1B78184680BD0C
:101D7C00600000204406002080B500AF044BDB6FF0
:101D8C0004491846FFF732FD024B1B78184680BDFC
:101D9C00600000204406002080B500AF054BD3F84E
:101DAC00803005491846FFF721FD034B1B78184678
:101DBC0080BD00BF600000204406002080B582B0CA
:101DCC0000AF0720FFF712FC0346FB71FB7903F011
:101DDC007003DBB219460720FFF722FC00BF08375F
:101DEC00BD4680BD90B583B000AF78600B46FB70EC
:101DFC00084BD3F89040FB7819467868FFF774FDD0
:101E0C00034619462046FFF76FFC00BF0C37BD4652
:101E1C0090BD00BF6000002090B583B000AF78602B
:101E2C000B46FB70084BD3F8A840FB781946786832
:101E3C00FFF75AFD034619462046FFF755FC00BF35
:101E4C000C37BD4690BD00BF6000002080B582B04D
:101E5C0000AF7860064A7B685360064BD3F8A83015
:101E6C0003491846FFF7C2FC00BF0837BD4680BDCA
:101E7C00440600206000002090B583B000AF0346FC
:101E8C000A46FB711346BB71FB79052B5CD801A28A
:101E9C0052F823F0B91E0008D31E0008ED1E0008EE
:101EAC00071F0008211F00083B1F0008284BD3F810
:101EBC00AC40BB791846FFF707FD03461946204690
:101ECC00FFF712FC40E0224BD3F8B040BB79184628
:101EDC00FFF7FAFC034619462046FFF705FC33E0F2
:101EEC001B4BD3F8B440BB791846FFF7EDFC034607
:101EFC0019462046FFF7F8FB26E0154BD3F8B840FF
:101F0C00BB791846FFF7E0FC034619462046FFF75D
:101F1C00EBFB19E00E4BD3F8BC40BB791846FFF72E
:101F2C00D3FC034619462046FFF7DEFB0CE0084BBA
:101F3C00D3F8C040BB791846FFF7C6FC03461946D8
:101F4C002046FFF7D1FB00BF00BF0C37BD4690BD4C
:101F5C006000002080B500AF02F0D0FFE12002F05D
:101F6C00E5FF02F0D7FF00BF80BD80B500AF02F0E7
:101F7C00C5FFE22002F0DAFF02F0CCFF00BF80BD0B
:101F8C0080B582B000AF78607A6820236121002090
:101F9C00FFF767FB7B68202283F82020FFF7CCFE3D
:101FAC0003461A467B6883F8212000BF0837BD46DC
:101FBC0080BD000080B582B000AF0346FB71424B80
:101FCC001B78DBB2092B7AD801A252F823F000BFA0
:101FDC0005200008CB2000081D200008CB2000089D
:101FEC003F200008CB200008CB200008B5200008BB
:101FFC00CB2000089D200008FB79022B00D006E0C6
:10200C00142002F0D5FD304B02221A7000BF57E0AD
:10201C00FB79042B00D00BE0FFF7B8FC2A4B032212
:10202C001A70022002F0C4FD274B04221A7000BF64
:10203C0046E0FB79072B02D0092B10D028E00120B9
:10204C00FFF77CFC0120FFF763FC1F4B06221A7084
:10205C00822002F0CDFD1C4B07221A7018E00020E4
:10206C00FFF76CFC0020FFF753FC0120FFF750FC3E
:10207C00142002F0BDFD0020FFF74AFC124B082291
:10208C001A70822002F0B4FD0F4B09221A7000BFA7
:10209C00FB79042B00D006E00020FFF739FC0A4B3B
:1020AC0004221A7000BF0BE0FB79042B00D007E070
:1020BC000020FFF72DFC044B04221A7000E000BF37
:1020CC0000BF0837BD4680BDB005002080B586B086
:1020DC0004AF786002F096FE786802F05FFF02F0C1
:1020EC00A7FE0220FFF766FF00F028F80420FFF798
:1020FC0061FF0720FFF75EFF084B0293084B01932B
:10210C00002300930023002206210120FFF798F8FA
:10211C00012318460837BD4680BD00BF8C6E0008F1
:10212C008C6F000880B500AF00210120FFF778FA12
:10213C000020FFF731FD00BF80BD000080B582B0EC
:10214C0000AF0520FFF74EFD0220FFF771FD0220C6
:10215C00FFF794FD0020FFF7B5FCFFF7E3FFFFF757
:10216C0025FC0120FFF752FCFFF77CFCFFF78AFCF3
:10217C00FFF798FC0520FFF7BFFC20210020FFF79C
:10218C007BFE0020FFF708FD104A3B4692E8030057
:10219C00186004331970FFF7C7FC0346FB71FA791A
:1021AC003B4611461846FFF737FEFA793B46114677
:1021BC001846FFF717FEFFF7CDFEFFF7D6FEFFF729
:1021CC00FDFD00BF0837BD4680BD00BFA86F0008ED
:1021DC0080B58CB000AF7860E12002F0A7FE04203F
:1021EC00FFF7E8FE0023FB621AE07B6893F82030CF
:1021FC001A46FB6A93420ADA7A68FB6A1344197826
:10220C0007F10C02FB6A13440A461A7005E007F149
:10221C000C02FB6A134400221A70FB6A0133FB6246
:10222C00FB6A1F2BE1DD07F10C022023A02101200A
:10223C00FFF717FA0920FFF7BDFE012318463037C8
:10224C00BD4680BD80B483B000AF7860034A7B6824
:10225C00136000BF0C37BD4680BC704730060020B1
:10226C0080B483B000AF7860034A7B68136000BF12
:10227C000C37BD4680BC7047FC05002080B500AF14
:10228C00FFF76AFD0346002B08D01A4B01225A7047
:10229C000420FFF78FFE0720FFF78CFEFFF76CFD85
:1022AC000346002B0FD0134B01221A700420FFF7AA
:1022BC0081FE0720FFF77EFE0F4B1B68002B02D020
:1022CC000D4B1B689847FFF767FD0346002B0DD09D
:1022DC00084B01229A700948FFF752FE084B1B6805
:1022EC00002B03D0064B1B6804489847FFF766FD8C
:1022FC0000BF80BD6C070020FC0500200C060020F0
:10230C003006002090B589B004AF78607B681C1D46
:10231C0000F0B0FC034606221946204603F074FD7B
:10232C000346002B0CBF01230023FB737B681A7838
:10233C009209D2B25B7803F003039B001343DBB228
:10234C00032B02D0042B4FD0A5E0FB7B002B34D009
:10235C00012342F210720121062002F095F8B860B8
:10236C00BB687A680C330A321068186092889A80BD
:10237C005249B86802F06AF8514A137843F00403E2
:10238C001370504B1B68002B03D04E4B1B687868A6
:10239C0098477B685B7CC3F30313DBB219467B68FD
:1023AC000A33494A0292494A019200930B4603228E
:1023BC0002210320FEF744FF7CE0786800F08EF8E1
:1023CC007B685B7CC3F30313DBB219467B680A336F
:1023DC003D4A02923E4A019200930B46032202218F
:1023EC000320FEF72DFF65E07B681C1D00F042FC0E
:1023FC00034606221946204603F006FD0346002B31
:10240C000CBF01230023BB73BB7B002B2CD02C4AAD
:10241C00137843F00803137002F06EFA02462D4B4A
:10242C009A6002F0A9F803461B78082B01D102F040
:10243C00ADF8284B1B69002B02D0264B1B69984723
:10244C007B685B7CC3F30313DBB219467B680A33EE
:10245C001D4A0292204A019200930B46042202214B
:10246C000320FEF7EDFE25E07B685B7CC3F30313D2
:10247C00DBB219467B680A33134A0292144A019262
:10248C0000930B46042202210320FEF7D9FE786844
:10249C0000F024F80EE0FB7B83F00103DBB2002B91
:1024AC0007D07B685B889BB2002B02D0786800F069
:1024BC0015F800BF00BF1437BD4690BDC5260008F7
:1024CC00B405002084070020C8710008347300088C
:1024DC0048730008700700205073000880B584B062
:1024EC0000AF78607B685B889BB21A464FF47A73B6
:1024FC0003FB02F3FB6002F03FF8B860BB681B788B
:10250C00042B09D142F21071002001F08BFF1D4AFF
:10251C00137843F001031370BB681B78032B22D193
:10252C007B681A789209D2B25B7803F003039B00A4
:10253C001343DBB2033B012B0DD802F027F8002329
:10254C00FA680121032001F09FFFB8600E49B868BA
:10255C0001F08BFF12E0BB685A68FB681A44BB6839
:10256C005A6000BF0AE00023FA680121032001F041
:10257C008BFFB8600449B86801F077FF00BF1037D3
:10258C00BD4680BDB40500209927000880B582B0F7
:10259C0000AF7860044A7B68136000F007F800BF56
:1025AC000837BD4680BD00BF8407002080B500AF52
:1025BC0004220021064803F041FC064B00221A734A
:1025CC00044B00225A6001F0F5FF00BF80BD00BF34
:1025DC00B40500207007002080B596B004AF97F8C2
:1025EC002830022262F3850387F828303B8D0322C2
:1025FC0062F389133B851E237B8500F03BFB02466F
:10260C0007F132031168196092889A80274B1A6877
:10261C0007F12C0305321068186092889A80234BBE
:10262C001B68DB7803F00F03DAB297F8393062F3EA
:10263C00030387F839301D4B1B681B7903F00F031C
:10264C00DAB297F8393062F3071387F83930174B41
:10265C001B6893F834309BB27B873A1D07F1280333
:10266C001146184600F01AFB3B1D1846FFF7B0FD4B
:10267C000E4B1B7B0133DAB20C4B1A7302F02EF9A2
:10268C0000F0EEFA03461A79094B0293094B0193B9
:10269C0007F128030433009313460322012103207E
:1026AC00FEF7CEFD00BF4837BD4680BD7007002049
:1026BC00C87100086473000880B596B004AF97F831
:1026CC002830022262F3850387F828303B8D0422E0
:1026DC0062F389133B8514237B8500F0CBFA024609
:1026EC0007F132031168196092889A80244B1B6899
:1026FC00DB7803F00F03DAB297F8393062F3030397
:10270C0087F839301E4B1B681B7903F00F03DAB2C4
:10271C0097F8393062F3071387F83930184B1B6878
:10272C0093F834309BB27B8701F026FF024607F109
:10273C002C030C3292E803001860043319803A1D04
:10274C0007F128031146184600F0A8FA3B1D18465D
:10275C00FFF73EFD00F084FA03461A79094B029309
:10276C00094B019307F12803043300931346042209
:10277C0001210320FEF764FD00BF4837BD4680BD34
:10278C0070070020C87100086473000880B584B01D
:10279C0004AF074B0293074B0193002300930023D4
:1027AC00002206210320FEF74BFD00BFBD4680BD75
:1027BC00C87100086873000880B500AF074B1B6830
:1027CC009B78022B00D007E0044B1B69002B02D036
:1027DC00024B1B69984700BF00BF80BD70070020EB
:1027EC0080B584B004AF1D4B1B7803F00803DBB23B
:1027FC00002B2FD11A4B1B7B0E2B0ED9194B02938E
:10280C00194B019300230093002300220521032080
:10281C00FEF716FDFFF7CAFE1CE0114B1B7B1A4698
:10282C000F2303930292114B019300230093002377
:10283C00002205210320FEF703FD094B1868084B05
:10284C001B7B5A1CD1B2064A1173054A12691946F0
:10285C0000F02AF800BFBD4680BD00BFB4050020C3
:10286C0070070020C871000888730008CC7300083A
:10287C0080B582B000AF0346FB8002F08FF90346AF
:10288C00184603F089FB03F0ABFB0246FB8892FB76
:10289C00F3F103FB01F3D31A42F2107202FB03F3C0
:1028AC0018460837BD4680BD80B58CB004AFF860C3
:1028BC000B467A60FB72FFF779FE304AFB681360B7
:1028CC002E4AFB7A13732D4A7B68136147F2305101
:1028DC00012001F093FD2020FFF7CAFFF861274A81
:1028EC00FB695360254B5A6800230121042001F039
:1028FC00CBFDB8612249B86901F0A8FD1F4B1B68DC
:10290C009B78002B1DDB012B02DD022B1BD018E06A
:10291C00002342F210720121052001F0B5FD78610F
:10292C001849786901F092FD002347F230520121D9
:10293C00082001F0A9FD78611349786901F086FD42
:10294C0002E000BF00E000BF0C4B1B6818790B4B7A
:10295C001B680533FA690D49A1FB02129209029218
:10296C000B4A019200930023024606210320FEF736
:10297C0067FC00BF2037BD4680BD00BF700700203C
:10298C00C5270008E5250008ED270008D34D621087
:10299C00FC73000880B588B004AF78607B680433A2
:1029AC002949184600F03CF90346FB737B681B78F9
:1029BC00C3F38303DBB2022B0DD0032B00D03FE01B
:1029CC00FB7B002B3BD02149786800F043FB7868F7
:1029DC0000F01CFA33E07B681A789209D2B25B786B
:1029EC0003F003039B001343DBB2052B00D027E05D
:1029FC00FB7B002B24D001F0BFFD03461B780A2B78
:102A0C0001D101F0C3FD7B685B7CC3F30313DBB224
:102A1C0019467B680A330D4A92F8362002920C4A0A
:102A2C00019200930B46052202210220FEF708FCBE
:102A3C00064B5B78002B03D100F044F900E000BF9B
:102A4C0000BF1037BD4680BD8807002090070020CE
:102A5C006877000880B500AF4FF47A7002F008F97F
:102A6C000C4B1B79062B0ED0072B00D00FE0094B1B
:102A7C001A6B084B93F834301946104601F05EFA85
:102A8C0000F054FF03E0034800F07CFC00BF00BFE3
:102A9C0080BD00BF9007002080B500AF4FF47A7066
:102AAC0002F0E6F8044BDB78042B00D002E000F0D7
:102ABC00D3FE00BF00BF80BD90070020B0B588B02A
:102ACC0006AF2F4B93F837300E2B4AD8002342F227
:102ADC0010720121092001F0D7FC78607B68284A2C
:102AEC0003F10C0402F1110528686968AA68EB6807
:102AFC000FC428696969AA6907C4AB8BAA7F2380B4
:102B0C001346A3701F49786801F0A0FC002347F21C
:102B1C00305201210A2001F0B7FC78601A4978681C
:102B2C0001F094FC164B93F837300133DAB2144BA6
:102B3C0083F83720124B93F836301A46104B93F823
:102B4C00373019460F230493039102920F4B0193D4
:102B5C00002300930023002205210220FEF770FBC6
:102B6C0009E00B4B01930023009300230022062164
:102B7C000220FEF765FB00BF0837BD46B0BD00BFA5
:102B8C0090070020E12D0008C92A0008747700087E
:102B9C00AC77000880B584B004AF0E48FFF7F6FCA4
:102BAC0000F020F83A2206210B48FEF7ABFC034656
:102BBC0003930A4B02930A4B0193002300930023C7
:102BCC00002206210220FEF73BFB00F02BFC00BF8D
:102BDC00BD4680BDD930000888070020EC7700087E
:102BEC00F877000880B582B000AF01F08FFE386036
:102BFC0000237B600BE07B683A6813441978074A22
:102C0C007B6813440A461A707B6801337B607B68CF
:102C1C00052BF0DD00BF0837BD4680BD88070020BE
:102C2C0080B485B000AF786039600023FB600EE0A3
:102C3C007A68FB6813441A783968FB680B441B7874
:102C4C009A4201D0002306E0FB680133FB60FB686D
:102C5C00052BEDDD012318461437BD4680BC7047AB
:102C6C0080B400AF024B1846BD4680BC704700BF15
:102C7C009007002080B400AF024B1846BD4680BCC4
:102C8C00704700BF8807002080B400AF024B184685
:102C9C00BD4680BC704700BF3803002080B582B0B1
:102CAC0000AF786039603B6820227968184603F0E1
:102CBC00BAF83B68202283F8202000BF0837BD46B5
:102CCC0080BD000080B586B004AF254B93F835204D
:102CDC00234B93F834309A4222D2214B002283F8B2
:102CEC003720002342F210720121092001F0CCFBA5
:102CFC0078607B680C331946194800F0F5F81949CF
:102D0C00786801F0A3FB002347F2305201210A201E
:102D1C0001F0BAFB78601449786801F097FB1AE06F
:102D2C000F4B01221A700E4B1A790D4B93F836305B
:102D3C0002930E4B01930E4B0093002303210220B0
:102D4C00FEF77EFA064B1B78022B04D0044B0222B2
:102D5C001A70FFF7A1FE00BF0837BD4680BD00BF4B
:102D6C0090070020E12D0008C92A0008047800080B
:102D7C009507002080B584B004AF134B93F8352031
:102D8C00114B93F834309A421AD30F4B01221A701C
:102D9C000D4B1A790C4B93F8363002930B4B019375
:102DAC000B4B0093002304210220FEF749FA064B3B
:102DBC001B78022B04D0044B02221A70FFF74AFE38
:102DCC0000BFBD4680BD00BF900700202C780008D6
:102DDC009B07002080B58AB000AF01F0CDFB034605
:102DEC000C333A1D11461846FFF758FF3B1D184689
:102DFC00FFF7EEF9044B5B78012B01D1FFF7BAFF1B
:102E0C0000BF2837BD4680BD9007002080B588B034
:102E1C0004AF7860002342F210720121072001F008
:102E2C0033FBF860FA68137B022161F3850313739B
:102E3C00FA689389052161F389139381FB68274A0A
:102E4C0016331168196092889A80FB687A6810337F
:102E5C000A321068186092889A80FB681422DA8112
:102E6C007B681B78C3F38303D9B2FA68537F61F391
:102E7C00030353777B681A789209D2B25B7803F01C
:102E8C0003039B001343D9B2FA68537F61F3071312
:102E9C0053777B681A7CFB689A771149F86801F0C4
:102EAC00E4FA7B681A789209D2B25B7803F00303D8
:102EBC009B001343DBB219467B680A337A68127C99
:102ECC000292084A019200930B460522012102202E
:102EDC00FEF7B6F900BF1037BD4680BD880700204D
:102EEC00E12D000868770008B0B584B000AF7860B9
:102EFC0039607B6893F834207B6893F83530D31AAB
:102F0C00FB73FB7B002B00F09F807B68DB7803F06E
:102F1C000F03D9B23A68137861F3850313707B6899
:102F2C001B7903F00F03DAB23B6802F003018C014A
:102F3C00197801F03F0108462146014319709208A7
:102F4C00D2B202F0030202F003005A7822F003021C
:102F5C00114602460A435A703B683D4A0A331168CF
:102F6C00196092889A803B687A680433053211683C
:102F7C00196092889A803B68002242F01E029A7077
:102F8C000022DA707B6893F836300133DAB27B6852
:102F9C0083F836207B6893F836203B681A74FB7BE9
:102FAC000C2B1DD93A68537843F0800353703B685F
:102FBC000D225A743B6803F112007B681B6B7A6814
:102FCC0092F8352013440D22194602F02CFF7B6831
:102FDC0093F835300D33DAB27B6883F835201DE079
:102FEC003A6853786FF3C71353703B68FA7B5A7483
:102FFC003B6803F112007B681B6B7A6892F83520F2
:10300C001344FA7B194602F00EFF7B6893F83520C7
:10301C00FB7B1344DAB27B6883F835207B683A6813
:10302C001133146850689168D5681C6058609960B9
:10303C00DD601469506991691C6158619961918BCB
:10304C00927F99839A7700E000BF1037BD46B0BDE0
:10305C008807002080B582B000AF786039607B684B
:10306C001A7C3B6893F836309A422BD97B681A78D5
:10307C009209D2B25B7803F003039B001343DBB2DB
:10308C00063B012B18D83B681B6B3A6892F835202D
:10309C0098187B6803F112017B685B7C1A4602F07E
:1030AC00C2FE3B6893F835207B685B7C1344DAB234
:1030BC003B6883F8352000E000BF7B681A7C3B68D6
:1030CC0083F8362000BF0837BD4680BD80B582B07E
:1030DC0000AF7860642001F0CBFD7B685B7CC3F3B0
:1030EC000313DBB2063B012B0AD87B685B8A9BB2CD
:1030FC00184602F079FE03461A461A4B1A6300E092
:10310C0000BF184B01225A70164B00221A707B68B4
:10311C005B7CC3F30303DBB21A46124BDA707B6899
:10312C005B7CC3F30313DBB21A460E4B1A710D4BC7
:10313C007A680B330A321168196092889A807B681E
:10314C005B8A9BB2DAB2074B83F83420054B002222
:10315C0083F83520034B002283F8362000BF083754
:10316C00BD4680BD9007002080B582B000AF3B60AB
:10317C000346FB710B46BB7113467B71204B00223F
:10318C001A701F4B00225A701D4AFB7993701C4A0F
:10319C00BB79D3701A4A7B791371194B3A68053392
:1031AC001168196092889A80154A3B7D82F83430F8
:1031BC00134B002283F83520114B002283F8362064
:1031CC000F4B002283F837203B7D002B13D00C4B88
:1031DC001B6B184602F010FE3B7D184602F004FEF5
:1031EC0003461A46064B1A63054B1B6B3A7D39692D
:1031FC00184602F018FE024B18460837BD4680BD33
:10320C0090070020B0B582B000AF642001F030FD13
:10321C00002342F210720121092001F035F9786087
:10322C001D4BDB78032B06D17B680C3319461A48EF
:10323C00FFF75AFE14E07B68174A03F10C0402F105
:10324C00110528686968AA68EB680FC42869696960
:10325C00AA6907C4AB8BAA7F23801346A37000BF57
:10326C000E49786801F0F2F80B4B93F837300133C4
:10327C00DAB2094B83F83720002347F23052012190
:10328C000A2001F001F978600549786801F0DEF850
:10329C0000BF0837BD46B0BD90070020E12D0008E7
:1032AC00C92A0008B0B584B002AF03463960FB717F
:1032BC003B68214A0A331168196092889A803B68EE
:1032CC0001221A743B681B78C3F38303DBB21946E3
:1032DC003B681A789209D2B25B7803F003039B0027
:1032EC001343DBB21C463B681A1DF879002301938B
:1032FC000023009313462246FFF736FF0F4B3A6824
:10330C001133146850689168D5681C6058609960D6
:10331C00DD601469506991691C6158619961918BE8
:10332C00927F99839A77064A00210448FFF7BCFAEA
:10333C0000BF0837BD46B0BD8807002090070020AD
:10334C001132000880B586B002AFB9607B600346CD
:10335C00FB731346BB73BA7BF87B3B7E01937B6894
:10336C000093BB680321FFF7FFFE044A00210448C9
:10337C00FFF79AFA00BF1037BD4680BD1132000826
:10338C009007002080B5C4B000AF3B1D186000232F
:10339C0087F80F31002387F80E310023C7F8083166
:1033AC002FE097F80F3107F10802D0183B1D1B686E
:1033BC001A6BD7F8083113441B781A46184902F0D7
:1033CC0053FE0346DAB297F80F31134487F80F31E6
:1033DC0097F80E31013387F80E3197F80E310E2B1A
:1033EC000AD9002387F80F31002387F80E3107F133
:1033FC000803184601F053FED7F808310133C7F81B
:10340C0008313B1D1B6893F834301A46D7F8083145
:10341C009342C6DB00BF07F58877BD4680BD00BF71
:10342C005078000880B584B004AF96230393594BB1
:10343C000293594B01930023009300230022062191
:10344C000220FDF7FDFE42F210730393534B0293DF
:10345C00514B0193002300930023002206210220EC
:10346C00FDF7EEFE42F2107303934D4B02934A4B61
:10347C000193002300930023002206210220FDF774
:10348C00DFFE44F620630393464B0293424B0193B9
:10349C00002300930023002206210220FDF7D0FE1A
:1034AC0047F230530393404B02933B4B0193002361
:1034BC0000930023002206210220FDF7C1FE47F2F3
:1034CC00F2630393394B0293334B01930023009324
:1034DC000023002206210220FDF7B2FE44F64C73B5
:1034EC000393334B02932C4B019300230093002343
:1034FC00002206210220FDF7A3FE47F2F26303939C
:10350C002C4B0293244B01930023009300230022A5
:10351C0006210220FDF794FE44F64C730393264BD0
:10352C0002931D4B019300230093002300220621DC
:10353C000220FDF785FE47F2305303931F4B029395
:10354C00154B019300230093002300220621022037
:10355C00FDF776FE47F230530393194B02930E4B53
:10356C000193002300930023002206210220FDF783
:10357C0067FE144B0393144B0293074B01930023E8
:10358C0000930023002206210220FDF759FE00BF04
:10359C00BD4680BD8878000898780008A47800089B
:1035AC00B0780008BC780008C8780008D478000807
:1035BC00E4780008F478000804790008147900080D
:1035CC00287900084EB10A003C79000880B58AB011
:1035DC0000AF3B4683E803003B7A042262F3850389
:1035EC003B723B89022262F389133B81FFF742FB5A
:1035FC00024607F112031168196092889A8007F14C
:10360C000C033A4692E803001860043319801E2319
:10361C007B8101233B760023FB763B461946094808
:10362C00FFF7FEFA0346002B01D00123FB7607F1CE
:10363C00080319460020FFF735FE00BF2837BD46AA
:10364C0080BD00BFCC07002090B589B004AF786076
:10365C007B681A789209D2B25B7803F003039B0063
:10366C001343DBB2012B03D0022B00F09480DDE07E
:10367C007B685C7C00F0E4FA03469C423BD000F093
:10368C00C5F96C4B00221A707B685A7C6A4B1A7015
:10369C007B689B7C0133DAB2684B1A70684B012251
:1036AC001A70684A7B680A33196811609B8893808A
:1036BC007B6800220092D3F80A20002010469A7BE7
:1036CC00DB7B1B021343002163F30F010123002258
:1036DC0000F0C0FA7B68D3F80A20002111469A7BCF
:1036EC00DB7B1B021A43002362F30F0308461946C7
:1036FC00FFF76CFF9AE07B680A33184600F048FB32
:10370C000346012B34D07B6800220092D3F80A20A8
:10371C00002010469A7BDB7B1B021343002163F3D2
:10372C000F010223002200F095FA7B68D3F80A20DF
:10373C00002111469A7BDB7B1B021A43002362F3A8
:10374C000F0308461946FFF741FF7B680A337A6876
:10375C00527C11467A68927C039202913A4A019209
:10376C0000930023012202210420FDF769FD5DE096
:10377C007B680A337A68527C11467A68927C039291
:10378C000291324A0192009300230122022104206B
:10379C00FDF756FD4AE07B681C1DFFF76BFA0346EC
:1037AC0019462046FFF73CFA0346FB73FB7B002BC4
:1037BC003BD001F0A1F8B8607B68DB7C002B12D009
:1037CC007B6801220092D3F80A20002010469A7BD5
:1037DC00DB7B1B021343002163F30F010023BA6848
:1037EC0000F038FA11E07B6801220092D3F80A202D
:1037FC00002010469A7BDB7B1B021343002163F3F2
:10380C000F010223BA6800F025FA7B680A33104ACC
:10381C000292104A019200930123022202210420F9
:10382C00FDF70EFD7868FFF7F1FA00BF00BF143703
:10383C00BD4690BDB8050020B9050020C705002085
:10384C00C8070020CC070020987C0008BC7C00082E
:10385C00DC7A0008DC7C000880B582B002AFFFF790
:10386C00FFF903461B79022B00D055E0FFF7F8F95E
:10387C00034605332A491846FFF7D2F90346002BB5
:10388C0019D0FFF7EDF9034601220092D3F8052079
:10389C00002010465A7A9B7A1B021343002163F3D3
:1038AC000F010123002200F0D5F91E4B02221A70E1
:1038BC0000F0E8F830E0FFF7D3F90346012200925C
:1038CC00D3F80520002010465A7A9B7A1B0213432A
:1038DC00002163F30F010223002200F0BBF9114B0E
:1038EC001B78012B0FD10E4B1A68002111461A7947
:1038FC005B791B021A43002362F30F030846194637
:10390C00FFF764FE08E0084B1B7803F00103DBB201
:10391C00002B01D100F0B6F800BF00BFBD4680BD42
:10392C00CC070020C8070020C805002080B586B051
:10393C0004AF00F0B3FA0346FB71FB79002B43D0C4
:10394C003B46184600F080FE214B1B7883F00103A8
:10395C00DBB2002B20D03A2206211E48FDF7D2FD07
:10396C00034602931C4B0193002300930023002277
:10397C0006210420FDF764FC164B1A680021114641
:10398C001A795B791B021A43002362F30F03084672
:10399C00194600F0F3FB17E0104B1B7819463B78E7
:1039AC0018467B88BA880192009303460A460C4954
:1039BC000C48FDF7C9FC00F023FA0B4A0B490C48E4
:1039CC00FDF7C2FC00F074FB00BF0837BD4680BD9C
:1039DC00B8050020CC070020E07C0008B9050020C9
:1039EC00147D0008207D0008607D0008DC7A00084A
:1039FC009C7D000880B500AF4FF4E130FEF766FB0C
:103A0C0000F04EFCFFF7C6F800BF80BD80B500AFDC
:103A1C00042200210A4802F011FA00F0DDF9094BEA
:103A2C001B68184602F0E8F9064B00221A60064B98
:103A3C0000221A70054B00221A7000BF80BD00BF17
:103A4C00C8050020C0050020C5050020C6050020C3
:103A5C0080B500AFFFF7DAFF074B1B780133DAB202
:103A6C00054B1A70054B00221A70054B01221A7077
:103A7C0000F008F800BF80BDB9050020C705002084
:103A8C00B805002080B584B002AFFFF7FDF8024600
:103A9C0000230193002300931346012204210220EA
:103AAC00FFF762FB7860044A00217868FEF7FCFEA1
:103ABC0000BF0837BD4680BDF93A000880B483B01A
:103ACC0000AF084B7B60084B1B78C3F105037A6889
:103ADC0002FA03F37B607B6818460C37BD4680BC4A
:103AEC00704700BF4EB10A00C7050020B0B59CB0AE
:103AFC0008AF3B7A042262F385033B723B890122B7
:103B0C0062F389133B817B7A43F008037B72FFF7E6
:103B1C00B1F8024607F112031168196092889A8075
:103B2C00FFF7B2F8024607F10C0310681860928890
:103B3C009A8000237B81214B1B787B76204B1B7852
:103B4C00BB7607F1280207F1080311461846FFF768
:103B5C00A5F807F128031846FEF73AFB194A137823
:103B6C0043F001031370FFF7A9FFF864164BFA6CCE
:103B7C000221002000F02CFD3B46F96C184600F0A9
:103B8C0087FDFFF781F802460C4B1B7819460C4B4E
:103B9C001B7838787C88BD8806950594049003932F
:103BAC0002910A4B0193009200230122012104206F
:103BBC00FDF746FB00BF5037BD46B0BDB905002030
:103BCC00C7050020C8050020DD3B0008A87D0008C3
:103BDC0080B584B004AF154B1B7883F00103DBB2C6
:103BEC00002B13D03A2206211148FDF78BFC03461B
:103BFC000293104B01930023009300230022052114
:103C0C000420FDF71DFB00F0B9FA0CE00A4B1B7801
:103C1C0002930A4B019300230093002300220521F9
:103C2C000520FDF70DFB00BFBD4680BDB80500208B
:103C3C00CC070020DC7D0008B9050020107E0008B0
:103C4C0080B400AF024B1B781846BD4680BC704751
:103C5C00B905002090B589B000AF07F1080484E8DD
:103C6C0003007A60FB70142002F0BEF80346BB61BF
:103C7C00BB691A4607F10803186810609B8893808B
:103C8C00BB697A689A60BB6900229A81BB6997F814
:103C9C0030209A71BB69FA78DA71BB6900221A611B
:103CAC00394B1B68002B09D1374ABB691360374B62
:103CBC001B780133DAB2354B1A7062E0324B1B6859
:103CCC00FB615BE0BB69F9690622184602F09CF8BF
:103CDC0078617B69002B0CDABB69FA691A612A4A94
:103CEC00BB691360294B1B780133DAB2274B1A706E
:103CFC0047E07B69002B11D1BB699A68FB699A601C
:103D0C00FB6997F830209A71FB69FA78DA71FB69D4
:103D1C0000229A81B86902F06FF832E07B69002BBF
:103D2C000DDDFB691B69002B09D1FB69BA691A61AE
:103D3C00164B1B780133DAB2144B1A7021E0B869B8
:103D4C00FB691B690622194602F05EF838617B6933
:103D5C00002B10DD3B69002B0DDAFB691A69BB697E
:103D6C001A61FB69BA691A61084B1B780133DAB224
:103D7C00064B1A7005E0FB691B69FB61FB69002BA4
:103D8C00A0D12437BD4690BDBC050020C405002041
:103D9C0080B584B000AF78600E4B1B68FB6010E000
:103DAC00FB6879680622184602F02EF80346FB726F
:103DBC00FB7A002B02D1FB689B7906E0FB681B6940
:103DCC00FB60FB68002BEBD1032318461037BD4674
:103DDC0080BD00BFBC05002080B500AF064B1B6842
:103DEC00184602F009F8044B00221A60034B00221B
:103DFC001A7000BF80BD00BFBC050020C4050020A8
:103E0C002DE9F0418AB008AF1F4B1B687B60012382
:103E1C00FB7031E0FB785A1CFA709E467B681B786D
:103E2C0098467B685B7819467B689B7818467B685C
:103E3C00DB781C467B681B791D467B685B791E46CC
:103E4C007B689B791A46114B53F822307A68D279E9
:103E5C0094460F4A52F82C2006920593049603952B
:103E6C00029401900091434672460A490A48FDF7B4
:103E7C006BFA7B681B697B607B68002BCAD100BF27
:103E8C000837BD46BDE8F081BC050020400300208A
:103E9C0050030020287E0008347E000880B584B0D2
:103EAC0000AF194B1B68BB6026E0184B1B687B608E
:103EBC000023FB73BB68DB79002B1AD10EE0B868CA
:103ECC007B681B680622194601F09EFF0346002BF7
:103EDC0001D10123FB737B685B687B607B68002BE3
:103EEC00EDD1FB7B83F00103DBB2002B01D000236F
:103EFC0006E0BB681B69BB60BB68002BD5D10123F6
:103F0C0018461037BD4680BDBC050020C0050020FA
:103F1C0080B483B000AF084B1B687B6002E07B6809
:103F2C005B687B607B685B68002BF8D17B6818460C
:103F3C000C37BD4680BC7047C005002080B588B0EA
:103F4C0000AF78600B46FB70082001F04DFF034674
:103F5C003B613B6900221A603B6900225A600023D6
:103F6C00FB773B69BB614BE0FB7F7A6813441B78A2
:103F7C001C2B16D1082001F037FF0346BB60BB6831
:103F8C0000221A60BB69BA685A60BB68BB61284BD7
:103F9C001B780133DAB2264B1A70FB7F0133FB77A7
:103FAC002EE0142001F020FF0346FB60FB6800228A
:103FBC001A61F868FB7F7A6813440622194601F0EF
:103FCC0032FFBB691B68002B03D1BB69FA681A600E
:103FDC000DE0BB691B687B6102E07B691B697B613F
:103FEC007B691B69002BF8D17B69FA681A61114B4C
:103FFC001B780133DAB20F4B1A70FB7F0633FB7759
:10400C00FA7FFB789A42AFD3BB6900225A600A4B05
:10401C001B68002B03D1084A3B69136004E0FFF7CF
:10402C0077FF02463B69536000BF2037BD4680BD19
:10403C00C5050020C6050020C005002080B586B04F
:10404C0000AF78600B46FB700023FB75174B1B68A9
:10405C003B6123E03B691B68FB600DE0FB7D7A68EC
:10406C001344F9680622184601F0DDFEFB7D063389
:10407C00FB75FB681B69FB60FB68002BEED1FA7DBE
:10408C00FB789A4207D2FB7D5A1CFA751A467B685C
:10409C0013441C221A703B695B683B613B69002B23
:1040AC00D8D100BF1837BD4680BD00BFC005002069
:1040BC00B0B588B004AF0123FB730123BB7300239D
:1040CC007B73284B1B68BB6045E0BB681B687B603F
:1040DC0000237B7334E0FB7B83F00103DBB2002B0A
:1040EC0006D07B7B1A4620492048FDF72DF905E0C8
:1040FC00BB7B1A461E491F48FDF726F90023FB73AC
:10410C007B681B7818467B685B781C467B689B78C1
:10411C001D467B68DB781A467B681B7919467B68E1
:10412C005B790293019100922B462246014612487C
:10413C00FDF70AF97B681B697B607B7B01337B7322
:10414C007B68002BC7D1BB685B68BB60BB7B013352
:10415C00BB730123FB73BB68002BB6D100BF1037B8
:10416C00BD46B0BDC0050020DC7A00085C7E0008AE
:10417C00687E0008747E0008807E0008B0B58AB0A6
:10418C0002AF6B461D463B46184600F05DFA142004
:10419C0001F02AFE0346FB61FEF76CFD0246FB694B
:1041AC001068186092889A80374B1A68FB691A61FC
:1041BC00354AFB691360354B1B780133DAB2334B4C
:1041CC001A70082001F010FE0346BB612E4B1A68D2
:1041DC00BB691A602E4B1A68BB695A602C4ABB69C2
:1041EC0013602C4B1B780133DAB22A4B1A702A4B12
:1041FC001A78264B1B781344DAB2274B1A70264BCD
:10420C001B781A46520013445B00DAB2214B1B7820
:10421C001344DBB2013BFB75F87D0346013B3B616C
:10422C00C1B24FF000024FF000034FF00004D40075
:10423C0044EA5174CB00C1B24FF000024FF00003BE
:10424C004FF00004D40044EA5174CB00034607330A
:10425C00DB08DB00ADEB030D02AB0033FB60FB684E
:10426C00FA7D11461846FFF7E9FEFA68FB7D0093CC
:10427C001346072209490020FFF764F8AD4600BF3A
:10428C002037BD46B0BD00BFBC050020C4050020D2
:10429C00C0050020C5050020C6050020CC07002065
:1042AC0080B500AF0948FDF7DBFF0948FDF7CAFFF1
:1042BC00084A6421022000F027FC074A4FF47A7167
:1042CC00032000F021FC00BF80BD00BFE9420008C4
:1042DC00F5420008994300082D43000880B400AF54
:1042EC0000BFBD4680BC704780B584B000AF78601D
:1042FC007B68FB60FB681B78C3F38303DBB2042B86
:10430C0003D1F868FFF7A0F900BFF868FDF7FAFFD2
:10431C00F868FEF73FFB00BF1037BD4680BD0000BC
:10432C0080B500AF184B1B68002B2AD0164B1B68AE
:10433C009A68154B1B685B689A4219D2124B1B6822
:10434C009A68114B1B6802F57A729A600E4B1B68C7
:10435C009A680D4B1B685B689A4213D30A4B1B6817
:10436C00DB68002B0ED0084B1B68DB68984709E014
:10437C00054B1B68184601F03FFD034B00221A60E9
:10438C0000E000BF80BD00BFCC05002080B500AFB1
:10439C00194B1B68002B2DD0174B1B689A78164BAA
:1043AC001B685B789A4222D2134B1B689A68124B9B
:1043BC001B6864329A60104B1B689A680E4B1B6822
:1043CC005B689A4217D30C4B1B6800229A600A4B0D
:1043DC001B689A780132D2B29A70074B1B681B6B20
:1043EC00002B08D0044B1B681B6B984703E000F0B4
:1043FC00CDF800E000BF80BDD005002080B582B0B4
:10440C0000AF03463960FB71F87900233A6801214B
:10441C0000F03AF80346184600F074F800BF08376D
:10442C00BD4680BD80B582B000AF03463960FB71DC
:10443C00F87900233A68012100F026F80346184663
:10444C0000F080F800BF0837BD4680BD80B582B053
:10445C0000AF786039607B683A681A63786800F05E
:10446C0051F800BF0837BD4680BD80B582B000AFA3
:10447C00786039607B683A681A63786800F062F893
:10448C0000BF0837BD4680BD80B584B000AF3A6030
:10449C001A460346FB710B46BB7113467B713820E1
:1044AC0001F0A2FC0346FB60FB68002B01D100234A
:1044BC0024E0FB68FA791A70FB6800229A70FB689A
:1044CC00BA795A70FB683A685A60FB68012283F823
:1044DC002B20FB680022DA62FB6800221A63FB685F
:1044EC0000225A637B79002B04D0FB685A68FB6866
:1044FC009A6002E0FB6800229A60FB68184610374D
:10450C00BD4680BD80B485B000AF78600C4B1B6895
:10451C00002B03D10A4A7B6813600DE0084B1B6823
:10452C00FB6002E0FB685B6BFB60FB685B6B002B6A
:10453C00F8D1FB687A685A631437BD4680BC704763
:10454C00D005002080B483B000AF7860094B1B68A5
:10455C00002B03D1074A7B68136006E0054B1A68F1
:10456C007B685A63034A7B6813600C37BD4680BC7A
:10457C00704700BFD005002080B400AF024B1B6811
:10458C001846BD4680BC7047D005002080B582B06F
:10459C0000AF074B1B687B60054B1B685B6B044AC9
:1045AC001360786801F028FC00BF0837BD4680BD59
:1045BC00D005002080B500AF044B1B68184601F0F5
:1045CC001BFC024B00221A6000BF80BDD0050020EE
:1045DC0080B586B000AFBA607B600346FB730B46B8
:1045EC00BB73102001F000FC03467B617B69FA7BF6
:1045FC001A707B6900229A607B697A68DA60BB7BEF
:10460C00012B0AD0022B10D0002B12D1BB680C4A04
:10461C0002FB03F27B695A600BE0BB684FF47A72C1
:10462C0002FB03F27B695A6003E07B69BA685A604B
:10463C0000BF044A7B69136000BF1837BD4680BDBC
:10464C0040420F00CC05002080B584B000AF7860EC
:10465C000E4B1B689A6807F108031146184600F0C8
:10466C0017F80A4B1B68184601F0C6FB074B0022D3
:10467C001A607B681A4607F10803186810609B885B
:10468C00938078681037BD4680BD00BFCC050020F4
:10469C0080B487B000AF786039603B687B617B6920
:1046AC00184AA2FB03239B0CDBB23B737B69154AB4
:1046BC00A2FB0312920C144901FB02F29B1A7B61C0
:1046CC007B69124AA2FB03239B099BB2FB817B698A
:1046DC000E4AA2FB031292094FF47A7101FB02F20B
:1046EC009B1A7B617B699BB23B827B681A4607F104
:1046FC000C03186810609B88938078681C37BD4643
:10470C0080BC704783DE1B4340420F00D34D6210C8
:10471C0080B483B000AF0346FB7197F90730002BD0
:10472C000BDBFB7903F01F02064997F907305B0995
:10473C00012000FA02F241F8232000BF0C37BD46DD
:10474C0080BC704700E100E080B483B000AF03464A
:10475C003960FB7197F90730002B0ADB3B68DAB242
:10476C000C4997F907301201D2B20B4483F800239D
:10477C000AE03B68DAB20849FB7903F00F03043B0B
:10478C001201D2B20B441A7600BF0C37BD4680BC66
:10479C00704700BF00E100E000ED00E080B582B0A2
:1047AC0000AF78607B68013BB3F1807F01D30123BC
:1047BC000FE00A4A7B68013B53600F214FF0FF303A
:1047CC00FFF7C2FF054B00229A60044B07221A60C8
:1047DC00002318460837BD4680BD00BF10E000E03E
:1047EC0080B400AF00BFBD4680BC704780B500AF41
:1047FC00064B5B6903F00403002B04D0034B04222B
:10480C005A61FDF73BFD00BF80BD00BF00040140B5
:10481C0080B582B000AF4FF080431B6903F00103F9
:10482C00002B43D04FF080431B694FF0804223F0A4
:10483C00010313610023FB7135E0FB791D4A1B0159
:10484C0013440C331B78DBB2002B29D0FB79194AAB
:10485C001B01134408331A6832231946FB790A44A6
:10486C0014491B010B4408331A60FB79114A1B01D4
:10487C00134408331A68FB790E491B010B440433AB
:10488C001B689A420CD3FB790A4A1B011344083368
:10489C0000221A60FB79074A1B0113441B689847D6
:1048AC00FB790133FB71FB79042BC6D900BF0837A8
:1048BC00BD4680BDD407002080B400AF064B5B69B9
:1048CC0003F40053002B03D0034B4FF400525A61F6
:1048DC0000BFBD4680BC70470004014080B400AFEF
:1048EC00044B5B69034A43F00103536100BFBD46AF
:1048FC0080BC70470004004080B400AF024B5B6A80
:10490C001846BD4680BC70470004004080B598B086
:10491C0000AF124BFB653B1D1846FCF785FB3B1D9E
:10492C000C22F96D1846FCF7A3FB3B1D19460C48ED
:10493C00FCF706FC0A4B1B7843F00203DAB2084B77
:10494C001A70074B1B7823F00103DAB2044B1A7070
:10495C00034B18466037BD4680BD00BFE8F7FF1F0C
:10496C003406002080B500AF254B1B68244A43F069
:10497C0004031360234B5B68224A43F48063536047
:10498C00204B1B681F4A43F48033136000BF1D4B40
:10499C001B6803F40033002BF9D01A4B5B68194ADF
:1049AC0043F480335360174B5B68164A43F4E013AF
:1049BC005360144B1B68134A43F08073136000BFA1
:1049CC00104B1B6803F00073002BF9D00D4B5B6888
:1049DC000C4A43F00203536000BF0A4B5B6803F0C0
:1049EC000803002BF9D0FBF7F7FB074B1B68074AB2
:1049FC00A2FB03239B091846FFF7D0FE00BF80BD26
:104A0C00002002400010024000000020D34D621034
:104A1C0080B582B000AF7860224BDB69214A43F04D
:104A2C000103D3614FF080431B684FF0804223F0A9
:104A3C00010313601B4B1B691A4A43F001031361FA
:104A4C00184B1B69174A23F0010313614FF0804385
:104A5C0047229A624FF080427B68D3624FF08043CA
:104A6C005B694FF0804243F0010353614FF0804388
:104A7C00DB684FF0804243F00103D36000211C201F
:104A8C00FFF762FE1C20FFF743FE4FF080431B68CC
:104A9C004FF0804243F00103136000BF0837BD465E
:104AAC0080BD00BF0010024080B483B000AF03464D
:104ABC003A60FB710B46BB80FB79124A1B01134415
:104ACC003A681A60BB884FF47A7202FB03F2FB79E6
:104ADC0011460C4A1B01134404331960FB79094A33
:104AEC001B011344083300221A60FB79054A1B0191
:104AFC0013440C3301221A7000BF0C37BD4680BC26
:104B0C00704700BFD407002080B483B000AF0346C9
:104B1C003A60FB710B46BB80FB790F4A1B011344B7
:104B2C003A681A60FB79BA880B491B010B440433B1
:104B3C001A60FB79084A1B011344083300221A60DF
:104B4C00FB79054A1B0113440C3301221A7000BF78
:104B5C000C37BD4680BC7047D407002080B400AF32
:104B6C000C4BDB690B4A43F00203D3610A4B002266
:104B7C001A60094B47229A62074B4FF6FF72DA62B2
:104B8C00054B1B68044A43F00103136000BFBD468C
:104B9C0080BC7047001002400004004080B400AF9D
:104BAC00024B5B6A1846BD4680BC7047000400404F
:104BBC0080B483B000AF78607B680EE00B4B5B6910
:104BCC000A4A43F00103536100BF084B5B6AB3F51B
:104BDC007A7FFAD37B68013B7B607B68002BEDD13D
:104BEC0000BF0C37BD4680BC704700BF00040040BE
:104BFC0080B483B000AF7860084B5B69074A43F020
:104C0C000103536100BF054B5A6A7B689A42FAD381
:104C1C0000BF0C37BD4680BC704700BF000400408D
:104C2C0080B582B000AF0346FB800E4B9B690D4AEA
:104C3C0043F0100393610C4B5B680B4A23F4700335
:104C4C005360094B5B68084A43F440135360FB887C
:104C5C00064A19460020FFF727FF00BF0837BD465C
:104C6C0080BD00BF0010024000100140D54C000870
:104C7C0080B483B000AF0346FB80FB884FF47A729C
:104C8C0002FB03F31A46034B5A6000BF0C37BD46B8
:104C9C0080BC7047D407002080B400AF034B4FF4A6
:104CAC0000521A6100BFBD4680BC70470010014025
:104CBC0080B400AF034B4FF000521A6100BFBD46E9
:104CCC0080BC70470010014080B500AF084B1B78CA
:104CDC00DBB2002B05D0FFF7EBFF054B00221A705F
:104CEC0004E0FFF7D9FF024B01221A7000BF80BD10
:104CFC00D405002080B400AF0A4B9B69094A43F0ED
:104D0C0004039361084B1B68074A23F47043136038
:104D1C00054B1B68044A43F44053136000BFBD4667
:104D2C0080BC7047001002400008014080B400AF06
:104D3C00034B08221A6100BFBD4680BC704700BF00
:104D4C000008014080B400AF034B4FF400221A61FD
:104D5C0000BFBD4680BC70470008014080B500AF65
:104D6C00244B1B68234A23F470631360214B1B688C
:104D7C00204A43F4006313601E4B1B681D4A23F446
:104D8C00806313601B4B1B681A4A23F44073136037
:104D9C00184BDB68174A43F00403D360164B9B692E
:104DAC00154A43F004039361134B9B69124A43F079
:104DBC0001039361114B114A9B689360104B1B6864
:104DCC000F4A43F0040313600D4BDB680C4A43F0AD
:104DDC000403D3600A4B9B68094A23F004039360D5
:104DEC0010210820FFF7B0FC0820FFF791FC00BF52
:104DFC0080BD00BF000801400010024000000140CF
:104E0C000004014080B500AFFFF7ACFD322318461B
:104E1C00FFF7FEFDFFF7A2FE4FF47A70FFF700FFDD
:104E2C00FFF768FFFFF78EFFFFF798FF00BF80BD0D
:104E3C0080B483B000AF2E4B9B692D4A43F0040322
:104E4C0093612B4B9B692A4A43F480539361294B02
:104E5C001B68284A9BB21360264B1B68254A43F4F7
:104E6C0040331360234B1B68224A43F43003136016
:104E7C00204B1B681F4A43F0306313601D4B1B68AB
:104E8C001C4A43F0304313601A4B10221A61002362
:104E9C007B607B6843F040037B607B6843F02003BE
:104EAC007B607B6823F001037B607B6823F002034B
:104EBC007B607B6823F400637B607B6823F080035A
:104ECC007B607B6843F400737B607B6843F4807386
:104EDC007B607B6843F004037B60074B1A680649D0
:104EEC007B6813430B6000BF0C37BD4680BC70471A
:104EFC0000100240000801400030014080B400AFB7
:104F0C00034B4FF480121A6100BFBD4680BC704742
:104F1C000008014080B400AF034B10221A6100BF9F
:104F2C00BD4680BC704700BF0008014080B483B010
:104F3C0000AF0346FB71094AFB79137000BF084BA5
:104F4C009B6803F00103002BF9D0054BDB68DBB247
:104F5C0018460C37BD4680BC704700BF0C30014072
:104F6C000030014080B483B000AF0346FB7197F969
:104F7C000730002B0BDBFB7903F01F02064997F976
:104F8C0007305B09012000FA02F241F8232000BF30
:104F9C000C37BD4680BC704700E100E080B584B0A2
:104FAC0000AF78601E4B9B691D4A43F0040393616C
:104FBC001B4B9B691A4A43F480439361194B5B6802
:104FCC00184A23F0F0035360164B5B68154A23F420
:104FDC0070635360134B5B68124A43F030035360A9
:104FEC00104B5B680F4A43F0800353600D4B5B68BA
:104FFC000C4A43F4806353600B4B1A687B68B2FB1A
:10500C00F3F3FB60094AFB689360084B42F22C02F5
:10501C00DA602520FFF7A6FF00BF1037BD4680BD24
:10502C000010024000080140000000200038014040
:10503C0080B582B000AF0346FB71FB790A2B02D11D
:10504C000D20FFF7F5FF074AFB79536000BF054BB6
:10505C001B6803F08003002BF9D000BF0837BD4656
:10506C0080BD00BF0038014080B584B000AF7860CF
:10507C000023FB600AE07B681B781846FFF7D8FF1B
:10508C007B6801337B60FB680133FB607B681B78BA
:10509C00002BF0D1FB6818461037BD4680BD80B59B
:1050AC0084B000AF78600023FB607868FFF7DCFF0A
:1050BC00F8600A20FFF7BCFFFB6818461037BD46A6
:1050CC0080BD000080B485B000AF0346FB71114B6E
:1050DC001B7CDBB201335A4203F00F0302F00F02C8
:1050EC0058BF5342FB600B4B5B7CDBB21A46FB6830
:1050FC0093420AD0074B1B7CDBB21946054AFB795D
:10510C005354FB68DAB2034B1A7400BF1437BD4614
:10511C0080BC7047D805002080B582B000AF0D4B25
:10512C001B680C4B5B68FB71FB791B2B06D10A4887
:10513C00FFF79AFF0948FFF797FF07E0FB7918463E
:10514C00FFF7C0FFFB79184600F0DAFC0837BD46C4
:10515C0080BD00BF003801401C800008588000084A
:10516C0080B483B000AF786000BF0C37BD4680BC04
:10517C007047000080B500AFFDF77CFD03463A2276
:10518C0006211846FCF7BEF903461A4602490348A5
:10519C00FCF7DAF800BF80BD788700087C87000830
:1051AC0080B584B000AF78600023FB601BE0114A2F
:1051BC00FB6852F8233079681846FAF7C1FF0346AA
:1051CC00002B0DD1FB68FB72FB7A1846FCF70EFA2C
:1051DC0003461846FCF7D4F903461846FFF75FFF61
:1051EC00FB680133FB60FB68672BE0D900BF10370D
:1051FC00BD4680BD5C03002080B58CB000AF7860EC
:10520C0007F1280206231549786800F019FDFDF70F
:10521C0031FD024607F112031168196092889A80D9
:10522C0007F10C0307F1280292E80300186004331D
:10523C0019803B7A042262F385033B723B8902227C
:10524C0062F389133B8107F1080319460020FEF72E
:10525C0029F800BF3037BD4680BD00BF94870008D9
:10526C0080B58AB000AF786007F108031A1D0623D9
:10527C000949786800F0E4FC3B7A012262F385036B
:10528C003B7207F1080319460020FEF70BF800BF2C
:10529C002837BD4680BD00BF9487000880B584B018
:1052AC0000AF786007F1080206230749786800F020
:1052BC00C7FC07F1080393E80300FEF75FFF00BF8C
:1052CC001037BD4680BD00BF9487000880B5C8B0BC
:1052DC0002AF3B1D186007F58672381D0623154971
:1052EC00006800F0ADFC0023C7F814310EE0D7F8CD
:1052FC001431D9B207F10C02D7F8143113440A4611
:10530C001A70D7F814310133C7F81431D7F81431A7
:10531C00FE2BECDD07F10C0207F58671FF230093E1
:10532C00134606220020FEF70DF800BF07F58C7718
:10533C00BD4680BD9487000880B582B000AF786010
:10534C0010497868FAF7FCFE0346002B02D10220C4
:10535C00FCF794FC0C497868FAF7F2FE0346002B34
:10536C0002D10020FCF78AFC08497868FAF7E8FEBD
:10537C000346002B02D10120FCF780FC00BF08374C
:10538C00BD4680BD9C870008A4870008AC87000838
:10539C0080B582B000AFFCF7ABFC0346FB710D4B44
:1053AC003B60FB79012B0CD0022B02D0002B04D0DC
:1053BC000BE0094B3B603B6808E0084B3B603B68EB
:1053CC0004E0074B3B603B6800E03B68184608373D
:1053DC00BD4680BDE48100089C870008A4870008B6
:1053EC00AC87000880B582B000AF00237B6048E03A
:1053FC0027497A681346DB0013449B000B440433A3
:10540C001B68002B18D022497A681346DB00134422
:10541C009B000B4418681E497A681346DB00134442
:10542C009B000B4404331B6802461A491A4800F0CF
:10543C001BFE1948FFF733FE15497A681346DB004B
:10544C0013449B000B4408331B68002B13D0124BE6
:10545C0000221A700E497A681346DB0013449B0035
:10546C000B4408331B680D4A0A490B4800F0FCFD3D
:10547C000948FFF714FE0948FFF711FE7B6801335A
:10548C007B607B681B2BB3D900BF0837BD4680BD42
:10549C0020880008B487000844080020E481000834
:1054AC0080B584B000AF78600023FB602AE0194916
:1054BC00FA681346DB0013449B000B441B687968A5
:1054CC001846FAF73DFE0346002B18D11149FA682D
:1054DC001346DB0013449B000B4418680D49FA6813
:1054EC001346DB0013449B000B4404331B68024639
:1054FC0009490A4800F0B8FD0848FFF7D0FDFB68E1
:10550C000133FB60FB681B2BD1D900BF1037BD46A4
:10551C0080BD00BF20880008B48700084408002024
:10552C0080B582B000AF0346FB71FB79082B07D026
:10553C00102B09D0002B00D00AE0FCF747FA07E04B
:10554C000020FCF763FA03E00120FCF75FFA00BFD0
:10555C0000BF0837BD4680BD80B500AFFCF746FAEA
:10556C000346002B07D0FCF76DFA03460133DBB280
:10557C00DB00DBB200E00023184680BDB0B586B07E
:10558C0000AF78606B461D46FCF7CEFA0346FB7500
:10559C00F87D0346013B3B61C1B24FF000024FF076
:1055AC0000034FF00004D40044EA5174CB00C1B2A4
:1055BC004FF000024FF000034FF00004D40044EA17
:1055CC005174CB0003460733DB08DB00ADEB030D56
:1055DC006B460033FB60FA68FB7D0749786800F086
:1055EC002FFBFB68FA7D11461846FCF715FCAD46FF
:1055FC0000BF1837BD46B0BD94870008B0B584B065
:10560C0000AF6B461D46FCF78FFA0346FB73F87B25
:10561C000346013BBB60C1B24FF000024FF00003E8
:10562C004FF00004D40044EA5174CB00C1B24FF0E7
:10563C0000024FF000034FF00004D40044EA517410
:10564C00CB0003460733DB08DB00ADEB030D6B46E9
:10565C0000337B607B681846FCF7F8FB7868F97BB5
:10566C00044B3A2200F014FB024BAD46184610379F
:10567C00BD46B0BD2408002080B485B000AF786072
:10568C0039600023FB600023BB6021E0FB68042B26
:10569C000DD81C4B1B781A46FB6813441A4AD25C73
:1056AC00FB6879680B441B789A420ED025E0154BA9
:1056BC001B781A46FB681A44BB68591CB96019461A
:1056CC003B680B4410498A5C1A70FB680133FB6021
:1056DC000C4B1B781A46FB6813440B4AD35C002B0B
:1056EC0006D0084B1B781A46FB6813441F2BCDD9E8
:1056FC00BB683A68134400221A701437BD4680BC4C
:10570C00704700BFEE05002024080020B0B588B01B
:10571C0000AF786007F10C0319463448FFF7ACFF73
:10572C0007F10C03184600F01CFB0346FB77FB7FCC
:10573C00052B57D801A252F823F000BF615700087F
:10574C0061570008D5570008D5570008D5570008F1
:10575C00D55700086B461D46FCF7E6F903467B77E8
:10576C00787F0346013BBB61C1B24FF000024FF0A2
:10577C0000034FF00004D40044EA5174CB00C1B2D2
:10578C004FF000024FF000034FF00004D40044EA45
:10579C005174CB0003460733DB08DB00ADEB030D84
:1057AC006B4600337B617A697B7F1149786800F026
:1057BC0047FAFB7F0A33D9B27A697B7F0120FBF76A
:1057CC0050FF00BFAD460DE0786800F0CAFA034602
:1057DC00BB77FB7F0A33DBB2BA7F11461846FBF767
:1057EC001FFF00BF2037BD46B0BD00BFC0870008FB
:1057FC0094870008B0B586B000AF6B461D463B1DC4
:10580C0019463648FFF738FF3B1D184600F0A9FA39
:10581C000346FB75FCF788F90346BB75B87D034658
:10582C00013B3B61C1B24FF000024FF000034FF05F
:10583C000004D40044EA5174CB00C1B24FF0000212
:10584C004FF000034FF00004D40044EA5174CB0035
:10585C0003460733DB08DB00ADEB030D6B4600336F
:10586C00FB60FB7D052B2BD801A252F823F000BF67
:10587C009558000895580008A7580008A758000824
:10588C00A7580008A7580008FB7D0A33D9B2FA685C
:10589C00BB7D0020FBF7E5FE12E0FA68BB7D0B2117
:1058AC000020FBF7DEFEFB7D0A33DAB2BB7D5C1E0B
:1058BC001046FBF79BFE03461A46FB681A5500BFC1
:1058CC00F868074BDAB2B97D064B00F0E1F9054BED
:1058DC00AD4618461837BD46B0BD00BFC08700089E
:1058EC00C88700084408002080B584B000AF034688
:1058FC00FB7107F1080319460A48FFF7BDFE07F1D3
:10590C000803184600F02DFA0346FB73FB7B11339A
:10591C00DBB2FA7911461846FBF782FE00BF10374E
:10592C00BD4680BDC087000880B582B000AF3B4645
:10593C0019460A48FFF7A0FE3B46184600F011FA3C
:10594C000346FB71FB791133DBB21846FBF74EFEB5
:10595C00034618460837BD4680BD00BFC087000807
:10596C0084B080B58EB000AF07F1400C8CE80F000E
:10597C00444B1B7803F02003DBB2002B1BD097F8B1
:10598C004C30002B02D0012B0CD00FE03E4800F025
:10599C00E8F9034687F837307B6D97F837201046C7
:1059AC00984703E0BB6D3848984700BF354A1378D9
:1059BC006FF345131370334B1B7803F04003DBB2CA
:1059CC00002B58D097F84D30012B2BD0022B47D001
:1059DC00002B4BD13B6C1846FFF746FB294B1B7831
:1059EC0003F01003DBB2002B08D03B1D19462748EF
:1059FC00FFF742FE3B1D1846FFF736FB3D20FFF735
:105A0C0017FBFB6D9847034687F8373097F837300C
:105A1C00391D0A22184600F0E5F93B1D1846FFF720
:105A2C003EFB23E03B6C1846FFF71EFB154B1B7827
:105A3C0003F01003DBB2002B08D03B1D19461348B2
:105A4C00FFF71AFE3B1D1846FFF70EFB3D20FFF734
:105A5C00EFFA3B6E984703461846FFF720FB05E02C
:105A6C003B6D98470A48FFF71AFB00BF054A1378AD
:105A7C006FF38613137000BF3837BD46BDE8804006
:105A8C0004B07047EC05002044080020C0870008D3
:105A9C00CC870008F0B589B006AF00237B6023E00B
:105AAC0015497A681346DB0013449B000B441B68B2
:105ABC0019461248FAF744FB0346002B11D10E4944
:105ACC007A681346DB0013449B00CE186D4606F132
