:020000040800F2
:1000000000500020A95F0008F15F0008F15F0008C0
:10001000F15F0008F15F0008F15F000800000000D8
:10002000000000000000000000000000F15F000878
:10003000F15F000800000000F15F0008D94A0008E5
:10004000F15F0008F15F0008F15F0008F15F000850
:10005000F15F0008F15F0008F15F0008F15F000840
:10006000E54A0008F15F0008F15F0008F15F000851
:10007000F15F0008F15F0008F15F0008F15F000820
:10008000F15F0008F15F0008F15F0008F15F000810
:10009000F15F0008F15F0008F15F0008F15F000800
:1000A000F15F0008F15F0008F15F0008F15F0008F0
:1000B000094B0008F15F0008F15F0008F15F0008DC
:1000C000F15F0008F15F0008F15F0008F15F0008D0
:1000D000F15F000811540008F15F0008F15F0008AB
:1000E000B14B0008F15F0008F15F0008000000005C
:1000F0000000000000000000000000000000000000
:0C01000000000000000000005FF808F1A3
:10010C0010B5054C237833B9044B13B10448AFF345
:10011C0000800123237010BD940500200000000016
:10012C00746C000808B5034B1BB103490348AFF3CB
:10013C00008008BD0000000098050020746C0008C9
:10014C0010F8012B11F8013B012A28BF9A42F7D075
:10015C00D01A7047034613F8012B002AFBD1181A4A
:10016C000138704780B500AF01F02AF8FEE70000B7
:10017C0080B400AF154B1B68144A43F001031360A5
:10018C00124B5A681149124B13404B600F4B1B68B2
:10019C000E4A23F0847323F4803313600B4B1B68DB
:1001AC000A4A23F480231360084B5B68074A23F444
:1001BC00FE035360054B4FF41F029A60054B4FF042
:1001CC0000629A6000BFBD4680BC704700100240C0
:1001DC000000FFF800ED00E080B485B000AF002314
:1001EC00FB600023BB6000237B602C4B5B6803F03F
:1001FC000C03FB60FB68042B07D0082B09D0002BE9
:10020C0033D1274B274A1A6033E0254B254A1A6015
:10021C002FE0224B5B6803F47013BB601F4B5B68D1
:10022C0003F480337B60BB689B0C0233BB607B6840
:10023C00002B06D1BB681C4A02FB03F3184A13605F
:10024C0017E0164B5B6803F40033002B06D0BB6839
:10025C00154A02FB03F3124A13600AE0BB68114A09
:10026C0002FB03F30E4A136003E00D4B0D4A1A60B8
:10027C0000BF0A4B5B681B0903F00F030B4AD35CEE
:10028C00FB60074B1A68FB6822FA03F3044A1360FD
:10029C0000BF1437BD4680BC704700BF0010024041
:1002AC000000002000127A0000093D00F4890008CB
:1002BC0080B487B000AFF860B9601346FB800023B0
:1002CC00FB820023BB8233E0FB8A9B00BA68134499
:1002DC001968BB8AFA681344CAB21A70FB8A9B006D
:1002EC00BA6813441B68190ABB8A0133FA681344B1
:1002FC00CAB21A70FB8A9B00BA6813441B68190CAB
:10030C00BB8A0233FA681344CAB21A70FB8A9B0088
:10031C00BA6813441B68190EBB8A0333FA6813447A
:10032C00CAB21A70FB8A0133FB82BB8A0433BB82CC
:10033C00BA8AFB889A42C7D300BF1C37BD4680BC23
:10034C00704780B487B000AFF860B9601346FB808B
:10035C000023FB820023BB8226E0BB8ABA681344CD
:10036C001B781946BB8A0133BA6813441B781B02ED
:10037C0041EA0302BB8A0233B9680B441B781B04A5
:10038C0042EA0301BB8A0333BA6813441B781A068A
:10039C00FB8A9B00F86803440A431A60FB8A01330A
:1003AC00FB82BB8A0433BB82BA8AFB889A42D4D3C1
:1003BC0000BF1C37BD4680BC7047000080B596B0AE
:1003CC0000AF786039607B681B687B657B685B6815
:1003DC003B657B689B68FB647B68DB68BB6407F1EF
:1003EC000803402239681846FFF7ABFF3A6DFB6CE7
:1003FC001A403B6DD943BB6C0B401A43BB681A4483
:10040C007B6D1A44A24B13447B657B6D4FEA73637F
:10041C007B657A6D3B6D13447B657A6D3B6D1A4041
:10042C007B6DD943FB6C0B401A43FB681A44BB6CC5
:10043C001A44984B1344BB64BB6C4FEA3353BB64F4
:10044C00BA6C7B6D1344BB64BA6C7B6D1A40BB6C8D
:10045C00D9433B6D0B401A433B691A44FB6C1A445D
:10046C008D4B1344FB64FB6C4FEAF333FB64FA6C67
:10047C00BB6C1344FB64FA6CBB6C1A40FB6CD94329
:10048C007B6D0B401A437B691A443B6D1A44834BBA
:10049C0013443B653B6D4FEAB3233B653A6DFB6CF4
:1004AC0013443B653A6DFB6C1A403B6DD943BB6CF6
:1004BC000B401A43BB691A447B6D1A44784B1344A6
:1004CC007B657B6D4FEA73637B657A6D3B6D134483
:1004DC007B657A6D3B6D1A407B6DD943FB6C0B4091
:1004EC001A43FB691A44BB6C1A446E4B1344BB642D
:1004FC00BB6C4FEA3353BB64BA6C7B6D1344BB6467
:10050C00BA6C7B6D1A40BB6CD9433B6D0B401A43E4
:10051C003B6A1A44FB6C1A44634B1344FB64FB6C3C
:10052C004FEAF333FB64FA6CBB6C1344FB64FA6C58
:10053C00BB6C1A40FB6CD9437B6D0B401A437B6A36
:10054C001A443B6D1A44594B13443B653B6D4FEABF
:10055C00B3233B653A6DFB6C13443B653A6DFB6C06
:10056C001A403B6DD943BB6C0B401A43BB6A1A440F
:10057C007B6D1A444E4B13447B657B6D4FEA736362
:10058C007B657A6D3B6D13447B657A6D3B6D1A40D0
:10059C007B6DD943FB6C0B401A43FB6A1A44BB6C52
:1005AC001A44444B1344BB64BB6C4FEA3353BB64D7
:1005BC00BA6C7B6D1344BB64BA6C7B6D1A40BB6C1C
:1005CC00D9433B6D0B401A433B6B1A44FB6C1344F1
:1005DC00A3F524434F3BFB64FB6C4FEAF333FB6402
:1005EC00FA6CBB6C1344FB64FA6CBB6C1A40FB6C6E
:1005FC00D9437B6D0B401A437B6B1A443B6D1A44F9
:10060C002D4B13443B653B6D4FEAB3233B653A6D71
:10061C00FB6C13443B653A6DFB6C1A403B6DD94344
:10062C00BB6C0B401A43BB6B1A447B6D1A44234BB7
:10063C0013447B657B6D4FEA73637B657A6D3B6D11
:10064C0013447B657A6D3B6D1A407B6DD943FB6C13
:10065C000B401A43FB6B1A44BB6C1A44184B1344E3
:10066C00BB64BB6C4FEA3353BB64BA6C7B6D1344F5
:10067C00BB64BA6C7B6D1A40BB6CD9433B6D0B40B1
:10068C001A433B6C1A44FB6C1A440E4B13441BE08C
:10069C0078A46AD756B7C7E8DB702024EECEBDC16C
:1006AC00AF0F7CF52AC68747134630A8019546FD47
:1006BC00D8988069AFF7448BBED75C892211906BB8
:1006CC00937198FD8E4379A6FB64FB6C4FEAF33370
:1006DC00FB64FA6CBB6C1344FB64FA6CBB6C1A4085
:1006EC00FB6CD9437B6D0B401A437B6C1A443B6DFE
:1006FC001A44A24B13443B653B6D4FEAB3233B6555
:10070C003A6DFB6C13443B653A6DBB6C1A40BB6C89
:10071C00D943FB6C0B401A43FB681A447B6D1A449B
:10072C00974B13447B657B6D4FEAF3637B657A6D66
:10073C003B6D13447B657A6DFB6C1A40FB6CD943A3
:10074C003B6D0B401A433B6A1A44BB6C1A448D4BED
:10075C001344BB64BB6C4FEAF353BB64BA6C7B6D44
:10076C001344BB64BA6C3B6D1A403B6DD9437B6D33
:10077C000B401A437B6B1A44FB6C1A44824B134498
:10078C00FB64FB6C4FEAB343FB64FA6CBB6C134425
:10079C00FB64FA6C7B6D1A407B6DD943BB6C0B40D0
:1007AC001A43BB681A443B6D1A44784B13443B659F
:1007BC003B6D4FEA33333B653A6DFB6C13443B6541
:1007CC003A6DBB6C1A40BB6CD943FB6C0B401A43A3
:1007DC00FB691A447B6D1A446D4B13447B657B6D2E
:1007EC004FEAF3637B657A6D3B6D13447B657A6DE1
:1007FC00FB6C1A40FB6CD9433B6D0B401A433B6BB3
:10080C001A44BB6C1A44634B1344BB64BB6C4FEA75
:10081C00F353BB64BA6C7B6D1344BB64BA6C3B6D15
:10082C001A403B6DD9437B6D0B401A437B6C1A44C9
:10083C00FB6C1A44584B1344FB64FB6C4FEAB343F8
:10084C00FB64FA6CBB6C1344FB64FA6C7B6D1A4052
:10085C007B6DD943BB6C0B401A43BB691A443B6D8F
:10086C001A444E4B13443B653B6D4FEA33333B65A7
:10087C003A6DFB6C13443B653A6DBB6C1A40BB6C18
:10088C00D943FB6C0B401A43FB6A1A447B6D1A4428
:10089C00434B13447B657B6D4FEAF3637B657A6D49
:1008AC003B6D13447B657A6DFB6C1A40FB6CD94332
:1008BC003B6D0B401A433B6C1A44BB6C1A44394BCE
:1008CC001344BB64BB6C4FEAF353BB64BA6C7B6DD3
:1008DC001344BB64BA6C3B6D1A403B6DD9437B6DC2
:1008EC000B401A437B691A44FB6C1A442E4B13447D
:1008FC00FB64FB6C4FEAB343FB64FA6CBB6C1344B4
:10090C00FB64FA6C7B6D1A407B6DD943BB6C0B405E
:10091C001A43BB6A1A443B6D1A44244B13443B657F
:10092C003B6D4FEA33333B653A6DFB6C13443B65CF
:10093C003A6DBB6C1A40BB6CD943FB6C0B401A4331
:10094C00FB6B1A447B6D1A44194B13447B657B6D0E
:10095C004FEAF3637B657A6D3B6D13447B657A6D6F
:10096C00FB6C1A40FB6CD9433B6D0B401A433B6943
:10097C001A44BB6C1A440F4B13441DE02108B449B4
:10098C0062251EF640B340C0515A5E26AAC7B6E98E
:10099C005D102FD65314440281E6A1D8C8FBD3E7CF
:1009AC00E6CDE121D60737C3870DD5F4ED145A45B2
:1009BC0005E9E3A9F8A3EFFCBB64BB6C4FEAF35366
:1009CC00BB64BA6C7B6D1344BB64BA6C3B6D1A4050
:1009DC003B6DD9437B6D0B401A437B6A1A44FB6C0D
:1009EC001A44A04B1344FB64FB6C4FEAB343FB6407
:1009FC00FA6CBB6C1344FB64FA6C7B6D1A407B6D18
:100A0C00D943BB6C0B401A43BB6B1A443B6D1A4465
:100A1C00954B13443B653B6D4FEA33333B653A6D65
:100A2C00FB6C13443B653A6DFB6C5A40BB6C5A40F3
:100A3C00FB691A447B6D1344A3F5B823A3F2BE6380
:100A4C007B657B6D4FEA33737B657A6D3B6D13442D
:100A5C007B657A6D3B6D5A40FB6C5A40BB6A1A44FD
:100A6C00BB6C1A44814B1344BB64BB6C4FEA73538D
:100A7C00BB64BA6C7B6D1344BB64BA6C7B6D5A401F
:100A8C003B6D5A407B6B1A44FB6C1A44784B1344F5
:100A9C00FB64FB6C4FEA3343FB64FA6CBB6C134492
:100AAC00FB64FA6CBB6C5A407B6D5A403B6C1A442D
:100ABC003B6D1A446F4B13443B653B6D4FEA7323FC
:100ACC003B653A6DFB6C13443B653A6DFB6C5A40CD
:100ADC00BB6C5A40FB681A447B6D1A44664B13443A
:100AEC007B657B6D4FEA33737B657A6D3B6D13448D
:100AFC007B657A6D3B6D5A40FB6C5A40BB691A445E
:100B0C00BB6C1A445D4B1344BB64BB6C4FEA735310
:100B1C00BB64BA6C7B6D1344BB64BA6C7B6D5A407E
:100B2C003B6D5A407B6A1A44FB6C1A44544B134479
:100B3C00FB64FB6C4FEA3343FB64FA6CBB6C1344F1
:100B4C00FB64FA6CBB6C5A407B6D5A403B6B1A448D
:100B5C003B6D1A444B4B13443B653B6D4FEA73237F
:100B6C003B653A6DFB6C13443B653A6DFB6C5A402C
:100B7C00BB6C5A40FB6B1A447B6D1A44424B1344BA
:100B8C007B657B6D4FEA33737B657A6D3B6D1344EC
:100B9C007B657A6D3B6D5A40FB6C5A40BB681A44BE
:100BAC00BB6C1A44394B1344BB64BB6C4FEA735394
:100BBC00BB64BA6C7B6D1344BB64BA6C7B6D5A40DE
:100BCC003B6D5A407B691A44FB6C1A44304B1344FE
:100BDC00FB64FB6C4FEA3343FB64FA6CBB6C134451
:100BEC00FB64FA6CBB6C5A407B6D5A403B6A1A44EE
:100BFC003B6D1A44274B13443B653B6D4FEA732303
:100C0C003B653A6DFB6C13443B653A6DFB6C5A408B
:100C1C00BB6C5A40FB6A1A447B6D1A441E4B13443E
:100C2C007B657B6D4FEA33737B657A6D3B6D13444B
:100C3C007B657A6D3B6D5A40FB6C5A40BB6B1A441A
:100C4C00BB6C1A44154B1344BB64BB6C4FEA735317
:100C5C00BB64BA6C7B6D1344BB64BA6C7B6D5A403D
:100C6C001EE000BFD9026F678A4C2A8D81F671870E
:100C7C0022619D6D0C38E5FD44EABEA4A9CFDE4B84
:100C8C00604BBBF670BCBFBEC67E9B28FA27A1EAA0
:100C9C008530EFD4051D880439D0D4D9E599DBE62D
:100CAC003B6D5A407B6C1A44FB6C1A44A24B1344A8
:100CBC00FB64FB6C4FEA3343FB64FA6CBB6C134470
:100CCC00FB64FA6CBB6C5A407B6D5A403B691A440E
:100CDC003B6D1A44994B13443B653B6D4FEA7323B0
:100CEC003B653A6DFB6C13443B65BB6CDA433B6D67
:100CFC001A43FB6C5A40BB681A447B6D1A44904BE8
:100D0C0013447B657B6D4FEAB3637B657A6D3B6DFA
:100D1C0013447B65FB6CDA437B6D1A433B6D5A4085
:100D2C007B6A1A44BB6C1A44864B1344BB64BB6C81
:100D3C004FEAB353BB64BA6C7B6D1344BB643B6D1D
:100D4C00DA43BB6C1A437B6D5A403B6C1A44FB6C08
:100D5C001A447D4B1344FB64FB6C4FEA7343FB64F6
:100D6C00FA6CBB6C1344FB647B6DDA43FB6C1A436B
:100D7C00BB6C5A40FB691A443B6D1A44734B1344C9
:100D8C003B653B6D4FEAF3233B653A6DFB6C1344BB
:100D9C003B65BB6CDA433B6D1A43FB6C5A40BB6B37
:100DAC001A447B6D1A446A4B13447B657B6D4FEA86
:100DBC00B3637B657A6D3B6D13447B65FB6CDA43E7
:100DCC007B6D1A433B6D5A407B691A44BB6C1A44C9
:100DDC00604B1344BB64BB6C4FEAB353BB64BA6C3B
:100DEC007B6D1344BB643B6DDA43BB6C1A437B6D68
:100DFC005A403B6B1A44FB6C1344A3F58013A3F6C7
:100E0C008333FB64FB6C4FEA7343FB64FA6CBB6C7F
:100E1C001344FB647B6DDA43FB6C1A43BB6C5A4086
:100E2C00FB681A443B6D1A444B4B13443B653B6DBA
:100E3C004FEAF3233B653A6DFB6C13443B65BB6C8B
:100E4C00DA433B6D1A43FB6C5A40BB6A1A447B6D08
:100E5C001A44424B13447B657B6D4FEAB3637B654D
:100E6C007A6D3B6D13447B65FB6CDA437B6D1A43E7
:100E7C003B6D5A407B6C1A44BB6C1A44384B134480
:100E8C00BB64BB6C4FEAB353BB64BA6C7B6D13444D
:100E9C00BB643B6DDA43BB6C1A437B6D5A403B6AB7
:100EAC001A44FB6C1A442F4B1344FB64FB6C4FEA43
:100EBC007343FB64FA6CBB6C1344FB647B6DDA43C9
:100ECC00FB6C1A43BB6C5A40FB6B1A443B6D1A44C7
:100EDC00254B13443B653B6D4FEAF3233B653A6D61
:100EEC00FB6C13443B65BB6CDA433B6D1A43FB6CE8
:100EFC005A40BB691A447B6D1A441C4B13447B65E6
:100F0C007B6D4FEAB3637B657A6D3B6D13447B65F8
:100F1C00FB6CDA437B6D1A433B6D5A407B6B1A4476
:100F2C00BB6C1A44124B1344BB64BB6C4FEAB353F7
:100F3C00BB64BA6C1EE000BFF87CA21F6556ACC443
:100F4C00442229F497FF2A43A72394AB39A093FC9E
:100F5C00C3595B6592CC0C8FD15D84854F7EA86F95
:100F6C00E0E62CFE144301A3A111084E827E53F738
:100F7C0035F23ABD7B6D1344BB643B6DDA43BB6CFD
:100F8C001A437B6D5A403B691A44FB6C1A44244B40
:100F9C001344FB64FB6C4FEA7343FB64FA6CBB6C4D
:100FAC001344FB647B6DDA43FB6C1A43BB6C5A40F5
:100FBC00FB6A1A443B6D1A441A4B13443B653B6D58
:100FCC004FEAF3233B653A6DFB6C13443B657B683E
:100FDC001A687B6D1A447B681A607B680433196845
:100FEC007B6804333A6D0A441A607B6808331968CD
:100FFC007B680833FA6C0A441A607B680C331968F6
:10100C007B680C33BA6C0A441A6007F1080340225F
:10101C000021184605F054F800BF5837BD4680BD76
:10102C00BBD2D72A91D386EB80B483B000AF786063
:10103C007B6800225A617B685A697B681A617B68FD
:10104C00074A1A607B68074A5A607B68064A9A60AE
:10105C007B68064ADA6000BF0C37BD4680BC70471F
:10106C000123456789ABCDEFFEDCBA98765432107C
:10107C0080B586B000AFF860B9607A60FB681B6918
:10108C00DB089BB203F03F03BB82FB681A697B68E9
:10109C00DB001A44FB681A61FB681A697B68DB0089
:1010AC009A4204D2FB685B695A1CFB685A61FB6864
:1010BC005A697B685B0F1A44FB685A61BB8AC3F19F
:1010CC0040037B827B8A7A689A4225D3BB8A183389
:1010DC00FA6813447A8AB968184604F0E6FFFA688D
:1010EC00FB68183319461046FFF768F97B8AFB82B8
:1010FC0009E0F868FB8ABA6813441946FFF75EF9F1
:10110C00FB8A4033FB82FB8A3F331A467B6893424F
:10111C00EFD80023BB8201E00023FB82BB8A18338B
:10112C00FA68D018FB8ABA68D118FB8A7A68D31A85
:10113C001A4604F0BAFF00BF1837BD4680BD000048
:10114C0080B586B000AF786039603B6803F1100160
:10115C0007F10C0308221846FFF7AAF83B681B6935
:10116C00DB089BB203F03F03FB82FB8A372B04D8CE
:10117C00FB8AC3F138039BB203E0FB8AC3F178030B
:10118C009BB2BB82BB8A1A460C493868FFF770FFCA
:10119C0007F10C03082219463868FFF769FF3B6812
:1011AC00102219467868FFF783F858220021386816
:1011BC0004F086FF00BF1837BD4680BD048A0008C6
:1011CC0080B500AF02F036FC00BF80BD80B483B0A8
:1011DC0000AF124B01221A7000237B6007E0104A0B
:1011EC007B68134401221A707B6801337B607B6837
:1011FC00042BF4DD00233B6007E00A4A3B681344F0
:10120C0001221A703B6801333B603B68042BF4DD10
:10121C0000BF0C37BD4680BC704700BF5C0000208F
:10122C00E40600205C06002080B400AF034B0022D3
:10123C001A7000BFBD4680BC704700BF5C00002028
:10124C0090B58DB000AF0446084611461A462346A9
:10125C00FB710346BB710B467B7113463B71324BE2
:10126C001B78002B5BD0FB79304A52F82310BB79EA
:10127C002F4A52F823301A462E4800F065F8002306
:10128C003B6107F1140300221A605A609A60DA601D
:10129C001A615A611A837B79002B1BD03B79002B86
:1012AC000ED07B79244A52F823103B79224A52F80B
:1012BC00233007F110000A46204905F017F809E021
:1012CC007B791D4A52F8232007F11003114618466A
:1012DC0005F03BF807F110031946194800F034F8F3
:1012EC0000233B743B6C002B0CD03B6C3A22062148
:1012FC00184600F007F9024607F11003114618468C
:10130C0005F023F807F1100319460E4800F01CF8FD
:10131C0007F14803FB60F968786C00F027F800BF10
:10132C003437BD4690BD00BF5C0000202800002073
:10133C0040000020386F000804000020446F0008B3
:10134C004C6F0008546F00080FB480B582B000AF2A
:10135C0007F114037B607968386900F007F800BF67
:10136C000837BD46BDE8804004B0704780B58AB0F0
:10137C0000AF78603960B8E07B681B78252B40F0B3
:10138C00AC807B6801337B607B681B78642B3ED020
:10139C00642B04DC2D2B48D0632B2ED0A2E06C2BBD
:1013AC0003D0732B00F08F809CE07B6801337B6053
:1013BC007B681B78732B11D0752B00D092E03B68A7
:1013CC001A1D3A601B68FB61FB690A224B491846DF
:1013DC0004F04AFE494803F0BDFF0DE03B681A1DBE
:1013EC003A601B68BB610A224449B86904F03CFEB0
:1013FC00424803F0AFFF00BF74E03B681A1D3A602F
:10140C001B68FB74FB7C184603F088FF6AE03B68A2
:10141C001A1D3A601B687B610A223849786904F00E
:10142C0023FE364803F096FF5CE07B6801337B605B
:10143C00002387F827300023BB7416E097F8273079
:10144C00022B02D92E4803F085FF97F827305A1C3F
:10145C0087F8272019467B681A7807F128030B4474
:10146C0003F8202C7B6801337B607B681B78732B23
:10147C00E4D197F8273007F128021344002203F82F
:10148C00202C07F10803184604F0ADFD0346BB748D
:10149C003B681A1D3A601B68FB60F86803F05AFF42
:1014AC00034687F8263007E097F82630013387F893
:1014BC002630202003F032FF97F82620BB7C9A427E
:1014CC00F2D300BF0EE03B681A1D3A601B683B620A
:1014DC00386A03F03FFF00BF04E07B681B781846B6
:1014EC0003F01CFF7B6801337B607B681B78002B4F
:1014FC007FF442AF00BF2837BD4680BDEC0600200C
:10150C005C6F000880B584B000AF78600B46FB7050
:10151C001346BB700023FB730023BB730023FB73C8
:10152C0013E0BB7B134A9818FB7B7A6813441B7837
:10153C001A46BB78104904F0D9FE0346DAB2BB7BDD
:10154C001344BB73FB7B0133FB73FA7BFB78013BCE
:10155C009A42E6DBBB7B074A9818FB7B7A681344FC
:10156C001B781A46054904F0C1FE024B1846103789
:10157C00BD4680BD64060020706F0008786F0008BF
:10158C0080B586B000AF786000233B61092004F081
:10159C006DFD0346FB6007237B611AE07A687B696B
:1015AC0042FA03F3BB60BB6803F00103002B05D0C8
:1015BC003B69FA68134431221A7004E03B69FA68FB
:1015CC00134430221A703B6901333B617B69013B48
:1015DC007B617B69002BE1DA3B69FA6813440022DA
:1015EC001A70FB6818461837BD4680BD80B584B0AC
:1015FC0000AF0346FB7103F0F7FDFB7903F01F030B
:10160C00DBB2184603F008FEFF2003F005FE03468C
:10161C00FB7303F0F5FDFB7B18461037BD4680BD10
:10162C0080B584B000AF03460A46FB711346BB710C
:10163C0003F0DAFDFB7903F01F03DBB243F0200368
:10164C00DBB2184603F0E8FDBB79184603F0E4FD65
:10165C000346FB7303F0D4FDFB7B18461037BD46E5
:10166C0080BD90B585B000AF3A601A460346FB7159
:10167C000B46BB7113467B71FB79012B08D1BB79EF
:10168C00A02B05D0BB79B02B02D0BB792033BB711A
:10169C0003F0AAFDBB79184603F0BEFD0023FB60E6
:1016AC0017E0FB79002B07D1FB683A68D418FF20B0
:1016BC0003F0B2FD03462370FB79012B06D1FB68C6
:1016CC003A6813441B78184603F0A6FDFB680133F7
:1016DC00FB607B79FA689A42E3DB03F091FD00BF73
:1016EC001437BD4690BD000080B584B000AF786063
:1016FC0039607B681B78032B35D0052B65D0012B0B
:10170C006DD13B681A787B681B799A4226D33B686B
:10171C001A787B685B799A4220D87B685B7818468C
:10172C00FFF764FF03461A467B689B781340BB7334
:10173C003B681B781A467B68DB7802FA03F35AB2D3
:10174C0097F90E3013435BB2BB737B685B78BA7B43
:10175C0011461846FFF764FF012341E0224803F0CD
:10176C0014FE00233CE03B685A787B681B799A4254
:10177C0026D33B685A787B685B799A4220D87B6881
:10178C005B781846FFF732FF03461A467B689B7856
:10179C001340FB733B685B781A467B68DB7802FA74
:1017AC0003F35AB297F90F3013435BB2FB737B68A8
:1017BC005B78FA7B11461846FFF732FF01230FE0E6
:1017CC00094803F0E2FD00230AE07B6859783B6886
:1017DC005A6805230120FFF744FF012300E0002392
:1017EC0018461037BD4680BDCC71000880B584B05A
:1017FC0000AF786039607B681B78052B4FD801A24D
:10180C0052F823F029180008291800086518000858
:10181C006518000897180008971800087B685B7813
:10182C001846FFF7E3FE03465AB27B689B785BB21F
:10183C00DB435BB213405BB27B737B7B7A68D27801
:10184C0013413B733B7B002B14BF01230023DAB203
:10185C003B681A70012323E07B685B781846FFF71E
:10186C00C5FE03465AB27B689B785BB2DB435BB226
:10187C0013405BB2FB73FB7B7A68D2781341BB736A
:10188C003B68BA7B5A7001230AE07B6859783B6845
:10189C005A6805230020FFF7E4FE012300E0002333
:1018AC0018461037BD4680BD80B483B000AF0346E8
:1018BC00FB71044AFB791370024B18460C37BD467A
:1018CC0080BC70470006002080B483B000AF034694
:1018DC00FB71044AFB795370024B18460C37BD461A
:1018EC0080BC70470006002080B483B000AF7860E5
:1018FC000B46FB70054A7B685360044AFB781372F5
:10190C00024B18460C37BD4680BC704700060020C1
:10191C0080B582B000AF0346FB71FB79002B05D07C
:10192C00012B00D005E003F077FB02E003F080FB15
:10193C0000BF00BF0837BD4680BD000090B583B026
:10194C0000AF0346FB71FB79002B0DD0012B00D0AF
:10195C0015E00D4B1C680120FFF7A6FF0346194646
:10196C002046FFF7C1FE0AE0074B1C680020FFF77A
:10197C009BFF034619462046FFF7B6FE00BF00BF8B
:10198C000C37BD4690BD00BF6000002098B500AF7D
:10199C00054B5C680120FFF787FF0346194620467C
:1019AC00FFF7A2FE00BF98BD6000002098B500AF05
:1019BC00054BDC680120FFF777FF034619462046EC
:1019CC00FFF792FE00BF98BD6000002098B500AFF5
:1019DC00054BDC680020FFF767FF034619462046DD
:1019EC00FFF782FE00BF98BD6000002080B500AFFD
:1019FC00044BDB6804491846FFF7F8FE024B1B78D2
:101A0C00184680BD600000204406002090B583B0CD
:101A1C0000AF0346FB710A4B9C68FB79002B14BF8B
:101A2C0001230023DBB21846FFF73EFF034619469D
:101A3C002046FFF759FE00BF0C37BD4690BD00BFD6
:101A4C006000002080B500AF044B9B680449184629
:101A5C00FFF7CCFE024B1B78184680BD60000020BF
:101A6C004406002098B500AF054B1C690020FFF719
:101A7C001BFF034619462046FFF736FE00BF98BDF4
:101A8C006000002098B500AF054B5C690020FFF7A3
:101A9C000BFF034619462046FFF726FE00BF98BDF4
:101AAC006000002098B500AF054B9C690020FFF743
:101ABC00FBFE034619462046FFF716FE00BF98BDF5
:101ACC006000002080B582B000AF0346FB7102209D
:101ADC00FFF78CFD03465AB2FB79012101FA03F39F
:101AEC005BB213435BB2DBB219460220FFF798FDE1
:101AFC0000BF0837BD4680BD90B583B000AF03462C
:101B0C00FB71084BDC6CFB79023BDBB21846FFF730
:101B1C00DBFE034619462046FFF7E6FD00BF0C37F7
:101B2C00BD4690BD6000002080B500AF054BDB6C5E
:101B3C0005491846FFF75AFE034B5B780233DBB2BC
:101B4C00184680BD600000204406002090B583B08C
:101B5C0000AF0346FB71074B1C6DFB791846FFF772
:101B6C00B3FE034619462046FFF7BEFD00BF0C37F7
:101B7C00BD4690BD6000002080B500AF044B1B6DCE
:101B8C0004491846FFF732FE024B5B78184680BDBD
:101B9C00600000204406002090B583B000AF0346DF
:101BAC00FB71074B5C6DFB791846FFF78DFE034606
:101BBC0019462046FFF798FD00BF0C37BD4690BD77
:101BCC006000002080B500AF044B5B6D04491846E3
:101BDC00FFF70CFE024B5B78184680BD60000020BE
:101BEC004406002090B583B000AF0346FB71074B51
:101BFC009C6DFB791846FFF767FE03461946204695
:101C0C00FFF772FD00BF0C37BD4690BD6000002091
:101C1C0080B500AF044B9B6D04491846FFF7E6FDF9
:101C2C00024B5B78184680BD600000204406002003
:101C3C0090B583B000AF0346FB71074BDC6DFB79AD
:101C4C001846FFF741FE034619462046FFF74CFDA8
:101C5C0000BF0C37BD4690BD6000002080B500AFC2
:101C6C00044BDB6D04491846FFF7C0FD024B5B7853
:101C7C00184680BD600000204406002090B583B05B
:101C8C0000AF0346FB71FB79002B2ADB012B0DDD2A
:101C9C00022B00D025E0154B9C6E0120FFF704FEB3
:101CAC00034619462046FFF71FFD1AE00F4B9C6EAA
:101CBC000020FFF7F9FD034619462046FFF714FDF7
:101CCC000A4B1C6EFB79002B14BF01230023DBB2E3
:101CDC001846FFF7E9FD034619462046FFF704FDB9
:101CEC0000BF00BF0C37BD4690BD00BF6000002098
:101CFC0080B582B000AF0E4B9B6E0E491846FFF7B5
:101D0C0075FD0C4B1B78FB71FB79002B01D002236A
:101D1C0009E0074B1B6E07491846FFF767FD054B9B
:101D2C001B78BB71BB7918460837BD4680BD00BF18
:101D3C00600000204406002080B500AF044B5B6FB0
:101D4C0004491846FFF752FD024B5B78184680BDDC
:101D5C00600000204406002080B500AF044B9B6F50
:101D6C0004491846FFF742FD024B1B78184680BD0C
:101D7C00600000204406002080B500AF044BDB6FF0
:101D8C0004491846FFF732FD024B1B78184680BDFC
:101D9C00600000204406002080B500AF054BD3F84E
:101DAC00803005491846FFF721FD034B1B78184678
:101DBC0080BD00BF600000204406002080B582B0CA
:101DCC0000AF0720FFF712FC0346FB71FB7903F011
:101DDC007003DBB219460720FFF722FC00BF08375F
:101DEC00BD4680BD90B583B000AF78600B46FB70EC
:101DFC00084BD3F89040FB7819467868FFF774FDD0
:101E0C00034619462046FFF76FFC00BF0C37BD4652
:101E1C0090BD00BF6000002090B583B000AF78602B
:101E2C000B46FB70084BD3F8A840FB781946786832
:101E3C00FFF75AFD034619462046FFF755FC00BF35
:101E4C000C37BD4690BD00BF6000002080B582B04D
:101E5C0000AF7860064A7B685360064BD3F8A83015
:101E6C0003491846FFF7C2FC00BF0837BD4680BDCA
:101E7C00440600206000002090B583B000AF0346FC
:101E8C000A46FB711346BB71FB79052B5CD801A28A
:101E9C0052F823F0B91E0008D31E0008ED1E0008EE
:101EAC00071F0008211F00083B1F0008284BD3F810
:101EBC00AC40BB791846FFF707FD03461946204690
:101ECC00FFF712FC40E0224BD3F8B040BB79184628
:101EDC00FFF7FAFC034619462046FFF705FC33E0F2
:101EEC001B4BD3F8B440BB791846FFF7EDFC034607
:101EFC0019462046FFF7F8FB26E0154BD3F8B840FF
:101F0C00BB791846FFF7E0FC034619462046FFF75D
:101F1C00EBFB19E00E4BD3F8BC40BB791846FFF72E
:101F2C00D3FC034619462046FFF7DEFB0CE0084BBA
:101F3C00D3F8C040BB791846FFF7C6FC03461946D8
:101F4C002046FFF7D1FB00BF00BF0C37BD4690BD4C
:101F5C006000002080B500AF03F046F9E12003F0EB
:101F6C005BF903F04DF900BF80BD80B500AF03F005
:101F7C003BF9E22003F050F903F042F900BF80BDB9
:101F8C0080B582B000AF78607A6820236121002090
:101F9C00FFF767FB7B68202283F82020FFF7CCFE3D
:101FAC0003461A467B6883F8212000BF0837BD46DC
:101FBC0080BD000080B582B000AF0346FB71424B80
:101FCC001B78DBB2092B7AD801A252F823F000BFA0
:101FDC0005200008CB2000081D200008CB2000089D
:101FEC003F200008CB200008CB200008B5200008BB
:101FFC00CB2000089D200008FB79022B00D006E0C6
:10200C00142002F04BFF304B02221A7000BF57E035
:10201C00FB79042B00D00BE0FFF7B8FC2A4B032212
:10202C001A70022002F03AFF274B04221A7000BFEC
:10203C0046E0FB79072B02D0092B10D028E00120B9
:10204C00FFF77CFC0120FFF763FC1F4B06221A7084
:10205C00822002F043FF1C4B07221A7018E000206C
:10206C00FFF76CFC0020FFF753FC0120FFF750FC3E
:10207C00142002F033FF0020FFF74AFC124B082219
:10208C001A70822002F02AFF0F4B09221A7000BF2F
:10209C00FB79042B00D006E00020FFF739FC0A4B3B
:1020AC0004221A7000BF0BE0FB79042B00D007E070
:1020BC000020FFF72DFC044B04221A7000E000BF37
:1020CC0000BF0837BD4680BDB005002080B586B086
:1020DC0004AF786003F00CF8786803F0D5F803F0DF
:1020EC001DF80220FFF766FF00F028F80420FFF728
:1020FC0061FF0720FFF75EFF084B0293084B01932B
:10210C00002300930023002206210120FFF798F8FA
:10211C00012318460837BD4680BD00BF0471000876
:10212C00F871000880B500AF00210120FFF778FAA4
:10213C000020FFF731FD00BF80BD000080B582B0EC
:10214C0000AF0520FFF74EFD0220FFF771FD0220C6
:10215C00FFF794FD0020FFF7B5FCFFF7E3FFFFF757
:10216C0025FC0120FFF752FCFFF77CFCFFF78AFCF3
:10217C00FFF798FC0520FFF7BFFC20210020FFF79C
:10218C007BFE0020FFF708FD104A3B4692E8030057
:10219C00186004331970FFF7C7FC0346FB71FA791A
:1021AC003B4611461846FFF737FEFA793B46114677
:1021BC001846FFF717FEFFF7CDFEFFF7D6FEFFF729
:1021CC00FDFD00BF0837BD4680BD00BF147200087E
:1021DC0080B58CB000AF7860E12003F01DF80420CE
:1021EC00FFF7E8FE0023FB621AE07B6893F82030CF
:1021FC001A46FB6A93420ADA7A68FB6A1344197826
:10220C0007F10C02FB6A13440A461A7005E007F149
:10221C000C02FB6A134400221A70FB6A0133FB6246
:10222C00FB6A1F2BE1DD07F10C022023A02101200A
:10223C00FFF717FA0920FFF7BDFE012318463037C8
:10224C00BD4680BD80B483B000AF7860034A7B6824
:10225C00136000BF0C37BD4680BC704730060020B1
:10226C0080B483B000AF7860034A7B68136000BF12
:10227C000C37BD4680BC7047FC05002080B500AF14
:10228C00FFF76AFD0346002B08D01A4B01225A7047
:10229C000420FFF78FFE0720FFF78CFEFFF76CFD85
:1022AC000346002B0FD0134B01221A700420FFF7AA
:1022BC0081FE0720FFF77EFE0F4B1B68002B02D020
:1022CC000D4B1B689847FFF767FD0346002B0DD09D
:1022DC00084B01229A700948FFF752FE084B1B6805
:1022EC00002B03D0064B1B6804489847FFF766FD8C
:1022FC0000BF80BD6C070020FC0500200C060020F0
:10230C003006002090B589B004AF78607B681C1D46
:10231C0000F0B6FC034606221946204603F0B6FE32
:10232C000346002B0CBF01230023FB737B681A7838
:10233C009209D2B25B7803F003039B001343DBB228
:10234C00032B02D0042B4FD0A5E0FB7B002B34D009
:10235C00012342F210720121062002F0E5F9B86067
:10236C00BB687A680C330A321068186092889A80BD
:10237C005249B86802F0BAF9514A137843F0040391
:10238C001370504B1B68002B03D04E4B1B687868A6
:10239C0098477B685B7CC3F30313DBB219467B68FD
:1023AC000A33494A0292494A019200930B4603228E
:1023BC0002210320FEF744FF7CE0786800F08EF8E1
:1023CC007B685B7CC3F30313DBB219467B680A336F
:1023DC003D4A02923E4A019200930B46032202218F
:1023EC000320FEF72DFF65E07B681C1D00F048FC08
:1023FC00034606221946204603F048FE0346002BEE
:10240C000CBF01230023BB73BB7B002B2CD02C4AAD
:10241C00137843F00803137002F0E4FB02462D4BD3
:10242C009A6002F0F9F903461B78082B01D102F0EF
:10243C00FDF9284B1B69002B02D0264B1B699847D2
:10244C007B685B7CC3F30313DBB219467B680A33EE
:10245C001D4A0292204A019200930B46042202214B
:10246C000320FEF7EDFE25E07B685B7CC3F30313D2
:10247C00DBB219467B680A33134A0292144A019262
:10248C0000930B46042202210320FEF7D9FE786844
:10249C0000F024F80EE0FB7B83F00103DBB2002B91
:1024AC0007D07B685B889BB2002B02D0786800F069
:1024BC0015F800BF00BF1437BD4690BDC5260008F7
:1024CC00B40500208407002034740008AC750008A3
:1024DC00C075000870070020C875000880B584B06E
:1024EC0000AF78607B685B889BB21A464FF47A73B6
:1024FC0003FB02F3FB6002F08FF9B860BB681B783A
:10250C00042B09D142F21071002002F0DBF81D4AB5
:10251C00137843F001031370BB681B78032B22D193
:10252C007B681A789209D2B25B7803F003039B00A4
:10253C001343DBB2033B012B0DD802F077F90023D8
:10254C00FA680121032002F0EFF8B8600E49B86870
:10255C0002F0DBF812E0BB685A68FB681A44BB68EF
:10256C005A6000BF0AE00023FA680121032002F040
:10257C00DBF8B8600449B86802F0C7F800BF103740
:10258C00BD4680BDB40500209927000880B582B0F7
:10259C0000AF7860044A7B68136000F007F800BF56
:1025AC000837BD4680BD00BF8407002080B500AF52
:1025BC0004220021064803F083FD064B00221A7307
:1025CC00044B00225A6002F045F900BF80BD00BFE9
:1025DC00B40500207007002080B596B004AF97F8C2
:1025EC002830022262F3850387F828303B8D0322C2
:1025FC0062F389133B851E237B8500F041FB024669
:10260C0007F132031168196092889A80274B1A6877
:10261C0007F12C0305321068186092889A80234BBE
:10262C001B68DB7803F00F03DAB297F8393062F3EA
:10263C00030387F839301D4B1B681B7903F00F031C
:10264C00DAB297F8393062F3071387F83930174B41
:10265C001B6893F834309BB27B873A1D07F1280333
:10266C001146184600F020FB3B1D1846FFF7B0FD45
:10267C000E4B1B7B0133DAB20C4B1A7302F0A4FA2B
:10268C0000F0F4FA03461A79094B0293094B0193B3
:10269C0007F128030433009313460322012103207E
:1026AC00FEF7CEFD00BF4837BD4680BD7007002049
:1026BC0034740008DC75000880B596B004AF97F848
:1026CC002830022262F3850387F828303B8D0422E0
:1026DC0062F389133B8514237B8500F0D1FA024603
:1026EC0007F132031168196092889A80244B1B6899
:1026FC00DB7803F00F03DAB297F8393062F3030397
:10270C0087F839301E4B1B681B7903F00F03DAB2C4
:10271C0097F8393062F3071387F83930184B1B6878
:10272C0093F834309BB27B8702F076F8024607F1BF
:10273C002C030C3292E803001860043319803A1D04
:10274C0007F128031146184600F0AEFA3B1D184657
:10275C00FFF73EFD00F08AFA03461A79094B029303
:10276C00094B019307F12803043300931346042209
:10277C0001210320FEF764FD00BF4837BD4680BD34
:10278C007007002034740008DC75000880B584B034
:10279C0004AF074B0293074B0193002300930023D4
:1027AC00002206210320FEF74BFD00BFBD4680BD75
:1027BC0034740008E075000880B500AF074B1B6847
:1027CC009B78022B00D007E0044B1B69002B02D036
:1027DC00024B1B69984700BF00BF80BD70070020EB
:1027EC0080B584B004AF1D4B1B7803F00803DBB23B
:1027FC00002B2FD11A4B1B7B0E2B0ED9194B02938E
:10280C00194B019300230093002300220521032080
:10281C00FEF716FDFFF7CAFE1CE0114B1B7B1A4698
:10282C000F2303930292114B019300230093002377
:10283C00002205210320FEF703FD094B1868084B05
:10284C001B7B5A1CD1B2064A1173054A12691946F0
:10285C0000F02AF800BFBD4680BD00BFB4050020C3
:10286C0070070020347400080076000844760008D5
:10287C0080B582B000AF0346FB8002F005FB034637
:10288C00184603F0CBFC03F0EDFC0246FB8892FBF0
:10289C00F3F103FB01F3D31A42F2107202FB03F3C0
:1028AC0018460837BD4680BD80B58CB004AFF860C3
:1028BC000B467A60FB72FFF779FE304AFB681360B7
:1028CC002E4AFB7A13732D4A7B68136147F2305101
:1028DC00012001F0E3FE2020FFF7CAFFF861274A30
:1028EC00FB695360254B5A6800230121042001F039
:1028FC001BFFB8612249B86901F0F8FE1F4B1B6839
:10290C009B78002B1DDB012B02DD022B1BD018E06A
:10291C00002342F210720121052001F005FF7861BD
:10292C001849786901F0E2FE002347F23052012188
:10293C00082001F0F9FE78611349786901F0D6FEA0
:10294C0002E000BF00E000BF0C4B1B6818790B4B7A
:10295C001B680533FA690D49A1FB02129209029218
:10296C000B4A019200930023024606210320FEF736
:10297C0067FC00BF2037BD4680BD00BF700700203C
:10298C00C5270008E5250008ED270008D34D621087
:10299C007476000880B588B004AF78607B68043327
:1029AC002949184600F042F90346FB737B681B78F3
:1029BC00C3F38303DBB2022B0DD0032B00D03FE01B
:1029CC00FB7B002B3BD02149786800F057FB7868E3
:1029DC0000F028FA33E07B681A789209D2B25B785F
:1029EC0003F003039B001343DBB2052B00D027E05D
:1029FC00FB7B002B24D001F00FFF03461B780A2B26
:102A0C0001D101F013FF7B685B7CC3F30313DBB2D2
:102A1C0019467B680A330D4A92F8362002920C4A0A
:102A2C00019200930B46052202210220FEF708FCBE
:102A3C00064B5B78002B03D100F04AF900E000BF95
:102A4C0000BF1037BD4680BD8807002090070020CE
:102A5C00C079000880B500AF4FF47A7002F07EFAAE
:102A6C000C4B1B79062B0ED0072B00D00FE0094B1B
:102A7C001A6B084B93F834301946104601F0A4FB3E
:102A8C0000F068FF03E0034800F090FC00BF00BFBB
:102A9C0080BD00BF9007002080B500AF4FF47A7066
:102AAC0002F05CFA044BDB78042B00D002E000F05F
:102ABC002BFF00BF00BF80BD90070020B0B588B0D1
:102ACC0006AF324B93F837300E2B4AD8002342F224
:102ADC0010720121092001F027FE78607B682B4AD7
:102AEC0003F10C0402F1110528686968AA68EB6807
:102AFC000FC428696969AA6907C4AB8BAA7F2380B4
:102B0C001346A3702249786801F0F0FD002347F2C8
:102B1C00305201210A2001F007FE78601D497868C7
:102B2C0001F0E4FD194B93F837300133DAB2174B4F
:102B3C0083F83720154B93F836301A46134B93F81D
:102B4C00373019460F23049303910292124B0193D1
:102B5C00002300930023002205210220FEF770FBC6
:102B6C0011E00E4B01930023009300230022062159
:102B7C000220FEF765FB054BDB78042B00D002E04E
:102B8C0000F0E0FE00BF0837BD46B0BD9007002046
:102B9C00ED2D0008C92A0008CC790008047A000839
:102BAC0080B584B004AF0E48FFF7F0FC00F020F8BD
:102BBC003A2206210B48FEF7A5FC034603930A4B69
:102BCC0002930A4B01930023009300230022062159
:102BDC000220FEF735FB00F039FC00BFBD4680BD7E
:102BEC000131000888070020507A00085C7A000840
:102BFC0080B582B000AF01F0FFFF386000237B602E
:102C0C000BE07B683A6813441978074A7B681344D5
:102C1C000A461A707B6801337B607B68052BF0DDFC
:102C2C0000BF0837BD4680BD8807002080B485B042
:102C3C0000AF786039600023FB600EE07A68FB68B7
:102C4C0013441A783968FB680B441B789A4201D0FC
:102C5C00002306E0FB680133FB60FB68052BEDDD10
:102C6C00012318461437BD4680BC704780B400AFB2
:102C7C00024B1846BD4680BC704700BF9007002031
:102C8C0080B400AF024B1846BD4680BC704700BFF5
:102C9C008807002080B400AF024B1846BD4680BCAC
:102CAC00704700BF3803002080B582B000AF786059
:102CBC0039603B6820227968184603F0F6F93B68C6
:102CCC00202283F8202000BF0837BD4680BD0000BD
:102CDC0080B586B004AF254B93F83520234B93F881
:102CEC0034309A4222D2214B002283F83720002321
:102CFC0042F210720121092001F016FD78607B6808
:102D0C000C331946194800F003F91949786801F099
:102D1C00EDFC002347F2305201210A2001F004FDA2
:102D2C0078601449786801F0E1FC1AE00F4B01223D
:102D3C001A700E4B1A790D4B93F8363002930E4BDA
:102D4C0001930E4B0093002303210220FEF778FA27
:102D5C00064B1B78022B04D0044B02221A70FFF78F
:102D6C009BFE00BF0837BD4680BD00BF900700200A
:102D7C00ED2D0008C92A0008687A00089507002084
:102D8C0080B584B004AF134B93F83520114B93F8F6
:102D9C0034309A421AD30F4B01221A700D4B1A7908
:102DAC000C4B93F8363002930B4B01930B4B009367
:102DBC00002304210220FEF743FA064B1B78022B5A
:102DCC0004D0044B02221A70FFF744FE00BFBD462C
:102DDC0080BD00BF90070020907A00089B07002060
:102DEC00B0B592B000AF01F017FD03463C1D03F1E6
:102DFC000C050FCD0FC495E80F0007C423800234D7
:102E0C001B0C237007F124023B1D11461846FFF7DB
:102E1C004BFF07F124031846FFF7DAF900BF4837D8
:102E2C00BD46B0BD80B588B004AF7860002342F2D7
:102E3C0010720121072001F077FCF860FA68137B0F
:102E4C00022161F385031373FA689389052161F3F9
:102E5C0089139381FB682A4A16331168196092888A
:102E6C009A80FB687A6810330A321068186092886E
:102E7C009A80FB681422DA817B681B78C3F3830386
:102E8C00D9B2FA68537F61F3030353777B681A78DE
:102E9C009209D2B25B7803F003039B001343D9B2BF
:102EAC00FA68537F61F3071353777B681A7CFB68CE
:102EBC009A771449F86801F028FC7B681A78920913
:102ECC00D2B25B7803F003039B001343DBB21946C9
:102EDC007B680A337A68127C02920B4A0192009347
:102EEC000B46052201210220FEF7AAF9074B5B785D
:102EFC00012B01D1FFF744FF00BF1037BD4680BD49
:102F0C0088070020ED2D0008C079000890070020EC
:102F1C00B0B584B000AF786039607B6893F834202A
:102F2C007B6893F83530D31AFB73FB7B002B00F0D6
:102F3C009F807B68DB7803F00F03D9B23A68137873
:102F4C0061F3850313707B681B7903F00F03DAB20E
:102F5C003B6802F003018C01197801F03F0108462F
:102F6C002146014319709208D2B202F0030202F01A
:102F7C0003005A7822F00302114602460A435A70A3
:102F8C003B683D4A0A331168196092889A803B6805
:102F9C007A68043305321168196092889A803B680C
:102FAC00002242F01E029A700022DA707B6893F8BD
:102FBC0036300133DAB27B6883F836207B6893F8BD
:102FCC0036203B681A74FB7B0C2B1DD93A6853785E
:102FDC0043F0800353703B680D225A743B6803F135
:102FEC0012007B681B6B7A6892F8352013440D2213
:102FFC00194603F05AF87B6893F835300D33DAB282
:10300C007B6883F835201DE03A6853786FF3C7135B
:10301C0053703B68FA7B5A743B6803F112007B686F
:10302C001B6B7A6892F835201344FA7B194603F02F
:10303C003CF87B6893F83520FB7B1344DAB27B6851
:10304C0083F835207B683A681133146850689168AE
:10305C00D5681C6058609960DD601469506991698D
:10306C001C6158619961918B927F99839A7700E0EA
:10307C0000BF1037BD46B0BD8807002080B582B0B8
:10308C0000AF786039607B681A7C3B6893F8363007
:10309C009A422BD97B681A789209D2B25B7803F0EA
:1030AC0003039B001343DBB2063B012B18D83B6890
:1030BC001B6B3A6892F8352098187B6803F1120163
:1030CC007B685B7C1A4602F0F0FF3B6893F8352076
:1030DC007B685B7C1344DAB23B6883F8352000E0F4
:1030EC0000BF7B681A7C3B6883F8362000BF08372A
:1030FC00BD4680BD80B582B000AF7860642001F021
:10310C002DFF7B685B7CC3F30313DBB2063B012B07
:10311C000AD87B685B8A9BB2184602F0A7FF03466D
:10312C001A461A4B1A6300E000BF184B01225A7062
:10313C00164B00221A707B685B7CC3F30303DBB273
:10314C001A46124BDA707B685B7CC3F30313DBB259
:10315C001A460E4B1A710D4B7A680B330A321168F2
:10316C00196092889A807B685B8A9BB2DAB2074BB3
:10317C0083F83420054B002283F83520034B0022C2
:10318C0083F8362000BF0837BD4680BD900700206D
:10319C0080B582B000AF3B600346FB710B46BB7140
:1031AC0013467B71204B00221A701F4B00225A7061
:1031BC001D4AFB7993701C4ABB79D3701A4A7B79F0
:1031CC001371194B3A6805331168196092889A800B
:1031DC00154A3B7D82F83430134B002283F835209E
:1031EC00114B002283F836200F4B002283F8372036
:1031FC003B7D002B13D00C4B1B6B184602F03EFF93
:10320C003B7D184602F032FF03461A46064B1A6302
:10321C00054B1B6B3A7D3969184602F046FF024B91
:10322C0018460837BD4680BD90070020B0B582B067
:10323C0000AF642001F092FE002342F210720121D3
:10324C00092001F071FA78601D4BDB78032B06D155
:10325C007B680C3319461A48FFF75AFE14E07B685A
:10326C00174A03F10C0402F1110528686968AA6871
:10327C00EB680FC428696969AA6907C4AB8BAA7F7C
:10328C0023801346A37000BF0E49786801F02EFA14
:10329C000B4B93F837300133DAB2094B83F83720F4
:1032AC00002347F2305201210A2001F03DFA7860E8
:1032BC000549786801F01AFA00BF0837BD46B0BD61
:1032CC0090070020ED2D0008C92A0008B0B584B085
:1032DC0002AF03463960FB713B68214A0A3311681F
:1032EC00196092889A803B6801221A743B681B789B
:1032FC00C3F38303DBB219463B681A789209D2B246
:10330C005B7803F003039B001343DBB21C463B6862
:10331C001A1DF879002301930023009313462246CB
:10332C00FFF736FF0F4B3A681133146850689168F9
:10333C00D5681C6058609960DD60146950699169AA
:10334C001C6158619961918B927F99839A77064A97
:10335C0000210448FFF7A8FA00BF0837BD46B0BDEE
:10336C0088070020900700203932000880B586B00D
:10337C0002AFB9607B600346FB731346BB73BA7B29
:10338C00F87B3B7E01937B680093BB680321FFF7BE
:10339C00FFFE044A00210448FFF786FA00BF1037ED
:1033AC00BD4680BD393200089007002080B5C4B0FE
:1033BC0000AF3B1D1860002387F80F31002387F8FE
:1033CC000E310023C7F808312FE097F80F3107F1C1
:1033DC000802D0183B1D1B681A6BD7F80831134430
:1033EC001B781A46184902F081FF0346DAB297F8A7
:1033FC000F31134487F80F3197F80E31013387F8EA
:10340C000E3197F80E310E2B0AD9002387F80F31A5
:10341C00002387F80E3107F10803184601F0B5FFB9
:10342C00D7F808310133C7F808313B1D1B6893F8F6
:10343C0034301A46D7F808319342C6DB00BF07F583
:10344C008877BD4680BD00BFB47A000880B584B0D3
:10345C0004AF96230393594B0293594B01930023CA
:10346C0000930023002206210220FDF7E9FE42F220
:10347C0010730393534B0293514B0193002300930E
:10348C000023002206210220FDF7DAFE42F210731F
:10349C0003934D4B02934A4B01930023009300235B
:1034AC00002206210220FDF7CBFE44F62063039395
:1034BC00464B0293424B01930023009300230022BE
:1034CC0006210220FDF7BCFE47F230530393404B1C
:1034DC0002933B4B0193002300930023002206210F
:1034EC000220FDF7ADFE47F2F2630393394B0293D2
:1034FC00334B01930023009300230022062102206A
:10350C00FDF79EFE44F64C730393334B02932C4B06
:10351C000193002300930023002206210220FDF7D3
:10352C008FFE47F2F26303932C4B0293244B0193CF
:10353C00002300930023002206210220FDF780FEC9
:10354C0044F64C730393264B02931D4B01930023BB
:10355C0000930023002206210220FDF771FE47F2A2
:10356C00305303931F4B0293154B0193002300938D
:10357C000023002206210220FDF762FE47F23053A1
:10358C000393194B02930E4B0193002300930023DA
:10359C00002206210220FDF753FE144B0393144B1B
:1035AC000293074B01930023009300230022062172
:1035BC000220FDF745FE00BFBD4680BDF47A000831
:1035CC00047B0008107B00081C7B0008287B00088B
:1035DC00347B0008407B0008507B0008607B0008AF
:1035EC00707B0008807B0008947B00084EB10A00B9
:1035FC00A87B000880B58CB002AF3B4683E8030083
:10360C003B7A042262F385033B723B89022262F30C
:10361C0089133B81FFF734FB024607F11203116853
:10362C00196092889A8007F10C033A4692E80300DD
:10363C001860043319801E237B8101233B76002301
:10364C00FB763B4619461048FFF7F0FA0346002B71
:10365C0001D00123FB7607F1080319460020FFF780
:10366C0035FE3B89C3F38313DBB21A46074B019338
:10367C003B460093002301210420FDF7E1FD00BF30
:10368C002837BD4680BD00BFCC070020107F000846
:10369C0080B586B004AF78600D4B7A6811681960FC
:1036AC0092889A803A2206210948FDF72BFF03469F
:1036BC000293084B01930023009300230022062160
:1036CC000420FDF7BDFD00BF0837BD4680BD00BF1F
:1036DC00CC070020147F000890B58DB004AF786043
:1036EC007B681A789209D2B25B7803F003039B00D3
:1036FC001343DBB2012B03D0022B00F08A80B3E022
:10370C007B681C1DFFF7BCFA034619462046FFF7E1
:10371C008DFA0346FB73FB7B002B22D07B680022C7
:10372C000092D3F80A20002010469A7BDB7B1B0208
:10373C001343002163F30F010023002200F0C0FAB1
:10374C007B68D3F80A20002111469A7BDB7B1B0295
:10375C001A43002362F30F0308461946FFF74AFF8A
:10376C0082E07B685C7C00F0A1FA03469C422BD083
:10377C0000F0CCF93E4B00221A707B685A7C3D4B12
:10378C001A707B689B7C0133DAB23B4B1A707B68F6
:10379C000A331846FFF77CFF384B01221A707B68FE
:1037AC0000220092D3F80A20002010469A7BDB7B83
:1037BC001B021343002163F30F010123002200F0CD
:1037CC007FFA00F0DFF94FE07B6800220092D3F81B
:1037DC000A20002010469A7BDB7B1B02134300213E
:1037EC0063F30F010223002200F06AFA7B680A33AC
:1037FC007A68527C11467A68927C03920291204A34
:10380C00019200930023012202210420FDF718FDF0
:10381C002AE07B681C1DFFF733FA03461946204645
:10382C00FFF704FA0346FB77FB7F002B1BD0134BEF
:10383C0001221A707868FFF7F5FA002001F064F89D
:10384C00B861104BBA690221012001F011F800F0A7
:10385C00F9FB0346FB75FB7D002B04D000210020F7
:10386C0000F0D2FA386100BF00BF2437BD4690BDCE
:10387C00B8050020B9050020C7050020C8070020A6
:10388C002C7F0008D938000880B584B004AF0C4BED
:10389C001B7883F00103DBB2002B0ED0094B1B7895
:1038AC000293094B0193002300930023002205216E
:1038BC000520FDF7C5FC00F065F900BFBD4680BDD5
:1038CC00B8050020B9050020607F000880B584B0E1
:1038DC0004AF0A4B1B78012B0CD1094B1B780293BC
:1038EC00084B01930023009300230022052105209F
:1038FC00FDF7A6FC00BFBD4680BD00BFC807002079
:10390C00B9050020607F000880B500AFFFF7AEF965
:10391C0003461B79022B00D012E0FFF7A7F90346F0
:10392C00D3F80B2000211146DA7B1B7C1B021A43B7
:10393C00002362F30F0301220846194600F054FBE2
:10394C0000BF80BD80B500AFFFF790F900BF00BF8E
:10395C0080BD000080B588B004AF2C4B1B78012BC8
:10396C0050D100F0DBFB0346FB73FB7B002B4AD0F2
:10397C00012000F0C9FFB860254B1B7883F00103D0
:10398C00DBB2002B20D03A2206212248FDF7BAFDEB
:10399C0003460293204B0193002300930023002243
:1039AC0006210420FDF74CFC1A4B1A680021114625
:1039BC001A795B791B021A43002362F30F03084642
:1039CC00194600F023FD1EE03B46B968184600F08E
:1039DC00D5FF124B1B7819463B7818467B88BA8862
:1039EC000192009303460A460D490E48FDF7ACFCC4
:1039FC0000F046FB0C4A0D490D48FDF7A5FC00F004
:103A0C009FFC00E000BF1037BD4680BDC8070020FA
:103A1C00B8050020CC070020747F0008B9050020F1
:103A2C00A87F0008B47F0008F47F0008487D0008D8
:103A3C003080000880B58CB002AF4FF4E130FEF757
:103A4C0045FB00F071FDFFF7ABF82B4A07F11C03A7
:103A5C0092E80300186004331980284A07F1140314
:103A6C0092E80300186004331980254A07F10C030F
:103A7C0092E80300186004331980224A3B1D92E837
:103A8C0003001860043319800023009302230022E2
:103A9C0007F11C0103C900F013F900230093002364
:103AAC00002207F1140103C900F00AF90123009365
:103ABC000023002207F10C0103C900F001F90023D7
:103ACC00009300230022391D03C900F0F9F800F01F
:103ADC00D7FA0021002000F097F978627B6A1B78F6
:103AEC0019460948FDF730FC786A00F0E3F900BF8D
:103AFC002837BD4680BD00BF588000086080000894
:103B0C0068800008708000083C80000880B500AF19
:103B1C00042200210A4802F0D3FA00F07FFA094B84
:103B2C001B68184602F0AAFA064B00221A60064BD4
:103B3C0000221A70054B00221A7000BF80BD00BF16
:103B4C00C8050020C0050020C5050020C6050020C2
:103B5C0080B500AFFFF7DAFF074B1B780133DAB201
:103B6C00054B1A70054B00221A70054B01221A7076
:103B7C0000F008F800BF80BDB9050020C705002083
:103B8C00B805002080B584B002AFFFF783F8024679
:103B9C0000230193002300931346012204210220E9
:103BAC00FFF7F6FA7860044A00217868FEF77CFE8D
:103BBC0000BF0837BD4680BDC93B000880B598B032
:103BCC0006AF334B1B7883F00103DBB2002B02D022
:103BDC00304B7B6402E0FFF75DF878643B7804229D
:103BEC0062F385033B703B88012262F389133B80AF
:103BFC007B7843F008037B70FFF742F8024607F12D
:103C0C000A031168196092889A807A6C3B1D1068BF
:103C1C00186092889A8000237B801F4B1B787B74E2
:103C2C001E4B1B78BB7407F120023B46114618460D
:103C3C00FFF73AF807F120031846FEF7C9FA184BBC
:103C4C004FF4FA620121002000F012FE154B4FF4E4
:103C5C007A720121012000F00BFEFFF71BF80246DF
:103C6C000D4B1B7819460D4B1B7818464FF47A7385
:103C7C000493039002910C4B0193009200230122B8
:103C8C0001210420FDF7DCFA00BF4837BD4680BD9A
:103C9C00B8050020CC070020B9050020C70500207E
:103CAC0095380008D93800087880000880B400AF37
:103CBC00024B1B781846BD4680BC7047B9050020E6
:103CCC0090B589B000AF07F1080484E803007A606E
:103CDC00FB70182002F0CAF90346BB61BB690133C3
:103CEC001A4607F10803186810609B889380BB691B
:103CFC007A68DA60BB6900221A82BB6997F83020B7
:103D0C00DA71BB69FA781A72BB6900225A613C4BB2
:103D1C001B68002B09D13A4ABB691360394B1B78DD
:103D2C000133DAB2374B1A7066E0354B1B68FB6116
:103D3C005FE0BB69581CFB6901330622194602F08F
:103D4C00A5F978617B69002B0CDABB69FA695A61B9
:103D5C002B4ABB6913602B4B1B780133DAB2294B0E
:103D6C001A7049E07B69002B11D1BB69DA68FB69D9
:103D7C00DA60FB6997F83020DA71FB69FA781A720D
:103D8C00FB6900221A82B86902F078F934E07B6989
:103D9C00002B0DDDFB695B69002B09D1FB69BA694E
:103DAC005A61184B1B780133DAB2164B1A7023E0A8
:103DBC00BB69581CFB695B6901330622194602F08A
:103DCC0065F938617B69002B10DD3B69002B0DDA3E
:103DDC00FB695A69BB695A61FB69BA695A61094B3B
:103DEC001B780133DAB2074B1A7005E0FB695B698B
:103DFC00FB61FB69002B9CD12437BD4690BD00BFF5
:103E0C00BC050020C405002080B584B000AF03467B
:103E1C000A46FB711346BB71244B1B68FB600023E5
:103E2C00FB720FE0FB68DB79BA799A4207D1FB6829
:103E3C001B7AFA799A4202D1FB7A0133FB72FB6846
:103E4C005B69FB60FB68002BECD1FB7A9B0018468E
:103E5C0002F00CF903461A46154B5A60144AFB7AC9
:103E6C001370124B1B68FB600023FB7215E0FB68A0
:103E7C00DB79BA799A420DD1FB681B7AFA799A42AE
:103E8C0008D10B4B5A68FB7A591CF9729B001344EE
:103E9C00FA681A60FB685B69FB60FB68002BE6D173
:103EAC00034B18461037BD4680BD00BFBC05002033
:103EBC00D4070020F0B58FB008AFF86000237B6109
:103ECC0059E07B69581CFB685A687B699B0013445A
:103EDC001B685B789C46FB685A687B699B001344A3
:103EEC001B689B781C46FB685A687B699B001344D3
:103EFC001B68DB781D46FB685A687B699B00134482
:103F0C001B681B791E46FB685A687B699B0013442F
:103F1C001B685B79BB60FB685A687B699B00134428
:103F2C001B689B797B60FB685A687B699B00134418
:103F3C001B681B7A1A46154B53F82230FA685168E5
:103F4C007A6992000A441268D2791146104A52F8E2
:103F5C002120069205937A680492BB68039302961B
:103F6C0001950094634602460A490B48FDF7ECF9AB
:103F7C007B6901337B61094B1B781A467B69934241
:103F8C009FDB00BF1C37BD46F0BD00BF50030020B7
:103F9C0040030020A4800008B0800008D407002053
:103FAC0080B584B000AF78600E4B1B68FB6010E0EE
:103FBC00FB68013379680622184602F067F803465D
:103FCC00FB72FB7A002B01D1FB6806E0FB685B6996
:103FDC00FB60FB68002BEBD1002318461037BD4665
:103FEC0080BD00BFBC05002080B586B000AF07F1D6
:103FFC00080383E803001346FB7107F10803184616
:10400C00FFF7CEFF78617B69002B02D07B69FA79D0
:10401C00DA7100BF1837BD4680BD000080B500AF17
:10402C00064B1B68184602F029F8044B00221A6054
:10403C00034B00221A7000BF80BD00BFBC050020DE
:10404C00C405002080B483B000AF0C4B1B687B60B0
:10405C000023FB7009E07B681B7A002B02D1FB78F4
:10406C000133FB707B685B697B607B68002BF2D152
:10407C00FB7818460C37BD4680BC7047BC05002049
:10408C002DE9F0418AB008AF1F4B1B687B60012300
:10409C00FB7031E0FB785A1CFA709E467B685B78AB
:1040AC0098467B689B7819467B68DB7818467B685A
:1040BC001B791C467B685B791D467B689B791E4689
:1040CC007B681B7A1A46114B53F822307A68D279E6
:1040DC0094460F4A52F82C200692059304960395A9
:1040EC00029401900091434672460A490A48FDF732
:1040FC002BF97B685B697B607B68002BCAD100BFA6
:10410C000837BD46BDE8F081BC05002050030020F7
:10411C0040030020A4800008B080000880B584B063
:10412C0000AF1C4B1B68BB602CE01B4B1B687B60FF
:10413C000023FB73BB681B7A002B20D1BB68DB7997
:10414C00012B1CD110E0BB68581C7B681B68013329
:10415C000622194601F09AFF0346002B01D10123D8
:10416C00FB737B685B687B607B68002BEBD1FB7B14
:10417C0083F00103DBB2002B01D0002306E0BB6807
:10418C005B69BB60BB68002BCFD10123184610378D
:10419C00BD4680BDBC050020C005002080B483B0A6
:1041AC0000AF084B1B687B6002E07B685B687B6040
:1041BC007B685B68002BF8D17B6818460C37BD46D2
:1041CC0080BC7047C005002080B588B000AF786017
:1041DC000B46FB70082001F049FF03463B613B692D
:1041EC0000221A603B6900225A600023FB773B696E
:1041FC00BB614CE0FB7F7A6813441B781C2B16D1F7
:10420C00082001F033FF0346BB60BB6800221A6034
:10421C00BB69BA685A60BB68BB61294B1B78013318
:10422C00DAB2274B1A70FB7F0133FB772FE0182093
:10423C0001F01CFF0346FB60FB6800225A61FB681F
:10424C00581CFB7F7A6813440622194601F02DFF97
:10425C00BB691B68002B03D1BB69FA681A600DE0BF
:10426C00BB691B687B6102E07B695B697B617B6975
:10427C005B69002BF8D17B69FA685A61114B1B788A
:10428C000133DAB20F4B1A70FB7F0633FB77FA7FE0
:10429C00FB789A42AED3BB6900225A600A4B1B686A
:1042AC00002B03D1084A3B69136004E0FFF776FF4B
:1042BC0002463B69536000BF2037BD4680BD00BF3E
:1042CC00C5050020C6050020C005002080B586B0BD
:1042DC0000AF78600B46FB700023FB75174B1B6817
:1042EC003B6124E03B691B68FB600EE0FB7D7A6858
:1042FC00D018FB6801330622194601F0D6FEFB7D6F
:10430C000633FB75FB685B69FB60FB68002BEDD12A
:10431C00FA7DFB789A4207D2FB7D5A1CFA751A4635
:10432C007B6813441C221A703B695B683B613B69D8
:10433C00002BD7D100BF1837BD4680BDC00500206B
:10434C00B0B588B004AF0123FB730123BB7300230A
:10435C007B73284B1B68BB6045E0BB681B687B60AC
:10436C0000237B7334E0FB7B83F00103DBB2002B77
:10437C0006D07B7B1A4620492048FCF7E5FF05E078
:10438C00BB7B1A461E491F48FCF7DEFF0023FB735C
:10439C007B685B7818467B689B781C467B68DB786F
:1043AC001D467B681B791A467B685B7919467B68CE
:1043BC009B790293019100922B46224601461248AA
:1043CC00FCF7C2FF7B685B697B607B7B01337B7393
:1043DC007B68002BC7D1BB685B68BB60BB7B0133C0
:1043EC00BB730123FB73BB68002BB6D100BF103726
:1043FC00BD46B0BDC0050020487D0008D88000082F
:10440C00E4800008F0800008FC800008B0B588B09B
:10441C0002AF6B461D46182001F028FE03467B6157
:10442C00FEF72EFC02467B690133116819609288F5
:10443C009A80374B1A687B695A61354A7B691360DD
:10444C00344B1B780133DAB2324B1A70082001F06E
:10445C000DFE03463B612E4B1A683B691A602E4BCE
:10446C001A683B695A602C4A3B6913602B4B1B78CA
:10447C000133DAB2294B1A70294B1A78254B1B7869
:10448C001344DAB2264B1A70254B1B781A4652008D
:10449C0013445B00DAB2214B1B781344DBB2013BB3
:1044AC00FB73F87B0346013BBB60C1B24FF00002CB
:1044BC004FF000034FF00004D40044EA5174CB00D9
:1044CC00C1B24FF000024FF000034FF00004D400D3
:1044DC0044EA5174CB0003460733DB08DB00ADEB39
:1044EC00030D02AB00337B607B68FA7B11461846E8
:1044FC00FFF7ECFE7A68FB7B009313460722094911
:10450C000020FEF733FFAD4600BF1837BD46B0BDE7
:10451C00BC050020C4050020C0050020C5050020F6
:10452C00C6050020CC07002080B500AF0948FDF778
:10453C0097FE0948FDF786FE084A6421022000F028
:10454C0059FC074A4FF47A71032000F053FC00BF6A
:10455C0080BD00BF714500087D4500083946000844
:10456C00B545000880B400AF00BFBD4680BC7047A5
:10457C0080B584B000AF78607B68FB60FB681B780B
:10458C00C3F38303DBB2042B03D1F868FFF7A4F861
:10459C0000BFF868FDF7B6FEF868FEF7FBF900BF40
:1045AC001037BD4680BD000080B582B000AF1E4BF9
:1045BC001B68002B34D01C4B1B687B6000233B60BA
:1045CC002AE07B689A687B685B689A4213D27B68A6
:1045DC009B6803F57A727B689A607B689A687B6843
:1045EC005B689A4213D37B68DB68002B0FD07B6827
:1045FC00DB6898470BE03B68002B04D07B681A699A
:10460C003B681A6103E07B681B69074A13607B688F
:10461C003B607B681B697B607B68002BD1D100E021
:10462C0000BF0837BD4680BDCC05002080B500AF6B
:10463C00194B1B68002B2DD0174B1B689A78164B07
:10464C001B685B789A4222D2134B1B689A68124BF8
:10465C001B6864329A60104B1B689A680E4B1B687F
:10466C005B689A4217D30C4B1B6800229A600A4B6A
:10467C001B689A780132D2B29A70074B1B681B6B7D
:10468C00002B08D0044B1B681B6B984703E000F011
:10469C00CDF800E000BF80BDD005002080B582B011
:1046AC0000AF03463960FB71F87900233A680121A9
:1046BC0000F03AF80346184600F074F800BF0837CB
:1046CC00BD4680BD80B582B000AF03463960FB713A
:1046DC00F87900233A68012100F026F803461846C1
:1046EC0000F080F800BF0837BD4680BD80B582B0B1
:1046FC0000AF786039607B683A681A63786800F0BC
:10470C0051F800BF0837BD4680BD80B582B000AF00
:10471C00786039607B683A681A63786800F062F8F0
:10472C0000BF0837BD4680BD80B584B000AF3A608D
:10473C001A460346FB710B46BB7113467B7138203E
:10474C0001F094FC0346FB60FB68002B01D10023B5
:10475C0024E0FB68FA791A70FB6800229A70FB68F7
:10476C00BA795A70FB683A685A60FB68012283F880
:10477C002B20FB680022DA62FB6800221A63FB68BC
:10478C0000225A637B79002B04D0FB685A68FB68C3
:10479C009A6002E0FB6800229A60FB6818461037AA
:1047AC00BD4680BD80B485B000AF78600C4B1B68F3
:1047BC00002B03D10A4A7B6813600DE0084B1B6881
:1047CC00FB6002E0FB685B6BFB60FB685B6B002BC8
:1047DC00F8D1FB687A685A631437BD4680BC7047C1
:1047EC00D005002080B483B000AF7860094B1B6803
:1047FC00002B03D1074A7B68136006E0054B1A684F
:10480C007B685A63034A7B6813600C37BD4680BCD7
:10481C00704700BFD005002080B400AF024B1B686E
:10482C001846BD4680BC7047D005002080B582B0CC
:10483C0000AF074B1B687B60054B1B685B6B044A26
:10484C001360786801F01AFC00BF0837BD4680BDC4
:10485C00D005002080B500AF044B1B68184601F052
:10486C000DFC024B00221A6000BF80BDD005002059
:10487C0080B586B000AFBA607B600346FB730B4615
:10488C00BB73142001F0F2FB03467B617B69FA7B5E
:10489C001A707B6900229A607B697A68DA607B699E
:1048AC0000221A61BB7B012B0AD0022B10D0002BEB
:1048BC0012D1BB68124A02FB03F27B695A600BE00F
:1048CC00BB684FF47A7202FB03F27B695A6003E017
:1048DC007B69BA685A6000BF0A4B1B68002B03D176
:1048EC00084A7B69136006E0064B1A687B691A61FB
:1048FC00044A7B69136000BF1837BD4680BD00BFFA
:10490C0040420F00CC05002080B485B000AF0346B8
:10491C00FB710023BB60184B1B68FB60164B1B68BC
:10492C001B78FA799A421ED1134B1B689B68BB60AB
:10493C00114B1B681B69104A1360BB6817E0FB68BE
:10494C001B691B78FA799A420AD1FB681B699B6830
:10495C00BB60FB681B691A69FB681A61BB6806E0DF
:10496C00FB681B69FB60FB68002BE8D1BB68184631
:10497C001437BD4680BC7047CC05002080B487B08E
:10498C0000AF786039603B687B617B69184AA2FB99
:10499C0003239B0CDBB23B737B69154AA2FB03120E
:1049AC00920C144901FB02F29B1A7B617B69124A3F
:1049BC00A2FB03239B099BB2FB817B690E4AA2FBE2
:1049CC00031292094FF47A7101FB02F29B1A7B617C
:1049DC007B699BB23B827B681A4607F10C03186813
:1049EC0010609B88938078681C37BD4680BC7047EC
:1049FC0083DE1B4340420F00D34D621080B483B062
:104A0C0000AF0346FB7197F90730002B0BDBFB79EA
:104A1C0003F01F02064997F907305B09012000FAE1
:104A2C0002F241F8232000BF0C37BD4680BC704712
:104A3C0000E100E080B483B000AF03463960FB7145
:104A4C0097F90730002B0ADB3B68DAB20C4997F96F
:104A5C0007301201D2B20B4483F800230AE03B6802
:104A6C00DAB20849FB7903F00F03043B1201D2B20E
:104A7C000B441A7600BF0C37BD4680BC704700BF94
:104A8C0000E100E000ED00E080B582B000AF78609E
:104A9C007B68013BB3F1807F01D301230FE00A4A0D
:104AAC007B68013B53600F214FF0FF30FFF7C2FFD3
:104ABC00054B00229A60044B07221A60002318460B
:104ACC000837BD4680BD00BF10E000E080B400AFE9
:104ADC0000BFBD4680BC704780B500AF064B5B691C
:104AEC0003F00403002B04D0034B04225A61FDF79E
:104AFC00C5FB00BF80BD00BF0004014080B582B083
:104B0C0000AF4FF080431B6903F00103002B43D02F
:104B1C004FF080431B694FF0804223F00103136177
:104B2C000023FB7135E0FB791D4A1B0113440C3348
:104B3C001B78DBB2002B29D0FB79194A1B011344DB
:104B4C0008331A6832231946FB790A4414491B01AD
:104B5C000B4408331A60FB79114A1B0113440833C8
:104B6C001A68FB790E491B010B4404331B689A42EB
:104B7C000CD3FB790A4A1B011344083300221A6038
:104B8C00FB79074A1B0113441B689847FB790133D7
:104B9C00FB71FB79042BC6D900BF0837BD4680BD1D
:104BAC00DC07002080B400AF064B5B6903F40053B4
:104BBC00002B03D0034B4FF400525A6100BFBD468B
:104BCC0080BC70470004014080B400AF044B5B69AB
:104BDC00034A43F00103536100BFBD4680BC7047DC
:104BEC000004004080B400AF024B5B6A1846BD461F
:104BFC0080BC70470004004080B598B000AF124BE9
:104C0C00FB653B1D1846FCF70FFA3B1D0C22F96D9A
:104C1C001846FCF72DFA3B1D19460C48FCF790FA88
:104C2C000A4B1B7843F00203DAB2084B1A70074B9D
:104C3C001B7823F00103DAB2044B1A70034B1846AD
:104C4C006037BD4680BD00BFE8F7FF1F340600206B
:104C5C0080B500AF254B1B68244A43F00403136056
:104C6C00234B5B68224A43F480635360204B1B68E0
:104C7C001F4A43F48033136000BF1D4B1B6803F4C1
:104C8C000033002BF9D01A4B5B68194A43F480337C
:104C9C005360174B5B68164A43F4E0135360144B94
:104CAC001B68134A43F08073136000BF104B1B68E2
:104CBC0003F00073002BF9D00D4B5B680C4A43F0EA
:104CCC000203536000BF0A4B5B6803F00803002B20
:104CDC00F9D0FBF781FA074B1B68074AA2FB0323A9
:104CEC009B091846FFF7D0FE00BF80BD0020024094
:104CFC000010024000000020D34D621080B582B03D
:104D0C0000AF7860224BDB69214A43F00103D36189
:104D1C004FF080431B684FF0804223F00103136077
:104D2C001B4B1B691A4A43F001031361184B1B6997
:104D3C00174A23F0010313614FF0804347229A6214
:104D4C004FF080427B68D3624FF080435B694FF039
:104D5C00804243F0010353614FF08043DB684FF016
:104D6C00804243F00103D36000211C20FFF762FE58
:104D7C001C20FFF743FE4FF080431B684FF080422E
:104D8C0043F00103136000BF0837BD4680BD00BF70
:104D9C000010024080B483B000AF03463A60FB7150
:104DAC000B46BB80FB79124A1B0113443A681A600C
:104DBC00BB884FF47A7202FB03F2FB7911460C4A62
:104DCC001B01134404331960FB79094A1B0113447A
:104DDC00083300221A60FB79054A1B0113440C337B
:104DEC0001221A7000BF0C37BD4680BC704700BF53
:104DFC00DC07002080B483B000AF03463A60FB713F
:104E0C000B46BB80FB790F4A1B0113443A681A60AE
:104E1C00FB79BA880B491B010B4404331A60FB79EC
:104E2C00084A1B011344083300221A60FB79054A17
:104E3C001B0113440C3301221A7000BF0C37BD4602
:104E4C0080BC7047DC07002080B400AF0C4BDB69E2
:104E5C000B4A43F00203D3610A4B00221A60094B40
:104E6C0047229A62074B4FF6FF72DA62054B1B68BA
:104E7C00044A43F00103136000BFBD4680BC704779
:104E8C00001002400004004080B400AF024B5B6A8B
:104E9C001846BD4680BC70470004004080B483B007
:104EAC0000AF78607B680EE00B4B5B690A4A43F0FD
:104EBC000103536100BF084B5B6AB3F57A7FFAD3E9
:104ECC007B68013B7B607B68002BEDD100BF0C370E
:104EDC00BD4680BC704700BF0004004080B483B066
:104EEC0000AF7860084B5B69074A43F001035361DC
:104EFC0000BF054B5A6A7B689A42FAD300BF0C3745
:104F0C00BD4680BC704700BF0004004080B582B035
:104F1C0000AF0346FB800E4B9B690D4A43F0100318
:104F2C0093610C4B5B680B4A23F470035360094B81
:104F3C005B68084A43F440135360FB88064A1946E1
:104F4C000020FFF727FF00BF0837BD4680BD00BF1C
:104F5C000010024000100140C14F000880B483B023
:104F6C0000AF0346FB80FB884FF47A7202FB03F31D
:104F7C001A46034B5A6000BF0C37BD4680BC7047C5
:104F8C00DC07002080B400AF034B4FF400521A61D1
:104F9C0000BFBD4680BC70470010014080B400AF1C
:104FAC00034B4FF000521A6100BFBD4680BC7047E6
:104FBC000010014080B500AF084B1B78DBB2002B12
:104FCC0005D0FFF7EBFF054B00221A7004E0FFF74A
:104FDC00D9FF024B01221A7000BF80BDD4050020FE
:104FEC0080B400AF0A4B9B69094A43F004039361F8
:104FFC00084B1B68074A23F470431360054B1B686E
:10500C00044A43F44053136000BFBD4680BC704754
:10501C00001002400008014080B400AF034B08228E
:10502C001A6100BFBD4680BC704700BF000801403C
:10503C0080B400AF034B4FF400221A6100BFBD4691
:10504C0080BC70470008014080B500AF244B1B6842
:10505C00234A23F470631360214B1B68204A43F4EA
:10506C00006313601E4B1B681D4A23F4806313609E
:10507C001B4B1B681A4A23F440731360184BDB68F4
:10508C00174A43F00403D360164B9B69154A43F04F
:10509C0004039361134B9B69124A43F00103936120
:1050AC00114B114A9B689360104B1B680F4A43F0DD
:1050BC00040313600D4BDB680C4A43F00403D3600C
:1050CC000A4B9B68094A23F00403936010210820C3
:1050DC00FFF7B0FC0820FFF791FC00BF80BD00BFBC
:1050EC000008014000100240000001400004014093
:1050FC0080B500AFFFF7ACFD32231846FFF7FEFD7D
:10510C00FFF7A2FE4FF47A70FFF700FFFFF768FF7E
:10511C00FFF78EFFFFF798FF00BF80BD80B483B010
:10512C0000AF2E4B9B692D4A43F0040393612B4B2C
:10513C009B692A4A43F480539361294B1B68284A84
:10514C009BB21360264B1B68254A43F44033136013
:10515C00234B1B68224A43F430031360204B1B681B
:10516C001F4A43F0306313601D4B1B681C4A43F00D
:10517C00304313601A4B10221A6100237B607B684A
:10518C0043F040037B607B6843F020037B607B68CB
:10519C0023F001037B607B6823F002037B607B6858
:1051AC0023F400637B607B6823F080037B607B6867
:1051BC0043F400737B607B6843F480737B607B6893
:1051CC0043F004037B60074B1A6806497B68134362
:1051DC000B6000BF0C37BD4680BC7047001002400E
:1051EC00000801400030014080B400AF034B4FF485
:1051FC0080121A6100BFBD4680BC70470008014098
:10520C0080B400AF034B10221A6100BFBD4680BCB6
:10521C00704700BF0008014080B483B000AF034664
:10522C00FB71094AFB79137000BF084B9B6803F0B4
:10523C000103002BF9D0054BDB68DBB218460C37A9
:10524C00BD4680BC704700BF0C30014000300140AF
:10525C0080B483B000AF0346FB7197F90730002B85
:10526C000BDBFB7903F01F02064997F907305B094A
:10527C00012000FA02F241F8232000BF0C37BD4692
:10528C0080BC704700E100E080B584B000AF78606E
:10529C001E4B9B691D4A43F0040393611B4B9B6996
:1052AC001A4A43F480439361194B5B68184A23F004
:1052BC00F0035360164B5B68154A23F4706353601C
:1052CC00134B5B68124A43F030035360104B5B681E
:1052DC000F4A43F0800353600D4B5B680C4A43F458
:1052EC00806353600B4B1A687B68B2FBF3F3FB6073
:1052FC00094AFB689360084B42F22C02DA602520C5
:10530C00FFF7A6FF00BF1037BD4680BD001002405E
:10531C0000080140000000200038014080B582B038
:10532C0000AF0346FB71FB790A2B02D10D20FFF76E
:10533C00F5FF074AFB79536000BF054B1B6803F070
:10534C008003002BF9D000BF0837BD4680BD00BFDD
:10535C000038014080B584B000AF78600023FB605A
:10536C000AE07B681B781846FFF7D8FF7B6801338F
:10537C007B60FB680133FB607B681B78002BF0D1F2
:10538C00FB6818461037BD4680BD80B584B000AFB1
:10539C0078600023FB607868FFF7DCFFF8600A2078
:1053AC00FFF7BCFFFB6818461037BD4680BD0000F8
:1053BC0080B485B000AF0346FB71114B1B7CDBB294
:1053CC0001335A4203F00F0302F00F0258BF53424D
:1053DC00FB600B4B5B7CDBB21A46FB6893420AD03A
:1053EC00074B1B7CDBB21946054AFB795354FB680F
:1053FC00DAB2034B1A7400BF1437BD4680BC704739
:10540C00D805002080B582B000AF0D4B1B680C4B4B
:10541C005B68FB71FB791B2B06D10A48FFF79AFFDF
:10542C000948FFF797FF07E0FB791846FFF7C0FF25
:10543C00FB79184600F0A6FC0837BD4680BD00BFBE
:10544C000038014098820008D482000880B483B0F0
:10545C0000AF786000BF0C37BD4680BC70470000C1
:10546C0080B500AFFDF70CFC03463A220621184626
:10547C00FCF748F803461A4602490348FBF764FF59
:10548C0000BF80BD9C890008A089000880B584B04D
:10549C0000AF78600023FB601BE0114AFB6852F8F8
:1054AC00233079681846FAF74BFE0346002B0DD1D2
:1054BC00FB68FB72FB7A1846FCF798F80346184613
:1054CC00FCF75EF803461846FFF75FFFFB680133F5
:1054DC00FB60FB68672BE0D900BF1037BD4680BD71
:1054EC005C03002080B58AB000AF786007F1080338
:1054FC001A1D06230949786800F0E4FC3B7A012266
:10550C0062F385033B7207F1080319460020FDF78F
:10551C00DDFE00BF2837BD4680BD00BFB88900083E
:10552C0080B584B000AF786007F108020623074904
:10553C00786800F0C7FC07F1080393E80300FEF756
:10554C0065FF00BF1037BD4680BD00BFB88900089D
:10555C0080B5C8B002AF3B1D186007F58672381DC8
:10556C0006231549006800F0ADFC0023C7F8143180
:10557C000EE0D7F81431D9B207F10C02D7F8143178
:10558C0013440A461A70D7F814310133C7F8143192
:10559C00D7F81431FE2BECDD07F10C0207F5867100
:1055AC00FF230093134606220020FDF7DFFE00BF09
:1055BC0007F58C77BD4680BDB889000880B582B0F0
:1055CC0000AF786010497868FAF7BAFD0346002BF3
:1055DC0002D10220FCF752FB0C497868FAF7B0FDB7
:1055EC000346002B02D10020FCF748FB08497868E1
:1055FC00FAF7A6FD0346002B02D10120FCF73EFB77
:10560C0000BF0837BD4680BDC0890008C8890008A6
:10561C00D089000880B582B000AFFCF769FB034667
:10562C00FB710D4B3B60FB79012B0CD0022B02D094
:10563C00002B04D00BE0094B3B603B6808E0084BA7
:10564C003B603B6804E0074B3B603B6800E03B6819
:10565C0018460837BD4680BD60840008C089000824
:10566C00C8890008D089000880B582B000AF00233B
:10567C007B6048E027497A681346DB0013449B00A3
:10568C000B4404331B68002B18D022497A6813464C
:10569C00DB0013449B000B4418681E497A681346C0
:1056AC00DB0013449B000B4404331B6802461A496D
:1056BC001A4800F01BFE1948FFF767FE15497A6877
:1056CC001346DB0013449B000B4408331B68002B70
:1056DC0013D0124B00221A700E497A681346DB0065
:1056EC0013449B000B4408331B680D4A0A490B48B2
:1056FC0000F0FCFD0948FFF748FE0948FFF745FE9E
:10570C007B6801337B607B681A2BB3D900BF0837E9
:10571C00BD4680BD448A0008D88900084C0800208A
:10572C006084000880B584B000AF78600023FB6013
:10573C002AE01949FA681346DB0013449B000B441A
:10574C001B6879681846FAF7FBFC0346002B18D146
:10575C001149FA681346DB0013449B000B4418688C
:10576C000D49FA681346DB0013449B000B440433C9
:10577C001B68024609490A4800F0B8FD0848FFF7C3
:10578C0004FEFB680133FB60FB681A2BD1D900BF08
:10579C001037BD4680BD00BF448A0008D889000878
:1057AC004C08002080B582B000AF0346FB71FB793A
:1057BC00082B07D0102B09D0002B00D00AE0FCF7E7
:1057CC0005F907E00020FCF721F903E00120FCF7C4
:1057DC001DF900BF00BF0837BD4680BD80B500AFC6
:1057EC00FCF704F90346002B07D0FCF72BF9034612
:1057FC000133DBB2DB00DBB200E00023184680BDD6
:10580C00B0B586B000AF78606B461D46FCF78CF9DE
:10581C000346FB75F87D0346013B3B61C1B24FF07B
:10582C0000024FF000034FF00004D40044EA51741E
:10583C00CB00C1B24FF000024FF000034FF0000458
:10584C00D40044EA5174CB0003460733DB08DB0079
:10585C00ADEB030D6B460033FB60FA68FB7D07492B
:10586C00786800F02FFBFB68FA7D11461846FCF7B0
:10587C00D3FAAD4600BF1837BD46B0BDB889000895
:10588C00B0B584B000AF6B461D46FCF74DF903462E
:10589C00FB73F87B0346013BBB60C1B24FF00002C7
:1058AC004FF000034FF00004D40044EA5174CB00D5
:1058BC00C1B24FF000024FF000034FF00004D400CF
:1058CC0044EA5174CB0003460733DB08DB00ADEB35
:1058DC00030D6B4600337B607B681846FCF7B6FA09
:1058EC007868F97B044B3A2200F014FB024BAD466E
:1058FC0018461037BD46B0BD2C08002080B485B0CA
:10590C0000AF786039600023FB600023BB6021E0AE
:10591C00FB68042B0DD81C4B1B781A46FB681344F0
:10592C001A4AD25CFB6879680B441B789A420ED0F9
:10593C0025E0154B1B781A46FB681A44BB68591CAA
:10594C00B96019463B680B4410498A5C1A70FB68B5
:10595C000133FB600C4B1B781A46FB6813440B4A53
:10596C00D35C002B06D0084B1B781A46FB681344FB
:10597C001F2BCDD9BB683A68134400221A70143718
:10598C00BD4680BC704700BFEE0500202C080020EF
:10599C00B0B588B000AF786007F10C0319463448F5
:1059AC00FFF7ACFF07F10C03184600F01CFB034695
:1059BC00FB77FB7F052B57D801A252F823F000BFD1
:1059CC00E5590008E5590008595A0008595A0008C9
:1059DC00595A0008595A00086B461D46FCF7A4F8A2
:1059EC0003467B77787F0346013BBB61C1B24FF026
:1059FC0000024FF000034FF00004D40044EA51744D
:105A0C00CB00C1B24FF000024FF000034FF0000486
:105A1C00D40044EA5174CB0003460733DB08DB00A7
:105A2C00ADEB030D6B4600337B617A697B7F1149CB
:105A3C00786800F047FAFB7F0A33D9B27A697B7F2A
:105A4C000120FBF70EFE00BFAD460DE0786800F0BC
:105A5C00CAFA0346BB77FB7F0A33DBB2BA7F114627
:105A6C001846FBF7DDFD00BF2037BD46B0BD00BFBB
:105A7C00E4890008B8890008B0B586B000AF6B4661
:105A8C001D463B1D19463648FFF738FF3B1D18468F
:105A9C0000F0A9FA0346FB75FCF746F80346BB7504
:105AAC00B87D0346013B3B61C1B24FF000024FF0A1
:105ABC0000034FF00004D40044EA5174CB00C1B28F
:105ACC004FF000024FF000034FF00004D40044EA02
