:020000040800F2
:1000000000500020D56B00081D6C00081D6C000816
:100010001D6C00081D6C00081D6C0008000000002D
:100020000000000000000000000000001D6C00083F
:100030001D6C0008000000001D6C00082955000818
:100040001D6C00081D6C00081D6C00081D6C00086C
:100050001D6C00081D6C00081D6C00081D6C00085C
:10006000355500081D6C00081D6C00081D6C00084B
:100070001D6C00081D6C00081D6C00081D6C00083C
:100080001D6C00081D6C00081D6C00081D6C00082C
:100090001D6C00081D6C00081D6C00081D6C00081C
:1000A0001D6C00081D6C00081D6C00081D6C00080C
:1000B000595500081D6C00081D6C00081D6C0008D7
:1000C0001D6C00081D6C00081D6C00081D6C0008EC
:1000D0001D6C0008315E00081D6C00081D6C0008D6
:1000E000015600081D6C00081D6C0008000000008F
:1000F0000000000000000000000000000000000000
:0C01000000000000000000005FF808F1A3
:10010C0010B5054C237833B9044B13B10448AFF345
:10011C0000800123237010BD640600200000000045
:10012C00A078000808B5034B1BB103490348AFF393
:10013C00008008BD0000000068060020A0780008C0
:10014C0010F8012B11F8013B012A28BF9A42F7D075
:10015C00D01A7047034613F8012B002AFBD1181A4A
:10016C000138704780B500AF01F02AF8FEE70000B7
:10017C0080B400AF154B1B68144A43F001031360A5
:10018C00124B5A681149124B13404B600F4B1B68B2
:10019C000E4A23F0847323F4803313600B4B1B68DB
:1001AC000A4A23F480231360084B5B68074A23F444
:1001BC00FE035360054B4FF41F029A60054B4FF042
:1001CC0000629A6000BFBD4680BC704700100240C0
:1001DC000000FFF800ED00E080B485B000AF002314
:1001EC00FB600023BB6000237B602C4B5B6803F03F
:1001FC000C03FB60FB68042B07D0082B09D0002BE9
:10020C0033D1274B274A1A6033E0254B254A1A6015
:10021C002FE0224B5B6803F47013BB601F4B5B68D1
:10022C0003F480337B60BB689B0C0233BB607B6840
:10023C00002B06D1BB681C4A02FB03F3184A13605F
:10024C0017E0164B5B6803F40033002B06D0BB6839
:10025C00154A02FB03F3124A13600AE0BB68114A09
:10026C0002FB03F30E4A136003E00D4B0D4A1A60B8
:10027C0000BF0A4B5B681B0903F00F030B4AD35CEE
:10028C00FB60074B1A68FB6822FA03F3044A1360FD
:10029C0000BF1437BD4680BC704700BF0010024041
:1002AC000000002000127A0000093D004CA5000857
:1002BC0080B487B000AFF860B9601346FB800023B0
:1002CC00FB820023BB8233E0FB8A9B00BA68134499
:1002DC001968BB8AFA681344CAB21A70FB8A9B006D
:1002EC00BA6813441B68190ABB8A0133FA681344B1
:1002FC00CAB21A70FB8A9B00BA6813441B68190CAB
:10030C00BB8A0233FA681344CAB21A70FB8A9B0088
:10031C00BA6813441B68190EBB8A0333FA6813447A
:10032C00CAB21A70FB8A0133FB82BB8A0433BB82CC
:10033C00BA8AFB889A42C7D300BF1C37BD4680BC23
:10034C00704780B487B000AFF860B9601346FB808B
:10035C000023FB820023BB8226E0BB8ABA681344CD
:10036C001B781946BB8A0133BA6813441B781B02ED
:10037C0041EA0302BB8A0233B9680B441B781B04A5
:10038C0042EA0301BB8A0333BA6813441B781A068A
:10039C00FB8A9B00F86803440A431A60FB8A01330A
:1003AC00FB82BB8A0433BB82BA8AFB889A42D4D3C1
:1003BC0000BF1C37BD4680BC7047000080B596B0AE
:1003CC0000AF786039607B681B687B657B685B6815
:1003DC003B657B689B68FB647B68DB68BB6407F1EF
:1003EC000803402239681846FFF7ABFF3A6DFB6CE7
:1003FC001A403B6DD943BB6C0B401A43BB681A4483
:10040C007B6D1A44A24B13447B657B6D4FEA73637F
:10041C007B657A6D3B6D13447B657A6D3B6D1A4041
:10042C007B6DD943FB6C0B401A43FB681A44BB6CC5
:10043C001A44984B1344BB64BB6C4FEA3353BB64F4
:10044C00BA6C7B6D1344BB64BA6C7B6D1A40BB6C8D
:10045C00D9433B6D0B401A433B691A44FB6C1A445D
:10046C008D4B1344FB64FB6C4FEAF333FB64FA6C67
:10047C00BB6C1344FB64FA6CBB6C1A40FB6CD94329
:10048C007B6D0B401A437B691A443B6D1A44834BBA
:10049C0013443B653B6D4FEAB3233B653A6DFB6CF4
:1004AC0013443B653A6DFB6C1A403B6DD943BB6CF6
:1004BC000B401A43BB691A447B6D1A44784B1344A6
:1004CC007B657B6D4FEA73637B657A6D3B6D134483
:1004DC007B657A6D3B6D1A407B6DD943FB6C0B4091
:1004EC001A43FB691A44BB6C1A446E4B1344BB642D
:1004FC00BB6C4FEA3353BB64BA6C7B6D1344BB6467
:10050C00BA6C7B6D1A40BB6CD9433B6D0B401A43E4
:10051C003B6A1A44FB6C1A44634B1344FB64FB6C3C
:10052C004FEAF333FB64FA6CBB6C1344FB64FA6C58
:10053C00BB6C1A40FB6CD9437B6D0B401A437B6A36
:10054C001A443B6D1A44594B13443B653B6D4FEABF
:10055C00B3233B653A6DFB6C13443B653A6DFB6C06
:10056C001A403B6DD943BB6C0B401A43BB6A1A440F
:10057C007B6D1A444E4B13447B657B6D4FEA736362
:10058C007B657A6D3B6D13447B657A6D3B6D1A40D0
:10059C007B6DD943FB6C0B401A43FB6A1A44BB6C52
:1005AC001A44444B1344BB64BB6C4FEA3353BB64D7
:1005BC00BA6C7B6D1344BB64BA6C7B6D1A40BB6C1C
:1005CC00D9433B6D0B401A433B6B1A44FB6C1344F1
:1005DC00A3F524434F3BFB64FB6C4FEAF333FB6402
:1005EC00FA6CBB6C1344FB64FA6CBB6C1A40FB6C6E
:1005FC00D9437B6D0B401A437B6B1A443B6D1A44F9
:10060C002D4B13443B653B6D4FEAB3233B653A6D71
:10061C00FB6C13443B653A6DFB6C1A403B6DD94344
:10062C00BB6C0B401A43BB6B1A447B6D1A44234BB7
:10063C0013447B657B6D4FEA73637B657A6D3B6D11
:10064C0013447B657A6D3B6D1A407B6DD943FB6C13
:10065C000B401A43FB6B1A44BB6C1A44184B1344E3
:10066C00BB64BB6C4FEA3353BB64BA6C7B6D1344F5
:10067C00BB64BA6C7B6D1A40BB6CD9433B6D0B40B1
:10068C001A433B6C1A44FB6C1A440E4B13441BE08C
:10069C0078A46AD756B7C7E8DB702024EECEBDC16C
:1006AC00AF0F7CF52AC68747134630A8019546FD47
:1006BC00D8988069AFF7448BBED75C892211906BB8
:1006CC00937198FD8E4379A6FB64FB6C4FEAF33370
:1006DC00FB64FA6CBB6C1344FB64FA6CBB6C1A4085
:1006EC00FB6CD9437B6D0B401A437B6C1A443B6DFE
:1006FC001A44A24B13443B653B6D4FEAB3233B6555
:10070C003A6DFB6C13443B653A6DBB6C1A40BB6C89
:10071C00D943FB6C0B401A43FB681A447B6D1A449B
:10072C00974B13447B657B6D4FEAF3637B657A6D66
:10073C003B6D13447B657A6DFB6C1A40FB6CD943A3
:10074C003B6D0B401A433B6A1A44BB6C1A448D4BED
:10075C001344BB64BB6C4FEAF353BB64BA6C7B6D44
:10076C001344BB64BA6C3B6D1A403B6DD9437B6D33
:10077C000B401A437B6B1A44FB6C1A44824B134498
:10078C00FB64FB6C4FEAB343FB64FA6CBB6C134425
:10079C00FB64FA6C7B6D1A407B6DD943BB6C0B40D0
:1007AC001A43BB681A443B6D1A44784B13443B659F
:1007BC003B6D4FEA33333B653A6DFB6C13443B6541
:1007CC003A6DBB6C1A40BB6CD943FB6C0B401A43A3
:1007DC00FB691A447B6D1A446D4B13447B657B6D2E
:1007EC004FEAF3637B657A6D3B6D13447B657A6DE1
:1007FC00FB6C1A40FB6CD9433B6D0B401A433B6BB3
:10080C001A44BB6C1A44634B1344BB64BB6C4FEA75
:10081C00F353BB64BA6C7B6D1344BB64BA6C3B6D15
:10082C001A403B6DD9437B6D0B401A437B6C1A44C9
:10083C00FB6C1A44584B1344FB64FB6C4FEAB343F8
:10084C00FB64FA6CBB6C1344FB64FA6C7B6D1A4052
:10085C007B6DD943BB6C0B401A43BB691A443B6D8F
:10086C001A444E4B13443B653B6D4FEA33333B65A7
:10087C003A6DFB6C13443B653A6DBB6C1A40BB6C18
:10088C00D943FB6C0B401A43FB6A1A447B6D1A4428
:10089C00434B13447B657B6D4FEAF3637B657A6D49
:1008AC003B6D13447B657A6DFB6C1A40FB6CD94332
:1008BC003B6D0B401A433B6C1A44BB6C1A44394BCE
:1008CC001344BB64BB6C4FEAF353BB64BA6C7B6DD3
:1008DC001344BB64BA6C3B6D1A403B6DD9437B6DC2
:1008EC000B401A437B691A44FB6C1A442E4B13447D
:1008FC00FB64FB6C4FEAB343FB64FA6CBB6C1344B4
:10090C00FB64FA6C7B6D1A407B6DD943BB6C0B405E
:10091C001A43BB6A1A443B6D1A44244B13443B657F
:10092C003B6D4FEA33333B653A6DFB6C13443B65CF
:10093C003A6DBB6C1A40BB6CD943FB6C0B401A4331
:10094C00FB6B1A447B6D1A44194B13447B657B6D0E
:10095C004FEAF3637B657A6D3B6D13447B657A6D6F
:10096C00FB6C1A40FB6CD9433B6D0B401A433B6943
:10097C001A44BB6C1A440F4B13441DE02108B449B4
:10098C0062251EF640B340C0515A5E26AAC7B6E98E
:10099C005D102FD65314440281E6A1D8C8FBD3E7CF
:1009AC00E6CDE121D60737C3870DD5F4ED145A45B2
:1009BC0005E9E3A9F8A3EFFCBB64BB6C4FEAF35366
:1009CC00BB64BA6C7B6D1344BB64BA6C3B6D1A4050
:1009DC003B6DD9437B6D0B401A437B6A1A44FB6C0D
:1009EC001A44A04B1344FB64FB6C4FEAB343FB6407
:1009FC00FA6CBB6C1344FB64FA6C7B6D1A407B6D18
:100A0C00D943BB6C0B401A43BB6B1A443B6D1A4465
:100A1C00954B13443B653B6D4FEA33333B653A6D65
:100A2C00FB6C13443B653A6DFB6C5A40BB6C5A40F3
:100A3C00FB691A447B6D1344A3F5B823A3F2BE6380
:100A4C007B657B6D4FEA33737B657A6D3B6D13442D
:100A5C007B657A6D3B6D5A40FB6C5A40BB6A1A44FD
:100A6C00BB6C1A44814B1344BB64BB6C4FEA73538D
:100A7C00BB64BA6C7B6D1344BB64BA6C7B6D5A401F
:100A8C003B6D5A407B6B1A44FB6C1A44784B1344F5
:100A9C00FB64FB6C4FEA3343FB64FA6CBB6C134492
:100AAC00FB64FA6CBB6C5A407B6D5A403B6C1A442D
:100ABC003B6D1A446F4B13443B653B6D4FEA7323FC
:100ACC003B653A6DFB6C13443B653A6DFB6C5A40CD
:100ADC00BB6C5A40FB681A447B6D1A44664B13443A
:100AEC007B657B6D4FEA33737B657A6D3B6D13448D
:100AFC007B657A6D3B6D5A40FB6C5A40BB691A445E
:100B0C00BB6C1A445D4B1344BB64BB6C4FEA735310
:100B1C00BB64BA6C7B6D1344BB64BA6C7B6D5A407E
:100B2C003B6D5A407B6A1A44FB6C1A44544B134479
:100B3C00FB64FB6C4FEA3343FB64FA6CBB6C1344F1
:100B4C00FB64FA6CBB6C5A407B6D5A403B6B1A448D
:100B5C003B6D1A444B4B13443B653B6D4FEA73237F
:100B6C003B653A6DFB6C13443B653A6DFB6C5A402C
:100B7C00BB6C5A40FB6B1A447B6D1A44424B1344BA
:100B8C007B657B6D4FEA33737B657A6D3B6D1344EC
:100B9C007B657A6D3B6D5A40FB6C5A40BB681A44BE
:100BAC00BB6C1A44394B1344BB64BB6C4FEA735394
:100BBC00BB64BA6C7B6D1344BB64BA6C7B6D5A40DE
:100BCC003B6D5A407B691A44FB6C1A44304B1344FE
:100BDC00FB64FB6C4FEA3343FB64FA6CBB6C134451
:100BEC00FB64FA6CBB6C5A407B6D5A403B6A1A44EE
:100BFC003B6D1A44274B13443B653B6D4FEA732303
:100C0C003B653A6DFB6C13443B653A6DFB6C5A408B
:100C1C00BB6C5A40FB6A1A447B6D1A441E4B13443E
:100C2C007B657B6D4FEA33737B657A6D3B6D13444B
:100C3C007B657A6D3B6D5A40FB6C5A40BB6B1A441A
:100C4C00BB6C1A44154B1344BB64BB6C4FEA735317
:100C5C00BB64BA6C7B6D1344BB64BA6C7B6D5A403D
:100C6C001EE000BFD9026F678A4C2A8D81F671870E
:100C7C0022619D6D0C38E5FD44EABEA4A9CFDE4B84
:100C8C00604BBBF670BCBFBEC67E9B28FA27A1EAA0
:100C9C008530EFD4051D880439D0D4D9E599DBE62D
:100CAC003B6D5A407B6C1A44FB6C1A44A24B1344A8
:100CBC00FB64FB6C4FEA3343FB64FA6CBB6C134470
:100CCC00FB64FA6CBB6C5A407B6D5A403B691A440E
:100CDC003B6D1A44994B13443B653B6D4FEA7323B0
:100CEC003B653A6DFB6C13443B65BB6CDA433B6D67
:100CFC001A43FB6C5A40BB681A447B6D1A44904BE8
:100D0C0013447B657B6D4FEAB3637B657A6D3B6DFA
:100D1C0013447B65FB6CDA437B6D1A433B6D5A4085
:100D2C007B6A1A44BB6C1A44864B1344BB64BB6C81
:100D3C004FEAB353BB64BA6C7B6D1344BB643B6D1D
:100D4C00DA43BB6C1A437B6D5A403B6C1A44FB6C08
:100D5C001A447D4B1344FB64FB6C4FEA7343FB64F6
:100D6C00FA6CBB6C1344FB647B6DDA43FB6C1A436B
:100D7C00BB6C5A40FB691A443B6D1A44734B1344C9
:100D8C003B653B6D4FEAF3233B653A6DFB6C1344BB
:100D9C003B65BB6CDA433B6D1A43FB6C5A40BB6B37
:100DAC001A447B6D1A446A4B13447B657B6D4FEA86
:100DBC00B3637B657A6D3B6D13447B65FB6CDA43E7
:100DCC007B6D1A433B6D5A407B691A44BB6C1A44C9
:100DDC00604B1344BB64BB6C4FEAB353BB64BA6C3B
:100DEC007B6D1344BB643B6DDA43BB6C1A437B6D68
:100DFC005A403B6B1A44FB6C1344A3F58013A3F6C7
:100E0C008333FB64FB6C4FEA7343FB64FA6CBB6C7F
:100E1C001344FB647B6DDA43FB6C1A43BB6C5A4086
:100E2C00FB681A443B6D1A444B4B13443B653B6DBA
:100E3C004FEAF3233B653A6DFB6C13443B65BB6C8B
:100E4C00DA433B6D1A43FB6C5A40BB6A1A447B6D08
:100E5C001A44424B13447B657B6D4FEAB3637B654D
:100E6C007A6D3B6D13447B65FB6CDA437B6D1A43E7
:100E7C003B6D5A407B6C1A44BB6C1A44384B134480
:100E8C00BB64BB6C4FEAB353BB64BA6C7B6D13444D
:100E9C00BB643B6DDA43BB6C1A437B6D5A403B6AB7
:100EAC001A44FB6C1A442F4B1344FB64FB6C4FEA43
:100EBC007343FB64FA6CBB6C1344FB647B6DDA43C9
:100ECC00FB6C1A43BB6C5A40FB6B1A443B6D1A44C7
:100EDC00254B13443B653B6D4FEAF3233B653A6D61
:100EEC00FB6C13443B65BB6CDA433B6D1A43FB6CE8
:100EFC005A40BB691A447B6D1A441C4B13447B65E6
:100F0C007B6D4FEAB3637B657A6D3B6D13447B65F8
:100F1C00FB6CDA437B6D1A433B6D5A407B6B1A4476
:100F2C00BB6C1A44124B1344BB64BB6C4FEAB353F7
:100F3C00BB64BA6C1EE000BFF87CA21F6556ACC443
:100F4C00442229F497FF2A43A72394AB39A093FC9E
:100F5C00C3595B6592CC0C8FD15D84854F7EA86F95
:100F6C00E0E62CFE144301A3A111084E827E53F738
:100F7C0035F23ABD7B6D1344BB643B6DDA43BB6CFD
:100F8C001A437B6D5A403B691A44FB6C1A44244B40
:100F9C001344FB64FB6C4FEA7343FB64FA6CBB6C4D
:100FAC001344FB647B6DDA43FB6C1A43BB6C5A40F5
:100FBC00FB6A1A443B6D1A441A4B13443B653B6D58
:100FCC004FEAF3233B653A6DFB6C13443B657B683E
:100FDC001A687B6D1A447B681A607B680433196845
:100FEC007B6804333A6D0A441A607B6808331968CD
:100FFC007B680833FA6C0A441A607B680C331968F6
:10100C007B680C33BA6C0A441A6007F1080340225F
:10101C000021184605F06AFE00BF5837BD4680BD5A
:10102C00BBD2D72A91D386EB80B483B000AF786063
:10103C007B6800225A617B685A697B681A617B68FD
:10104C00074A1A607B68074A5A607B68064A9A60AE
:10105C007B68064ADA6000BF0C37BD4680BC70471F
:10106C000123456789ABCDEFFEDCBA98765432107C
:10107C0080B586B000AFF860B9607A60FB681B6918
:10108C00DB089BB203F03F03BB82FB681A697B68E9
:10109C00DB001A44FB681A61FB681A697B68DB0089
:1010AC009A4204D2FB685B695A1CFB685A61FB6864
:1010BC005A697B685B0F1A44FB685A61BB8AC3F19F
:1010CC0040037B827B8A7A689A4225D3BB8A183389
:1010DC00FA6813447A8AB968184605F0FCFDFA6878
:1010EC00FB68183319461046FFF768F97B8AFB82B8
:1010FC0009E0F868FB8ABA6813441946FFF75EF9F1
:10110C00FB8A4033FB82FB8A3F331A467B6893424F
:10111C00EFD80023BB8201E00023FB82BB8A18338B
:10112C00FA68D018FB8ABA68D118FB8A7A68D31A85
:10113C001A4605F0D0FD00BF1837BD4680BD000033
:10114C0080B586B000AF786039603B6803F1100160
:10115C0007F10C0308221846FFF7AAF83B681B6935
:10116C00DB089BB203F03F03FB82FB8A372B04D8CE
:10117C00FB8AC3F138039BB203E0FB8AC3F178030B
:10118C009BB2BB82BB8A1A460C493868FFF770FFCA
:10119C0007F10C03082219463868FFF769FF3B6812
:1011AC00102219467868FFF783F858220021386816
:1011BC0005F09CFD00BF1837BD4680BD5CA500083E
:1011CC0080B500AF03F010FA00BF80BD80B400AF53
:1011DC00034B01221A7000BFBD4680BC704700BF94
:1011EC008006002080B400AF034B00221A7000BFB1
:1011FC00BD4680BC704700BF80060020F0B593B0A0
:10120C0004AF0446084611461A462346FB710346B2
:10121C00BB710B467B7113463B71444B1B78002B07
:10122C007FD0434B1B68002B1AD0414B1B689A682C
:10123C0007F10C031146184604F0C8F83B7B1A461C
:10124C00FB8919463B8A07F1180000930B46394974
:10125C0005F062FE07F118031946374800F07EF8D6
:10126C00FB79364A52F82310BB79354A52F82330B1
:10127C001A46344800F072F800233B767B79002B39
:10128C001BD03B79002B0ED07B792F4A52F82310C0
:10129C003B792D4A52F8233007F118000A462B49A6
:1012AC0005F03AFE09E07B79274A52F8232007F132
:1012BC0018031146184605F05EFE07F1180319468F
:1012CC00234800F04BF800233B763B6D002B1BD0E2
:1012DC003B6D1B781D463B6D5B781E463B6D9B78CA
:1012EC001A463B6DDB7819463B6D1B791C463B6DF2
:1012FC005B7907F118000393029401910092334635
:10130C002A46144905F008FE07F11803194612483D
:10131C0000F024F807F158037B617969786D00F0CF
:10132C002FF800BF3C37BD46F0BD00BF8006002043
:10133C0094070020147D0008207D00083000002058
:10134C0048000020287D000804000020347D00089F
:10135C003C7D0008447D0008587D00080FB480B522
:10136C0082B000AF07F114037B607968386900F034
:10137C0007F800BF0837BD46BDE8804004B0704791
:10138C0080B594B000AF78603960CAE07B681B7898
:10139C00252B40F0BE807B6801337B607B681B781B
:1013AC00642B48D0642B04DC2D2B57D0632B36D008
:1013BC00B4E06C2B03D0732B00F0A180AEE07B6803
:1013CC0001337B607B681B78732B15D0752B00D099
:1013DC00A4E03B681A1D3A601B687B647B6C07F1C8
:1013EC0028010A22184605F055FC07F12803184677
:1013FC0004F0C0FC00BF11E03B681A1D3A601B688A
:10140C003B6407F11C030A221946386C05F042FCB8
:10141C0007F11C03184604F0ADFC00BF7EE03B68EE
:10142C001A1D3A601B6887F83B3097F83B3018461A
:10143C0004F084FC72E03B681A1D3A601B68FB6385
:10144C0007F110030A221946F86B05F023FC07F18B
:10145C001003184604F08EFC00BF5FE07B6801337C
:10146C007B60002387F84F30002387F83A3016E072
:10147C0097F84F30022B02D92E4804F07BFC97F8DA
:10148C004F305A1C87F84F2019467B681A7807F1A1
:10149C0050030B4403F8442C7B6801337B607B685E
:1014AC001B78732BE4D197F84F3007F1500213449B
:1014BC00002203F8442C07F10C03184605F0A9FB95
:1014CC00034687F83A303B681A1D3A601B687B6309
:1014DC00786B04F04FFC034687F84E3007E097F822
:1014EC004E30013387F84E30202004F027FC97F85B
:1014FC004E2097F83A309A42F1D300BF0EE03B6889
:10150C001A1D3A601B68BB64B86C04F033FC00BF56
:10151C0004E07B681B78184604F010FC7B680133F0
:10152C007B607B681B78002B7FF430AF00BF50379B
:10153C00BD4680BD607D000880B584B000AF78608A
:10154C000B46FB701346BB700023FB730023BB736D
:10155C000023FB7313E0BB7B134A9818FB7B7A6860
:10156C0013441B781A46BB78104905F0D5FC03468A
:10157C00DAB2BB7B1344BB73FB7B0133FB73FA7B8B
:10158C00FB78013B9A42E6DBBB7B074A9818FB7B56
:10159C007A6813441B781A46054905F0BDFC024BCA
:1015AC0018461037BD4680BD30070020747D0008FA
:1015BC007C7D000880B586B000AF786000233B616D
:1015CC00092005F069FB0346FB6007237B611AE0E9
:1015DC007A687B6942FA03F3BB60BB6803F00103D2
:1015EC00002B05D03B69FA68134431221A7004E0D1
:1015FC003B69FA68134430221A703B6901333B6132
:10160C007B69013B7B617B69002BE1DA3B69FA6802
:10161C00134400221A70FB6818461837BD4680BD6B
:10162C0080B584B000AF0346FB7104F0EDFAFB7992
:10163C0003F01F03DBB2184604F0FEFAFF2004F09F
:10164C00FBFA0346FB7304F0EBFAFB7B18461037EE
:10165C00BD4680BD80B584B000AF03460A46FB7121
:10166C001346BB7104F0D0FAFB7903F01F03DBB215
:10167C0043F02003DBB2184604F0DEFABB791846BF
:10168C0004F0DAFA0346FB7304F0CAFAFB7B184643
:10169C001037BD4680BD90B585B000AF3A601A4694
:1016AC000346FB710B46BB7113467B71FB79012B17
:1016BC0008D1BB79A02B05D0BB79B02B02D0BB795C
:1016CC002033BB7104F0A0FABB79184604F0B4FACD
:1016DC000023FB6017E0FB79002B07D1FB683A680D
:1016EC00D418FF2004F0A8FA03462370FB79012BD1
:1016FC0006D1FB683A6813441B78184604F09CFA30
:10170C00FB680133FB607B79FA689A42E3DB04F0F7
:10171C0087FA00BF1437BD4690BD000080B584B079
:10172C0000AF786039607B681B78032B35D0052BB4
:10173C0065D0012B6DD13B681A787B681B799A4276
:10174C0026D33B681A787B685B799A4220D87B68F1
:10175C005B781846FFF764FF03461A467B689B7854
:10176C001340BB733B681B781A467B68DB7802FA24
:10177C0003F35AB297F90E3013435BB2BB737B6819
:10178C005B78BA7B11461846FFF764FF012341E0F2
:10179C00224804F00AFB00233CE03B685A787B6843
:1017AC001B799A4226D33B685A787B685B799A42BC
:1017BC0020D87B685B781846FFF732FF03461A4641
:1017CC007B689B781340FB733B685B781A467B689D
:1017DC00DB7802FA03F35AB297F90F3013435BB27A
:1017EC00FB737B685B78FA7B11461846FFF732FF78
:1017FC0001230FE0094804F0D8FA00230AE07B68C3
:10180C0059783B685A6805230120FFF744FF0123F0
:10181C0000E0002318461037BD4680BD80810008CB
:10182C0080B584B000AF786039607B681B78052B7D
:10183C004FD801A252F823F05D1800085D1800087B
:10184C009918000899180008CB180008CB18000844
:10185C007B685B781846FFF7E3FE03465AB27B6859
:10186C009B785BB2DB435BB213405BB27B737B7BDD
:10187C007A68D27813413B733B7B002B14BF012356
:10188C000023DAB23B681A70012323E07B685B7893
:10189C001846FFF7C5FE03465AB27B689B785BB2CD
:1018AC00DB435BB213405BB2FB73FB7B7A68D27891
:1018BC001341BB733B68BA7B5A7001230AE07B6807
:1018CC0059783B685A6805230020FFF7E4FE012392
:1018DC0000E0002318461037BD4680BD80B483B0AD
:1018EC0000AF0346FB71044AFB791370024B184698
:1018FC000C37BD4680BC7047D406002080B483B042
:10190C0000AF0346FB71044AFB795370024B184637
:10191C000C37BD4680BC7047D406002080B483B021
:10192C0000AF78600B46FB70054A7B685360044A35
:10193C00FB781372024B18460C37BD4680BC7047BF
:10194C00D406002080B582B000AF0346FB71FB7952
:10195C00002B05D0012B00D005E004F06DF802E05F
:10196C0004F076F800BF00BF0837BD4680BD00000C
:10197C0090B583B000AF0346FB71FB79002B0DD003
:10198C00012B00D015E00D4B1C680120FFF7A6FFC2
:10199C00034619462046FFF7C1FE0AE0074B1C68B8
:1019AC000020FFF79BFF034619462046FFF7B6FEC3
:1019BC0000BF00BF0C37BD4690BD00BF64000020C7
:1019CC0098B500AF054B5C680120FFF787FF034615
:1019DC0019462046FFF7A2FE00BF98BD6400002008
:1019EC0098B500AF054BDC680120FFF777FF034685
:1019FC0019462046FFF792FE00BF98BD64000020F8
:101A0C0098B500AF054BDC680020FFF767FF034675
:101A1C0019462046FFF782FE00BF98BD64000020E7
:101A2C0080B500AF044BDB6804491846FFF7F8FE9D
:101A3C00024B1B78184680BD64000020180700205C
:101A4C0090B583B000AF0346FB710A4B9C68FB79E1
:101A5C00002B14BF01230023DBB21846FFF73EFF17
:101A6C00034619462046FFF759FE00BF0C37BD460A
:101A7C0090BD00BF6400002080B500AF044B9B6894
:101A8C0004491846FFF7CCFE024B1B78184680BD64
:101A9C00640000201807002098B500AF054B1C69A6
:101AAC000020FFF71BFF034619462046FFF736FEC2
:101ABC0000BF98BD6400002098B500AF054B5C6971
:101ACC000020FFF70BFF034619462046FFF726FEC2
:101ADC0000BF98BD6400002098B500AF054B9C6911
:101AEC000020FFF7FBFE034619462046FFF716FEC3
:101AFC0000BF98BD6400002080B582B000AF0346E3
:101B0C00FB710220FFF78CFD03465AB2FB790121D1
:101B1C0001FA03F35BB213435BB2DBB2194602204A
:101B2C00FFF798FD00BF0837BD4680BD90B583B068
:101B3C0000AF0346FB71084BDC6CFB79023BDBB25C
:101B4C001846FFF7DBFE034619462046FFF7E6FD75
:101B5C0000BF0C37BD4690BD6400002080B500AFBF
:101B6C00054BDB6C05491846FFF75AFE034B5B78B7
:101B7C000233DBB2184680BD640000201807002039
:101B8C0090B583B000AF0346FB71074B1C6DFB791E
:101B9C001846FFF7B3FE034619462046FFF7BEFD75
:101BAC0000BF0C37BD4690BD6400002080B500AF6F
:101BBC00044B1B6D04491846FFF732FE024B5B7851
:101BCC00184680BD640000201807002090B583B033
:101BDC0000AF0346FB71074B5C6DFB791846FFF7B2
:101BEC008DFE034619462046FFF798FD00BF0C37C3
:101BFC00BD4690BD6400002080B500AF044B5B6D0A
:101C0C0004491846FFF70CFE024B5B78184680BD62
:101C1C00640000201807002090B583B000AF034685
:101C2C00FB71074B9C6DFB791846FFF767FE03466B
:101C3C0019462046FFF772FD00BF0C37BD4690BD1C
:101C4C006400002080B500AF044B9B6D044918461E
:101C5C00FFF7E6FD024B5B78184680BD6400002060
:101C6C001807002090B583B000AF0346FB71074BFB
:101C7C00DC6DFB791846FFF741FE034619462046FA
:101C8C00FFF74CFD00BF0C37BD4690BD6400002033
:101C9C0080B500AF044BDB6D04491846FFF7C0FD5F
:101CAC00024B5B78184680BD6400002018070020AA
:101CBC0090B583B000AF0346FB71FB79002B2ADB98
:101CCC00012B0DDD022B00D025E0154B9C6E012065
:101CDC00FFF704FE034619462046FFF71FFD1AE0E6
:101CEC000F4B9C6E0020FFF7F9FD0346194620466A
:101CFC00FFF714FD0A4B1C6EFB79002B14BF01235C
:101D0C000023DBB21846FFF7E9FD034619462046CF
:101D1C00FFF704FD00BF00BF0C37BD4690BD00BFF0
:101D2C006400002080B582B000AF0E4B9B6E0E4954
:101D3C001846FFF775FD0C4B1B78FB71FB79002BDC
:101D4C0001D0022309E0074B1B6E07491846FFF729
:101D5C0067FD054B1B78BB71BB7918460837BD4630
:101D6C0080BD00BF640000201807002080B500AFC4
:101D7C00044B5B6F04491846FFF752FD024B5B782E
:101D8C00184680BD640000201807002080B500AF05
:101D9C00044B9B6F04491846FFF742FD024B1B781E
:101DAC00184680BD640000201807002080B500AFE5
:101DBC00044BDB6F04491846FFF732FD024B1B78CE
:101DCC00184680BD640000201807002080B500AFC5
:101DDC00054BD3F8803005491846FFF721FD034B1E
:101DEC001B78184680BD00BF640000201807002037
:101DFC0080B582B000AF0720FFF712FC0346FB71E1
:101E0C00FB7903F07003DBB219460720FFF722FCC5
:101E1C0000BF0837BD4680BD90B583B000AF786079
:101E2C000B46FB70084BD3F89040FB78194678684A
:101E3C00FFF774FD034619462046FFF76FFC00BF01
:101E4C000C37BD4690BD00BF6400002090B583B038
:101E5C0000AF78600B46FB70084BD3F8A840FB78BA
:101E6C0019467868FFF75AFD034619462046FFF7D6
:101E7C0055FC00BF0C37BD4690BD00BF6400002070
:101E8C0080B582B000AF7860064A7B685360064B21
:101E9C00D3F8A83003491846FFF7C2FC00BF083737
:101EAC00BD4680BD180700206400002090B583B0AB
:101EBC0000AF03460A46FB711346BB71FB79052B39
:101ECC005CD801A252F823F0ED1E0008071F000891
:101EDC00211F00083B1F0008551F00086F1F00083A
:101EEC00284BD3F8AC40BB791846FFF707FD0346E7
:101EFC0019462046FFF712FC40E0224BD3F8B040C5
:101F0C00BB791846FFF7FAFC034619462046FFF743
:101F1C0005FC33E01B4BD3F8B440BB791846FFF7F4
:101F2C00EDFC034619462046FFF7F8FB26E0154B5F
:101F3C00D3F8B840BB791846FFF7E0FC03461946C6
:101F4C002046FFF7EBFB19E00E4BD3F8BC40BB79F6
:101F5C001846FFF7D3FC034619462046FFF7DEFB75
:101F6C000CE0084BD3F8C040BB791846FFF7C6FC11
:101F7C00034619462046FFF7D1FB00BF00BF0C37C4
:101F8C00BD4690BD6400002080B500AF03F03CFE60
:101F9C00E12003F051FE03F043FE00BF80BD80B58D
:101FAC0000AF03F031FEE22003F046FE03F038FEF2
:101FBC0000BF80BD80B582B000AF78607A68202306
:101FCC0061210020FFF767FB7B68202283F820202B
:101FDC00FFF7CCFE03461A467B6883F8212000BF2E
:101FEC000837BD4680BD000080B582B000AF034607
:101FFC00FB71424B1B78DBB2092B7AD801A252F849
:10200C0023F000BF39200008FF20000851200008F1
:10201C00FF20000873200008FF200008FF200008A4
:10202C00E9200008FF200008D1200008FB79022BD2
:10203C0000D006E0142003F041FC304B02221A7051
:10204C0000BF57E0FB79042B00D00BE0FFF7B8FC86
:10205C002A4B03221A70022003F030FC274B042277
:10206C001A7000BF46E0FB79072B02D0092B10D069
:10207C0028E00120FFF77CFC0120FFF763FC1F4BDD
:10208C0006221A70822003F039FC1C4B07221A70AE
:10209C0018E00020FFF76CFC0020FFF753FC012038
:1020AC00FFF750FC142003F029FC0020FFF74AFC3A
:1020BC00124B08221A70822003F020FC0F4B0922CD
:1020CC001A7000BFFB79042B00D006E00020FFF74C
:1020DC0039FC0A4B04221A7000BF0BE0FB79042B6D
:1020EC0000D007E00020FFF72DFC044B04221A70EF
:1020FC0000E000BF00BF0837BD4680BD8106002050
:10210C0080B586B004AF786003F002FD786803F008
:10211C00CBFD03F013FD0220FFF766FF00F028F85B
:10212C000420FFF761FF0720FFF75EFF084B0293C7
:10213C00084B019300230093002300220621012069
:10214C00FFF75CF8012318460837BD4680BD00BF79
:10215C002C7F0008AC81000880B500AF0021012065
:10216C00FFF778FA0020FFF731FD00BF80BD0000BB
:10217C0080B582B000AF0520FFF74EFD0220FFF7BF
:10218C0071FD0220FFF794FD0020FFF7B5FCFFF76F
:10219C00E3FFFFF725FC0120FFF752FCFFF77CFC67
:1021AC00FFF78AFCFFF798FC0520FFF7BFFC202106
:1021BC000020FFF77BFE0020FFF708FD104A3B468E
:1021CC0092E80300186004331970FFF7C7FC03464C
:1021DC00FB71FA793B4611461846FFF737FEFA7940
:1021EC003B4611461846FFF717FEFFF7CDFEFFF7EB
:1021FC00D6FEFFF7FDFD00BF0837BD4680BD00BF12
:10220C00C881000880B58CB000AF7860E12003F085
:10221C0013FD0420FFF7E8FE0023FB621AE07B6845
:10222C0093F820301A46FB6A93420ADA7A68FB6A02
:10223C001344197807F10C02FB6A13440A461A700E
:10224C0005E007F10C02FB6A134400221A70FB6ACA
:10225C000133FB62FB6A1F2BE1DD07F10C0220232B
:10226C00A0210120FFF717FA0920FFF7BDFE01237B
:10227C0018463037BD4680BD80B483B000AF78605F
:10228C00034A7B68136000BF0C37BD4680BC7047A7
:10229C000407002080B483B000AF7860034A7B68E9
:1022AC00136000BF0C37BD4680BC7047D0060020C1
:1022BC0080B500AFFFF76AFD0346002B08D01A4B20
:1022CC0001225A700420FFF78FFE0720FFF78CFEC7
:1022DC00FFF76CFD0346002B0FD0134B01221A7035
:1022EC000420FFF781FE0720FFF77EFE0F4B1B68D3
:1022FC00002B02D00D4B1B689847FFF767FD034678
:10230C00002B0DD0084B01229A700948FFF752FEA2
:10231C00084B1B68002B03D0064B1B6804489847DE
:10232C00FFF766FD00BF80BD98070020D006002097
:10233C00E006002004070020B0B58CB006AF786032
:10234C007B681C1D00F058FE0346062219462046E9
:10235C0004F0B2FC0346002B0CBF01230023FB75D9
:10236C007B681A789209D2B25B7803F003039B0066
:10237C001343DBB2032B02D0042B76D0DEE0FB7DC3
:10238C00002B59D000F02EFE034603F10B027B68A4
:10239C000A331946104600F0CFFD03467B7500F05A
:1023AC00EBFD0346002B05D07B7D83F00103DBB2F4
:1023BC00002B59D17B685B7CC3F30313DBB21C4647
:1023CC007B680A337A68127C11467A68127D104653
:1023DC007A68528A92B2049203900291614A0192F5
:1023EC0000932346032202210320FEF707FF5E4BD6
:1023FC001B68002B03D05C4B1B6878689847012343
:10240C00C8220121062002F06FFE38613B697A6810
:10241C000C330A321068186092889A807B681A7C98
:10242C003B699A745149386902F040FE504A13785E
:10243C0043F00403137090E0786800F0A1F87B6817
:10244C005B7CC3F30313DBB219467B680A337A68EF
:10245C00127C0292474A019200930B4603220221FE
:10246C000320FEF7CBFE78E077E07B681C1D00F0C4
:10247C00C3FD034606221946204604F01DFC034604
:10248C00002B0CBF01230023BB75BB7D002B3DD063
:10249C0002F0A2FE03461B78052B01D102F0A6FE2A
:1024AC0007F108037B21184602F090FF02F09EFE14
:1024BC002F4B1B7803F00803DBB2002B20D17B6879
:1024CC005B7CC3F30313DBB21D467B680A337A686B
:1024DC00127C397A7889BC89059404900391029214
:1024EC00254A019200932B46042202210320FEF779
:1024FC0085FE224B1B69002B02D0204B1B69984791
:10250C001B4A137843F00803137026E0786800F038
:10251C0037F87B685B7CC3F30313DBB219467B682B
:10252C000A337A68127C0292124A019200930B468B
:10253C00042202210320FEF761FE0EE0FB7D83F0F6
:10254C000103DBB2002B07D07B685B889BB2002BAE
:10255C0002D0786800F014F800BF00BF1837BD46F1
:10256C00B0BD00BF60860008B007002049270008F6
:10257C008406002080860008908600089C070020B6
:10258C0080B584B000AF78607B685B889BB21A46DC
:10259C004FF47A7303FB02F3FB6002F01DFEB8608C
:1025AC00BB681B78042B08D1C821002002F06AFDFF
:1025BC000F4A137843F001031370BB681B78032B8D
:1025CC0006D1BB685A68FB681A44BB685A600AE0BB
:1025DC000023FA680121032002F086FDB86005494A
:1025EC00B86802F072FD00BF1037BD4680BD00BF59
:1025FC00840600202928000880B582B000AF7860DE
:10260C00044A7B68136000F007F800BF0837BD462A
:10261C0080BD00BFB007002080B500AF04220021B0
:10262C00064804F063FB064B00221A73044B00228D
:10263C005A6002F0F1FD00BF80BD00BF840600208F
:10264C009C07002080B598B006AF3A4B1B7B01333A
:10265C00DAB2384B1A7397F82830022262F38503EA
:10266C0087F828303B8D032262F389133B85314B6D
:10267C001B7B87F8383000237B8500F0BDFC0246BD
:10268C0007F132031168196092889A80294B1A68F5
:10269C0007F12C0305321068186092889A80254B3C
:1026AC001B68DB7803F00F03DAB297F8393062F36A
:1026BC00030387F839301F4B1B681B7903F00F039A
:1026CC00DAB297F8393062F3071387F83930194BBF
:1026DC001B6893F8363087F83C30164B1B6893F820
:1026EC0034309BB27B873A1D07F1280311461846FC
:1026FC0000F096FC3B1D1846FFF784FD00F072FCC1
:10270C0003461A7997F8383097F83C10788F049074
:10271C0003910293084B019307F1280304330093B0
:10272C001346032201210320FEF768FD00BF483742
:10273C00BD4680BD9C0700206086000880B596B021
:10274C0004AF97F82830022262F3850387F828300B
:10275C003B8D042262F389133B8502F03DFD034659
:10276C009B7C87F8383000237B8500F045FC0246C3
:10277C0007F132031168196092889A80254B1B6807
:10278C00DB7803F00F03DAB297F8393062F3030306
:10279C0087F839301F4B1B681B7903F00F03DAB233
:1027AC0097F8393062F3071387F83930194B1B68E7
:1027BC0093F834309BB27B8702F00EFD024607F192
:1027CC002C030C3292E803001860043319803A1D74
:1027DC0007F128031146184600F022FC3B1D184651
:1027EC00FFF710FD00F0FEFB03461A7997F838301E
:1027FC000293094B019307F128030433009313460A
:10280C00042201210320FEF7F9FC00BF4837BD4626
:10281C0080BD00BF9C070020B086000880B584B046
:10282C0004AF074B0293074B019300230093002343
:10283C00002206210320FEF7E1FC00BFBD4680BD4F
:10284C000C840008B886000880B500AF074B1B68E5
:10285C009B78022B00D007E0044B1B69002B02D0A5
:10286C00024B1B69984700BF00BF80BD9C0700202E
:10287C0080B584B004AF1E4B1B7803F00803DBB2A9
:10288C00002B32D11B4B1B7B0E2B11D91A4B0293F5
:10289C001A4B0193002300930023042205210320EB
:1028AC00FEF7ACFC042000F07DFBFFF7B5FE1CE04E
:1028BC00104B1B7B1A460F2303930292104B019370
:1028CC00002300930023042205210320FEF796FC2D
:1028DC00084B1868074B1B7B5A1CD1B2054A117365
:1028EC00044A1269194600F029F800BFBD4680BDA4
:1028FC00840600209C0700200C840008D886000861
:10290C000C87000880B582B000AF0346FB8002F054
:10291C00CBFF0346184604F097FA04F0B9FA0246C6
:10292C00FB8892FBF3F103FB01F3D31A322202FB77
:10293C0003F318460837BD4680BD000090B58BB038
:10294C0004AFF8600B467A60FB72FFF765FE314A04
:10295C00FB6813602F4AFB7A13732E4A7B68136152
:10296C004FF49671012002F079FB1020FFF7CAFF9B
:10297C000246284B5A60274B5A6800230121042039
:10298C0002F0B2FB78612449786902F08FFB214B8D
:10299C001B689B78002B1CDB012B02DD022B1AD051
:1029AC0017E00023C8220121052002F09DFB3861AD
:1029BC001A49386902F07AFB00234FF4FA720121AC
:1029CC00082002F091FB38611549386902F06EFB62
:1029DC0002E000BF00E000BF0E4B1B681C790D4BE2
:1029EC001B680533FA7A01320A4949680D48A0FB85
:1029FC0001018909039102920B4A01920093002371
:102A0C00224606210320FEF7F9FB00BF1C37BD460A
:102A1C0090BD00BF9C0700205528000851260008D7
:102A2C007D280008D34D62102887000880B400AFC1
:102A3C00024B1846BD4680BC704700BF04080020FE
:102A4C0080B400AF024B1B781846BD4680BC704763
:102A5C008806002080B582B000AF7860124B1B78DE
:102A6C00042B1DD8104B1B785A1CD1B20E4A117076
:102A7C0019460E4A0B465B000B445B0013447A6804
:102A8C001168196092889A807B683A220621184650
:102A9C00FEF752FD03461A4605490648FEF75EFC52
:102AAC0000BF0837BD4680BD880600200408002002
:102ABC00508B0008588B0008F0B58DB006AF7860CD
:102ACC007B680433A549184600F036FA0346FB75BB
:102ADC00FB7D83F00103DBB2002B40F039817B6876
:102AEC001B78C3F38303DBB2023B032B00F233816D
:102AFC0001A252F823F000BF9F2C00082B2C0008D9
:102B0C00D52B0008152B00087B681A789209D2B2D5
:102B1C005B7803F003039B001343DBB2092B02D059
:102B2C000A2B30D017E10123002201210D2002F0E5
:102B3C00DBFA38617B681A7C3B691A773A69137B3C
:102B4C00052161F3850313733A6993890A2161F3B3
:102B5C008913938100F050FA02463B6916331168D1
:102B6C00196092889A803B697A6810330A3210682F
:102B7C00186092889A803B690022DA81784938691A
:102B8C0002F0A3FA1FE07B681A7C764B9B681B78DB
:102B9C009A4217D1734B9B6801225A70714B9C68F7
:102BAC00002002F0B5FB034663606E4B9B681B78FC
:102BBC001A466C4B9B685B686B496C48FEF7CEFB06
:102BCC0001F07EF900BFC6E07B681A789209D2B298
:102BDC005B7803F003039B001343DBB2022B00D0A2
:102BEC00B9E0634B1A797B681B7C1946604B93F8F0
:102BFC003630039302915F4B01935F4B009300239C
:102C0C0002210220FEF7FAFA5949786800F040FCDC
:102C1C0000F07AFA786800F01BFB00BF9BE0544B85
:102C2C001C797B681B7C1D46514B93F836301E4635
:102C3C007B6803F112007B685B7C20221946FEF74F
:102C4C007BFC03460493039602954C4B01934A4B31
:102C5C0000930023224602210220FEF7CFFA7B6864
:102C6C0003F10A0400F0BEF903460B331946204663
:102C7C0000F062F90346FB73FB7B002B05D03C494B
:102C8C00786800F005FC00F03FFA786800F0E0FA94
:102C9C0061E07B681A789209D2B25B7803F0030387
:102CAC009B001343DBB2052B55D1FB7D002B51D080
:102CBC0000F098F903465B78002B0CBF012300232E
:102CCC00BB737B6803F10A0400F08CF903460533EF
:102CDC001946204600F030F903467B737B689C7CD8
:102CEC0000F080F9034693F821309C420CBF01237D
:102CFC0000233B73BB7B002B2CD07B7B002B29D080
:102D0C003B7B002B26D07B685B7CC3F30313DBB2CD
:102D1C0018467B680A337A68927C1146144A92F8FA
:102D2C00362003920291134A019200930346052226
:102D3C0002210220FEF762FA02F04EFA03461B78DB
:102D4C000A2B01D102F052FA00F07EF900BF01E02B
:102D5C0000BF00E000BF1C37BD46F0BDC00700201F
:102D6C0079310008B4070020788B0008808B0008AC
:102D7C00C8070020A88B0008CD070020B48B0008E2
:102D8C0080B500AF084B1B79062B07D0072B02D060
:102D9C00022B00D006E001F0D5FA03E0024800F067
:102DAC007FFD00BF00BF80BDC807002080B500AF0D
:102DBC00074B1B79012B07DB022B02DD072B00D005
:102DCC0002E001F01BFB00E000BF00BF80BD00BFB4
:102DDC00C8070020B0B588B006AF334B93F8383035
:102DEC000E2B49D80023C8220121092002F07CF9BE
:102DFC0078607B682C4A03F10C0402F111052868F9
:102E0C006968AA68EB680FC428696969AA6907C46C
:102E1C00AB8BAA7F23801346A3702449786802F0F9
:102E2C0045F900234FF4FA7201210A2002F05CF9F3
:102E3C0078601F49786802F039F91B4B93F83830E9
:102E4C000133DAB2184B83F83820174B93F837302C
:102E5C001A46154B93F8383019460F2304930391F7
:102E6C000292144B019300230093002305220521A9
:102E7C000220FEF7C3F914E00F4B019300230093DB
:102E8C000023052205210220FEF7B8F9042000F0EA
:102E9C0089F8054BDB78042B00D002E001F002FB33
:102EAC0000BF0837BD46B0BDC80700207931000807
:102EBC00E12D0008C48B0008EC8B000880B500AF36
:102ECC000948FFF799FB00F019F83A220621074848
:102EDC00FEF732FB0346064A06490748FEF73EFA60
:102EEC0000F088FD00BF80BD15350008C00700202C
:102EFC001C8C0008288C00082C8C000880B582B033
:102F0C0000AF02F089FB386000237B600BE07B682C
:102F1C003A6813441978074A7B6813440A461A70B6
:102F2C007B6801337B607B68052BF0DD00BF0837C5
:102F3C00BD4680BDC007002080B485B000AF78606E
:102F4C0039600023FB600EE07A68FB6813441A7842
:102F5C003968FB680B441B789A4201D0002306E0C9
:102F6C00FB680133FB60FB68052BEDDD0123184684
:102F7C001437BD4680BC704780B400AF084B1B783B
:102F8C00002B03D0064B1B78012B01D1012300E051
:102F9C00002303F00103DBB21846BD4680BC70472A
:102FAC00C807002080B582B000AF0346FB710C4A05
:102FBC00FB7913700A4B1B78002B02D1642002F0B2
:102FCC00DDFC074B1B78012B02D1642002F0D6FCF0
:102FDC004FF47A7002F0D2FC00BF0837BD4680BDBA
:102FEC00C807002080B400AF024B1846BD4680BC19
:102FFC00704700BFC807002080B400AF024B1846D2
:10300C00BD4680BC704700BFC007002080B400AF35
:10301C00024B1846BD4680BC704700BFD40300204D
:10302C0080B582B000AF786039603B682022796847
:10303C00184603F050FE3B68202283F8202000BF86
:10304C000837BD4680BD000080B586B004AF294B63
:10305C0093F83520274B93F834309A4229D2254BDC
:10306C00002283F83820234B93F837300133DAB23F
:10307C00204B83F837200023C8220121092002F0BD
:10308C0033F878607B680C3319461A4800F054F911
:10309C001949786802F00AF800234FF4FA720121FA
:1030AC000A2002F021F878601449786801F0FEFFDC
:1030BC001CE0104B1B78032B15D00E4B1A790D4BC3
:1030CC0093F8373019460B4B93F834300393029135
:1030DC000B4B01930B4B0093002303210220FEF7B3
:1030EC008DF8FFF763FE0320FFF75CFF00BF083786
:1030FC00BD4680BDC807002079310008E12D0008CD
:10310C003C8C0008CD07002080B584B004AF144B74
:10311C0093F83720124B93F836309A421CD3104B4D
:10312C001B78032B15D00E4B1A790D4B93F83730B7
:10313C0019460B4B93F8343003930291094B0193CE
:10314C00094B0093002304210220FEF757F8FFF7E8
:10315C0017FE0320FFF726FF00BFBD4680BD00BF52
:10316C00C8070020708C0008D3070020F0B599B078
:10317C0006AF02F031F803463C1D03F10C050FCDF0
:10318C000FC495E80F0007C4238002341B0C237076
:10319C0007F124023B1D11461846FFF741FF07F1CA
:1031AC0024031846FFF72EF8254B9B78022B00D0F2
:1031BC0005E00320FFF7F6FEFFF7F8FD00BF3B79B3
:1031CC0003F03C03DBB2082B35D03B7903F03C0316
:1031DC00DBB20C2B1DD11A4B1C793B7D1D46184BB9
:1031EC0093F836301E46797D3B1D1233202218464B
:1031FC00FEF7A2F90346049303960295114B019333
:10320C00114B00930023224601210220FDF7F6FF0B
:10321C0011E00B4B1A793B7D1946094B93F836306C
:10322C0003930291094B0193074B00930023012157
:10323C000220FDF7E3FF00BF4C37BD46F0BD00BFD9
:10324C00C8070020B48B0008CD070020A88B00080D
:10325C0080B588B004AF78600023C8220121072014
:10326C0001F042FFF860FA68137B022161F38503D9
:10327C001373FA689389052161F389139381FB68B1
:10328C00294A16331168196092889A80FB687A680B
:10329C0010330A321068186092889A80FB680022FA
:1032AC00DA817B681B78C3F38303D9B2FA68537F46
:1032BC0061F3030353777B681A789209D2B25B7877
:1032CC0003F003039B001343D9B2FA68537F61F3F5
:1032DC00071353777B681A7CFB689A771349F86855
:1032EC0001F0F3FE7B681A789209D2B25B7803F096
:1032FC0003039B001343DBB218467B680A337A68DE
:10330C00127C11460A4A92F8362003920291094A1D
:10331C00019200930346052201210220FDF76EFF66
:10332C0000BF1037BD4680BDC007002079310008B2
:10333C00C8070020A88B0008B0B584B000AF786037
:10334C0039607B6893F834207B6893F83530D31A56
:10335C00FB73FB7B002B00F095807B68DB7803F024
:10336C000F03D9B23A68137861F3850313707B6845
:10337C001B7903F00F03DAB23B6802F003018C01F6
:10338C00197801F03F010846214601431970920853
:10339C00D2B202F0030202F003005A7822F00302C8
:1033AC00114602460A435A703B68384A0A33116880
:1033BC00196092889A803B687A68043305321168E8
:1033CC00196092889A803B6800229A700022DA7009
:1033DC007B6893F837203B681A74FB7B0C2B1DD948
:1033EC003A68537843F0800353703B680D225A744B
:1033FC003B6803F112007B681B6B7A6892F83520EE
:10340C0013440D22194603F066FC7B6893F83530A3
:10341C000D33DAB27B6883F835201DE03A685378B7
:10342C006FF3C71353703B68FA7B5A743B6803F114
:10343C0012007B681B6B7A6892F835201344FA7B78
:10344C00194603F048FC7B6893F83520FB7B13444A
:10345C00DAB27B6883F835207B683A6811331468DC
:10346C0050689168D5681C6058609960DD6014697B
:10347C00506991691C6158619961918B927F998314
:10348C009A7700E000BF1037BD46B0BDC0070020E2
:10349C0080B582B000AF786039607B681A7C3B687D
:1034AC0093F837309A422BD97B681A789209D2B2AA
:1034BC005B7803F003039B001343DBB2063B012B49
:1034CC0018D83B681B6B3A6892F8352098187B68C3
:1034DC0003F112017B685B7C1A4603F0FCFB3B6832
:1034EC0093F835207B685B7C1344DAB23B6883F835
:1034FC00352000E000BF7B681A7C3B6883F83720DE
:10350C0000BF0837BD4680BD80B584B000AF786081
:10351C007B685B7CC3F30303DBB2032B00D034E08A
:10352C007B685B8A9BB2002B2AD07B685B8A9BB240
:10353C00354AA2FB03239B089BB2FB737B685B8A17
:10354C0099B2314BA3FB01239A0813465B00134439
:10355C009B001344CB1A9BB2002B02D0FB7B013394
:10356C00FB732A4AFB7B82F836307B685B8A9BB202
:10357C00184603F091FB03461A46244B1A6303E0EA
:10358C00224B012283F8362000BF204B01225A70B7
:10359C007B685B7CC3F30303DBB21A461B4BDA700C
:1035AC007B685B7CC3F30313DBB21A46174B1A71AF
:1035BC00164B002283F83720144B7A680B330A32EF
:1035CC001168196092889A80FFF716FD02460F4B1E
:1035DC0005331168196092889A807B685B8A9BB26C
:1035EC00DAB20A4B83F83420084B002283F83520DA
:1035FC00064B002283F838200020FFF7D3FC00BFD5
:10360C001037BD4680BD00BF4FECC44EC80700202C
:10361C0080B584B000AF3B600346FB710B46BB71B9
:10362C0013467B71354B00225A70344AFB799370E8
:10363C00324ABB79D370314A7B7913712F4B0022FC
:10364C0083F83720FFF7D8FC02462C4B0B3311685C
:10365C00196092889A80294B3A6805331168196071
:10366C0092889A80254A3B7F82F83430234B002283
:10367C0083F83520214B002283F838203B7F002B28
:10368C002FD03B7F1E4AA2FB03239B08FB73397F81
:10369C001B4BA3FB01239A0813465B0013449B00AE
:1036AC001344CB1ADBB2002B02D0FB7B0133FB7330
:1036BC00124AFB7B82F83630104B1B6B184603F01A
:1036CC00F3FA3B7F184603F0E7FA03461A460B4B16
:1036DC001A630A4B1B6B3A7FB969184603F0FBFA65
:1036EC0003E0064B012283F836200020FFF75AFC3A
:1036FC00024B18461037BD4680BD00BFC8070020DE
:10370C004FECC44EB0B582B000AF2A4B93F83830B2
:10371C000133DAB2274B83F83820264B93F8373035
:10372C000133DAB2234B83F837200023C82201215E
:10373C00092001F0D9FC78601E4BDB78032B06D1F5
:10374C007B680C3319461B48FFF7F6FD14E07B68C9
:10375C00184A03F10C0402F1110528686968AA687B
:10376C00EB680FC428696969AA6907C4AB8BAA7F87
:10377C0023801346A37000BF0F49786801F096FCB4
:10378C000120FFF70FFC0B4B9B78002B00D00CE0BB
:10379C0000234FF4FA7201210A2001F0A5FC786095
:1037AC000649786801F082FC00BF00BF0837BD46AF
:1037BC00B0BD00BFC807002079310008E12D00081A
:1037CC00B0B584B002AF03463960FB713B68214A47
:1037DC000A331168196092889A803B6801221A7426
:1037EC003B681B78C3F38303DBB219463B681A783A
:1037FC009209D2B25B7803F003039B001343DBB254
:10380C001C463B681A1DF879002301930023009392
:10381C0013462246FFF7FCFE0F4B3A68113314682F
:10382C0050689168D5681C6058609960DD601469B7
:10383C00506991691C6158619961918B927F998350
:10384C009A77064A00210448FFF778F800BF08373A
:10385C00BD46B0BDC0070020C807002011370008C6
:10386C0080B586B002AFB9607B600346FB7313462C
:10387C00BB73BA7BF87B3B7E01937B680093BB6880
:10388C000321FFF7C5FE044A00210448FFF756F850
:10389C0000BF1037BD4680BD11370008C807002097
:1038AC0080B584B000AF78600023FB730BE07B68BD
:1038BC001A6BFB7B13441B7819460948FDF74EFD28
:1038CC00FB7B0133FB737B6893F83430FA7B9A42B1
:1038DC00EDD30448FDF742FD00BF1037BD4680BD57
:1038EC00A08C0008A48C0008B0B588B004AF786038
:1038FC007B689B7A18467B68DB7A1C467B681B7B53
:10390C001D467B685B7B1A467B689B7B19467B68F4
:10391C00DB7B0293019100922B46224601462E48F6
:10392C00FDF71CFD7B681B7918467B685B791C4690
:10393C007B689B791D467B68DB791A467B681B7A12
:10394C0019467B685B7A0293019100922B462246C2
:10395C0001462248FDF702FD7B681B78C3F3830305
:10396C00DBB21A461E4B53F822107B681A78920968
:10397C00D2B25B7803F003039B001343DBB21A460D
:10398C00184B53F822301A461748FDF7E7FC7B68B2
:10399C001B78C3F38303DBB2032B00D015E00023A9
:1039AC00FB600BE07A68FB68134412331B781946F2
:1039BC000E48FDF7D3FCFB680133FB607B685B7C36
:1039CC001A46FB689342EDDB00BF0948FDF7C6FCC5
:1039DC0000BF1037BD46B0BDA88C0008BC8C0008D9
:1039EC003C03002080030020D08C0008A08C000831
:1039FC00A48C000880B586B006AFC8230393534B44
:103A0C000293534B019300230093002300220621C1
:103A1C000220FDF7F3FB32230493002303934D4B59
:103A2C0002934D4B019300230093002300220621A7
:103A3C000220FDF7E3FBC823049300230393474BB9
:103A4C000293474B0193002300930023002206218D
:103A5C000220FDF7D3FB4FF4967304936423039376
:103A6C00404B02933E4B0193002300930023002212
:103A7C0006210220FDF7C2FB40F2EE230493002343
:103A8C000393394B0293364B01930023009300238D
:103A9C00002206210220FDF7B1FB40F2EE23049335
:103AAC0000230393314B02932D4B0193002300937E
:103ABC000023002206210220FDF7A0FB40F2EE239A
:103ACC000493002303932A4B0293254B0193002369
:103ADC0000930023002206210220FDF78FFB40F209
:103AEC00EE23049300230393224B02931C4B01936C
:103AFC00002300930023002206210220FDF77EFB09
:103B0C004FF4FA730493002303931B4B0293144B4F
:103B1C000193002300930023002206210220FDF7CD
:103B2C006DFB4FF4FA73049300230393134B02932E
:103B3C000B4B01930023009300230022062102204B
:103B4C00FDF75CFB00BFBD4680BD00BFE08C0008EC
:103B5C00F08C0008FC8C0008088D00081C8D0008F7
:103B6C00288D00083C8D0008488D0008588D0008F1
:103B7C00688D0008788D0008888D00089C8D0008E1
:103B8C0080B584B004AF674B1B781A46664B53F86C
:103B9C0022300393654B0293654B019300230093F2
:103BAC000023002206210220FDF728FB5D4B5B78E9
:103BBC001A46604B53F8223003935F4B02935C4BD5
:103BCC000193002300930023002206210220FDF71D
:103BDC0015FB544B9B781A46584B53F822300393E1
:103BEC00574B0293524B0193002300930023002266
:103BFC0006210220FDF702FB4A4BDB781A46514B9B
:103C0C0053F822300393504B0293494B01930023FA
:103C1C0000930023002206210220FDF7EFFA414B0E
:103C2C001B791A46494B53F822300393484B0293A5
:103C3C003F4B019300230093002300220621022016
:103C4C00FDF7DCFA3A2206214248FDF775FC0346E3
:103C5C000393414B0293364B0193002300930023B3
:103C6C00002206210220FDF7C9FA3A2206213B4820
:103C7C00FDF762FC03460393394B02932C4B0193E3
:103C8C00002300930023002206210220FDF7B6FA40
:103C9C00244B93F834300393324B0293324B019301
:103CAC00002300930023002206210220FDF7A6FA30
:103CBC001C4B93F8353003932C4B02932A4B0193F6
:103CCC00002300930023002206210220FDF796FA20
:103CDC00144B93F837300393254B0293224B0193EB
:103CEC00002300930023002206210220FDF786FA10
:103CFC000C4B93F8383003931E4B02931A4B0193E1
:103D0C00002300930023002206210220FDF776FAFF
:103D1C001948FFF7E9FD0348FFF7C2FD00BFBD4698
:103D2C0080BD00BFC8070020C0030020B08D000874
:103D3C00B88D0008AC030020C48D0008B40300202B
:103D4C00D88D00083C030020EC8D000854030020A3
:103D5C00F88D0008D3070020088E0008CD0700203E
:103D6C00148E0008208E0008288E0008348E00085F
:103D7C003C8E0008488E0008D907002080B500AFA3
:103D8C00094B9B6800225A60074B9B6802225A70B1
:103D9C00054B9B681B78054A05490648FDF7DEFA7A
:103DAC0000F08EF800BF80BDB4070020548E0008D0
:103DBC00788B0008748E000880B582B000AF0123A8
:103DCC00002201210D2001F08FF978601A4BDA796D
:103DDC007B681A777A68137B052161F3850313736B
:103DEC007A689389092161F389139381FFF704F9A8
:103DFC0002467B6816331168196092889A807B683A
:103E0C000D4A103392E803001860043319807B6864
:103E1C000022DA81094B64220121002001F02CFAE6
:103E2C000749786801F051F9034B9B6800225A70DE
:103E3C0000BF0837BD4680BDB4070020893D00088F
:103E4C007931000890B583B000AF78600B46FB70F9
:103E5C00184B7A681068186092889A80154AFB781B
:103E6C009371144B0122DA710C2002F015FF0346FA
:103E7C001A46104B9A600F4B9B680E4AD2791A70F7
:103E8C000C4B9B6800229A600A4B9B791C467B6802
:103E9C003A2206211846FDF74FFB034622460649F7
:103EAC000648FDF75BFAFFF787FF00BF0C37BD46EE
:103EBC0090BD00BFB4070020788B0008808E0008EE
:103ECC0090B58BB004AF294BDA79284B9B799A4289
:103EDC001BD2264BDB790133DAB2244BDA71234B3C
:103EEC009B68BB600C2002F0D7FE03461A461F4BA2
:103EFC009A601E4B9B68BA689A601C4B9B681B4A65
:103F0C00D2791A70FFF758FF2BE0184B9B687B6136
:103F1C000023FB740023FB600CE07B695B78012BB6
:103F2C0005D1FB7C0133FB747B695B68FB607B69AF
:103F3C009B687B617B69002BEFD13B46F968184687
:103F4C0001F044FAFA7C094B9B791C463B78798842
:103F5C00B888029001910093234605490548FDF766
:103F6C00FDF900BF1C37BD4690BD00BFB407002053
:103F7C00788B00089C8E000880B58AB000AF3B4659
:103F8C0083E803003B7A042262F385033B723B898E
:103F9C00022262F389133B81FFF72EF8024607F1E8
:103FAC0012031168196092889A8007F10C033A4643
:103FBC0092E8030018600433198000237B810123ED
:103FCC003B760023FB760B4B1B681A463B46194687
:103FDC001046FEF7B1FF0346002B01D00123FB7600
:103FEC0007F1080319460020FFF7EAFB00BF28374A
:103FFC00BD4680BD2408002080B582B002AF084BBE
:10400C0001221A70074B0193002300930023002216
:10401C0006210420FDF7F2F800BFBD4680BD00BFAD
:10402C00890600201093000880B582B002AF084BBF
:10403C0000221A70074B01930023009300230022E7
:10404C0006210420FDF7DAF800BFBD4680BD00BF95
:10405C00890600203893000880B400AF024B1B681F
:10406C001846BD4680BC70479806002080B400AF4F
:10407C00024B1B681846BD4680BC7047900600205A
:10408C0090B589B004AF78607B681A789209D2B287
:10409C005B7803F003039B001343DBB2012B00D0CE
:1040AC00DCE07B685C7C00F059FB03469C423AD018
:1040BC006C4B1B7883F00103DBB2002B33D000F088
:1040CC00B7FAFDF761FFFDF76AFFFFF7ADFF7B68FD
:1040DC005B7C184600F04CFB7B689B7C0133DBB2AD
:1040EC00184600F055FB7B6803F10A0000230122FF
:1040FC00002100F05DFB02465B4B1A607B680A33C3
:10410C007A68527C11467A68927C03920291574AE3
:10411C00019200930023012202210420FDF76EF886
:10412C0000F0D4FA99E07B6803F10A024E4B1B684D
:10413C0019461046FEF700FF0346FB737B681C1DF7
:10414C00FEF75AFF034619462046FEF7F5FE0346D6
:10415C00BB73BB7B002B60D07B6803F10A00002390
:10416C000022002100F024FBFEF706FF034683F03B
:10417C000103DBB2002B3ED03B4B1B689B79012B20
:10418C0003D0384B1B78002B22D07B680A337A681B
:10419C00527C11467A68927C03920291344A0192C5
:1041AC0000930023012202210420FDF727F87B68ED
:1041BC00D3F80A20002111469A7BDB7B1B021A43A1
:1041CC00002362F30F0308461946FFF7D5FE24E0DF
:1041DC007B680A337A68527C11467A68927C039227
:1041EC000291244A0192009300230122022104200F
:1041FC00FDF704F811E07B680A337A68527C1146AB
:10420C007A68927C039202911B4A019200930023DC
:10421C00012202210420FCF7F1FFBB7B83F0010398
:10422C00DBB2002B19D07B6803F10A0000230222B9
:10423C00002100F0BDFA7B680A337A68527C114683
:10424C007A68927C039202910C4A019200930023AB
:10425C00012202210420FCF7D1FF00BF00BF14375C
:10426C00BD4690BD890600202408002064930008F8
:10427C00A4930008E09300082894000870940008A8
:10428C0080B582B002AF0E4B1B7883F00103DBB21A
:10429C00002B12D0FEF770FE0346002B0CD1094BFD
:1042AC000193002300930023022205210520FCF733
:1042BC00A5FF00F00BFA00E000BFBD4680BD00BFBB
:1042CC00890600209C94000880B584B002AF00F0F1
:1042DC005DFB0346FB71FB79002B0AD0124B01935B
:1042EC00002300930023012205210420FCF786FF04
:1042FC0015E00E4B1B7883F00103DBB2002B0ED0C4
:10430C000B4B019300230093002301220521042071
:10431C00FCF774FF074B1B68184600F01BFD00BF31
:10432C000837BD4680BD00BFAC940008890600204C
:10433C00D09400082408002080B400AF00BFBD4614
:10434C0080BC704780B58AB006AFFEF74BFE0346C3
:10435C001B79022B02D0072B41D044E0FEF742FE22
:10436C00034603F10B02224B1B6819461046FEF75D
:10437C00E3FD0346FB73FB7B002B33D01C4B1B680C
:10438C0001229A71012000F0C3FF022000F0F4FF1B
:10439C00B860BB68002B03D0022001F00BF807E0DB
:1043AC00144B40F24C420221022000F065FFB86031
:1043BC003B4640F24C41184601F008F83B787A88AD
:1043CC00B9880491039202930B4B01930023009341
:1043DC000023002206210420FCF710FF02E000F06D
:1043EC006DF800E000BF00BF1037BD4680BD00BFB8
:1043FC0024080020D5420008F894000880B588B045
:10440C0006AFFEF7EFFD03461B79022B29D0072BD5
:10441C003BD0012B00D03BE01F4B1B7883F00103FA
:10442C00DBB2002B33D01D4B4FF47A7202210120EA
:10443C0000F022FF3B464FF47A71184600F0C6FF9D
:10444C003B787A88B988049103920293144B0193B8
:10445C00002300930023002206210420FCF7CEFE4B
:10446C0015E0FEF7BFFD0346D3F8052000211146E9
:10447C005A7A9B7A1B021A43002362F30F03012220
:10448C000846194600F054FA02E000BF00E000BFF5
:10449C0000BF0837BD4680BD890600208D4200084C
:1044AC002095000880B500AFFEF79CFD03461B79F4
:1044BC00022B00D000E000BF00BF80BD90B58BB0D8
:1044CC0004AFFEF78FFD03461C6BFEF78BFD034616
:1044DC0093F834301946204600F00CFB786178696B
:1044EC0000F084FB7B691B68184600F001FA386108
:1044FC003B69002B06D0324B1A683B691A613B6949
:10450C0001221A752F4B1B689B79012B03D02E4B64
:10451C001B78002B4FD000F0B1FA0346FB73FB7BEA
:10452C00002B48D0284B1B7883F00103DBB2002B07
:10453C0018D0244B1B683A2206211846FCF7FCFFC6
:10454C0003460293214B0193002300930023002286
:10455C0006210420FCF752FE1A4B1B68184600F08B
:10456C00F9FB28E0032000F0D3FEB8603B46B968A5
:10457C00184600F02BFF164B1B7819463B78184653
:10458C007B88BA880192009303460A461149124867
:10459C00FCF7E4FEFFF76AFD0346184600F014FA38
:1045AC000E4A0F490F48FCF7D9FEFFF755FD03469D
:1045BC00184600F06BFB00BF1C37BD4690BD00BF1A
:1045CC009806002024080020890600204895000841
:1045DC008A0600207C95000888950008C89500087C
:1045EC00909000080496000880B500AF4FF4E130BD
:1045FC00FDF786FD00F042FCFEF760FC00BF80BDBD
:10460C0080B500AF074B1B68184602F04DFB054BFD
:10461C0000221A60044B00221A70044B00221A70FC
:10462C0000BF80BD980600209C0600209D0600203F
:10463C0080B500AF094B00221A60094B00221A709A
:10464C00084B00221A7004220021074802F04EFB8E
:10465C0000F088F9FFF7D4FF00BF80BD24080020CC
:10466C008A0600208B0600208C06002080B582B0C4
:10467C0000AF00F077F9FFF7C3FFFFF7BDFC114B5C
:10468C001B780133DBB2184600F072F8FDF77CFCA6
:10469C00FDF785FC00F01AF8032000F06DFE786041
:1046AC007B68002B03D0786800F084FE06E0064B94
:1046BC0064220021032000F0DFFD786000BF083782
:1046CC00BD4680BD8A0600204543000880B588B0F1
:1046DC0000AF3B78042262F385033B703B880122D8
:1046EC0062F389133B80FEF787FC024607F10A034D
:1046FC001168196092889A8000237B80134B1B7879
:10470C007B74134B1B78BB74124B1B78002B0CD097
:10471C00FEF77CFC02463B1D1068186092889A805C
:10472C007B7843F008037B7007E00B4B1A683B1D4A
:10473C0092E803001860043319803B4619460220A6
:10474C00FFF73EF800BF2037BD4680BD8A0600202B
:10475C008B060020890600202408002080B400AFBE
:10476C00024B1B781846BD4680BC70478A06002059
:10477C0080B483B000AF0346FB71044AFB7913701D
:10478C0000BF0C37BD4680BC704700BF8A060020B6
:10479C0080B483B000AF0346FB71044AFB791370FD
:1047AC0000BF0C37BD4680BC704700BF8B06002095
:1047BC0080B588B000AFF860B96011461A460B4658
:1047CC00FB711346BB711C2002F066FA0346BB61F9
:1047DC00BB69F9680622184602F07DFABB69BA7902
:1047EC009A71BB69FA79DA71BB69BA689A60BB696C
:1047FC0000229A81BB6900229A73BB6900221A615C
:10480C00BB6900221A75BB6900229A61364B1B6882
:10481C00002B0AD1344ABB691360344B1B7801332B
:10482C00DAB2324B1A70BB6959E02F4B1B68FB6133
:10483C0051E0BB69F9690622184602F03DFA78612D
:10484C007B69002B0DDABB69FA699A61264ABB6950
:10485C001360264B1B780133DAB2244B1A70BB69F8
:10486C003DE07B69002B04D1B86902F01DFAFB69AD
:10487C0035E07B69002B0EDDFB699B69002B0AD1AF
:10488C00FB69BA699A61194B1B780133DAB2174B81
:10489C001A70BB6923E0B869FB699B69062219464B
:1048AC0002F00AFA38617B69002B11DD3B69002BA1
:1048BC000EDAFB699A69BB699A61FB69BA699A61FC
:1048CC000A4B1B780133DAB2084B1A70BB6906E04D
:1048DC00FB699B69FB61FB69002BAAD1002318467D
:1048EC002037BD4680BD00BF9006002094060020F6
:1048FC0080B584B000AF78600C4B1B68FB600CE09B
:10490C00FB6879681846FEF717FB0346002B01D0AD
:10491C00FB6806E0FB689B69FB60FB68002BEFD132
:10492C00002318461037BD4680BD00BF90060020FE
:10493C0080B586B000AF07F1080383E80300134687
:10494C00FB7107F108031846FFF7D2FF78617B690A
:10495C00002B02D07B69FA799A7100BF1837BD46DB
:10496C0080BD000080B500AF064B1B68184602F0F6
:10497C009BF9044B00221A60034B00221A7000BFF3
:10498C0080BD00BF900600209406002080B483B048
:10499C0000AF0C4B1B687B600023FB7009E07B684D
:1049AC00DB79002B02D1FB780133FB707B689B69B0
:1049BC007B607B68002BF2D1FB7818460C37BD4628
:1049CC0080BC7047900600202DE9F0418CB008AFF8
:1049DC007860244B1B78002B3AD07B68FB6001235A
:1049EC00FB7231E0FB7A5A1CFA729E46FB681B780C
:1049FC009846FB685B781946FB689B781846FB6801
:104A0C00DB781C46FB681B791D46FB685B791E46F0
:104A1C00FB68DB791A46144B53F82230FA6892790A
:104A2C009446124A52F82C2006920593049603954C
:104A3C00029401900091434672460D490D48FCF7D3
:104A4C008DFCFB689B69FB60FB68002BCAD103E003
:104A5C0007490948FCF782FC00BF1037BD46BDE88A
:104A6C00F08100BF94060020EC030020DC03002042
:104A7C00449600084C9600088096000880B582B0D9
:104A8C0000AF114B1B78002B18D0FFF7EFFA7860B2
:104A9C000FE07B68DB79002B08D17B681B7D83F0F2
:104AAC000103DBB2002B01D0002308E07B689B697B
:104ABC007B607B68002BECD1012300E000231846BF
:104ACC000837BD4680BD00BF9406002080B582B07B
:104ADC0000AFFFF7C1FA786002E07B685B687B602F
:104AEC007B685B68002BF8D17B6818460837BD469D
:104AFC0080BD000080B588B000AF78600B46FB70BD
:104B0C00082002F0C9F803463B613B6900221A6099
:104B1C003B6900225A60334B1B780133DAB2314BBC
:104B2C001A700023FB773B69BB614EE0FB7F7A6810
:104B3C0013441B781C2B19D1082002F0ADF8034646
:104B4C00BB60BB6800221A60BB6800225A60BB695C
:104B5C00BA685A60BB68BB61224B1B780133DAB26E
:104B6C00204B1A70FB7F0133FB772EE01C2002F0E8
:104B7C0093F80346FB60FB6800229A61F868FB7FA0
:104B8C007A6813440622194602F0A5F8BB691B6823
:104B9C00002B03D1BB69FA681A600DE0BB691B6876
:104BAC007B6102E07B699B697B617B699B69002B64
:104BBC00F8D17B69FA689A610B4B1B780133DAB236
:104BCC00094B1A70FB7F0633FB77FA7FFB789A420E
:104BDC00ACD3BB6900225A603B6918462037BD46EE
:104BEC0080BD00BF9C0600209D06002080B582B0D1
:104BFC0000AF7860084B1B68002B03D1064A7B681A
:104C0C00136004E0FFF762FF02467B68536000BF4D
:104C1C000837BD4680BD00BF9806002080B588B01F
:104C2C0000AFF860B9601346FB710023FB77FB689B
:104C3C00BB6123E0BB691B687B610DE0FB7FBA683D
:104C4C00134479690622184602F045F8FB7F0633B7
:104C5C00FB777B699B697B617B69002BEED1FA7FCB
:104C6C00FB799A4207D2FB7F5A1CFA771A46BB682B
:104C7C0013441C221A70BB695B68BB61BB69002BB7
:104C8C00D8D100BF2037BD4680BD0000B0B58AB07A
:104C9C0004AF78600123FB750123BB7500237B7582
:104CAC007B683B6145E03B691B68FB6000237B75BF
:104CBC0034E0FB7D83F00103DBB2002B06D07B7D5F
:104CCC001A461F491F48FCF749FB05E0BB7D1A46F5
:104CDC001D491E48FCF742FB0023FB75FB681B7843
:104CEC001846FB685B781C46FB689B781D46FB6886
:104CFC00DB781A46FB681B791946FB685B790293D3
:104D0C00019100922B46224601461148FCF726FBE6
:104D1C00FB689B69FB607B7D01337B75FB68002B1B
:104D2C00C7D13B695B683B61BB7D0133BB7501231C
:104D3C00FB753B69002BB6D100BF1837BD46B0BD23
:104D4C0090900008A0960008AC960008B896000851
:104D5C00C4960008B0B58AB002AF78606B461D46A9
:104D6C001C2001F099FF0346BB61FEF745F9024692
:104D7C00BB691068186092889A803B4B1A68BB69B3
:104D8C009A61394ABB691360384B1B780133DAB22C
:104D9C00364B1A70082001F07FFF03467B61324BC3
:104DAC001A687B691A60324B1A687B695A60304A00
:104DBC007B6913602F4B1B780133DAB22D4B1A70C1
:104DCC002D4B1A78294B1B781344DAB22A4B1A70E4
:104DDC000023FB77274B1B78002B03D0254B1B782C
:104DEC00013BFB77244B1B781A46520013445B00A3
:104DFC00DAB2FB7F1344FB74F87C0346013BFB6087
:104E0C00C1B24FF000024FF000034FF00004D40089
:104E1C0044EA5174CB00C1B24FF000024FF00003D2
:104E2C004FF00004D40044EA5174CB00034607331E
:104E3C00DB08DB00ADEB030D02AB0033BB600C4BAE
:104E4C001B68B968FA7C1846FFF7E8FEBA68FB7C69
:104E5C0000931346072279680020FEF701FDAD464A
:104E6C0000BF2037BD46B0BD900600209406002040
:104E7C00980600209C0600209D06002080B500AFFF
:104E8C000848FDF707FA0848FDF7F6F9074A0A2122
:104E9C00022000F0BFFC064A0A21032000F0BAFCF5
:104EAC0000BF80BDD94E0008E54E0008F94F000840
:104EBC00754F000880B400AF034B01221A7000BF7D
:104ECC00BD4680BC704700BFA806002080B400AF70
:104EDC0000BFBD4680BC704780B586B000AF78601F
:104EEC007B683B611F4B1B78002B03D03869FEF7A6
:104EFC00FBFC33E0FDF79AFDF86000237B6113E0C7
:104F0C003B6903F10A007A6913465B0013445B00AA
:104F1C001A46FB6813441946FEF70EF80346002B9D
:104F2C001BD17B6901337B61FDF78AFD03461A4671
:104F3C007B699342E4DB3B691B78C3F38303DBB2ED
:104F4C00042B03D13869FFF79BF800BF3869FDF7D4
:104F5C00F3F93869FDF7B0FD00E000BF1837BD4626
:104F6C0080BD00BFA806002080B582B000AF1E4BEC
:104F7C001B68002B34D01C4B1B687B6000233B60F0
:104F8C002AE07B689A687B685B689A4213D27B68DC
:104F9C009B6803F10A027B689A607B689A687B685D
:104FAC005B689A4213D37B68DB68002B0FD07B685D
:104FBC00DB6898470BE03B68002B04D07B681A69D0
:104FCC003B681A6103E07B681B69074A13607B68C6
:104FDC003B607B681B697B607B68002BD1D100E058
:104FEC0000BF0837BD4680BDA006002080B500AFCD
:104FFC00194B1B68002B2DD0174B1B689A78164B3E
:10500C001B685B789A4222D2134B1B689A68124B2E
:10501C001B680A329A60104B1B689A680E4B1B680F
:10502C005B689A4217D30C4B1B6800229A600A4BA0
:10503C001B689A780132D2B29A70074B1B681B6BB3
:10504C00002B08D0044B1B681B6B984703E000F047
:10505C00CDF800E000BF80BDA406002080B582B072
:10506C0000AF03463960FB71F87900233A680121DF
:10507C0000F03AF80346184600F074F800BF083701
:10508C00BD4680BD80B582B000AF03463960FB7170
:10509C00F87900233A68012100F026F803461846F7
:1050AC0000F080F800BF0837BD4680BD80B582B0E7
:1050BC0000AF786039607B683A681A63786800F0F2
:1050CC0051F800BF0837BD4680BD80B582B000AF37
:1050DC00786039607B683A681A63786800F062F827
:1050EC0000BF0837BD4680BD80B584B000AF3A60C4
:1050FC001A460346FB710B46BB7113467B71382075
:10510C0001F0CAFD0346FB60FB68002B01D10023B4
:10511C0024E0FB68FA791A70FB6800229A70FB682D
:10512C00BA795A70FB683A685A60FB68012283F8B6
:10513C002B20FB680022DA62FB6800221A63FB68F2
:10514C0000225A637B79002B04D0FB685A68FB68F9
:10515C009A6002E0FB6800229A60FB6818461037E0
:10516C00BD4680BD80B485B000AF78600C4B1B6829
:10517C00002B03D10A4A7B6813600DE0084B1B68B7
:10518C00FB6002E0FB685B6BFB60FB685B6B002BFE
:10519C00F8D1FB687A685A631437BD4680BC7047F7
:1051AC00A406002080B483B000AF7860094B1B6864
:1051BC00002B03D1074A7B68136006E0054B1A6885
:1051CC007B685A63034A7B6813600C37BD4680BC0E
:1051DC00704700BFA406002080B400AF024B1B68D0
:1051EC001846BD4680BC7047A406002080B582B02E
:1051FC0000AF084B1B687B60064B1B685B6B054A5A
:10520C001360786801F050FD00BF18460837BD46A2
:10521C0080BD00BFA406002080B500AF044B1B6806
:10522C00184601F041FD024B00221A6000BF80BD00
:10523C00A406002080B582B000AF0C4B1B687B60CD
:10524C000CE07B681B781A46094B53F82230194640
:10525C000848FCF783F87B685B6B7B607B68002BF2
:10526C00EFD100BF0837BD4680BD00BFA4060020AB
:10527C00F8030020D89A000880B586B000AFBA6059
:10528C007B600346FB730B46BB73142001F004FDDB
:10529C0003467B617B69FA7B1A707B6900229A60FA
:1052AC007B697A68DA607B6900221A61BB7B012B0F
:1052BC000AD0022B10D0002B12D1BB68124A02FB71
:1052CC0003F27B695A600BE0BB684FF47A7202FB05
:1052DC0003F27B695A6003E07B69BA685A6000BFCD
:1052EC000A4B1B68002B03D1084A7B69136006E04C
:1052FC00064B1A687B691A61044A7B6913607B69E7
:10530C0018461837BD4680BD40420F00A00600204D
:10531C0080B487B000AF0346FB71164B1B687B61F2
:10532C0000233B610023FB601AE07B691B78FA7950
:10533C009A4210D17B699B68FB603B69002B04D0BF
:10534C007B691A693B691A6103E07B691B69094A2D
:10535C001360FB6808E07B693B617B691B697B61BF
:10536C007B69002BE1D1FB6818461C37BD4680BC1D
:10537C00704700BFA006002080B485B000AF034684
:10538C00FB710B4B1B68FB6009E0FB681B78FA791F
:10539C009A4201D1FB6806E0FB681B69FB60FB6865
:1053AC00002BF2D1002318461437BD4680BC704741
:1053BC00A006002080B483B000AF78607B68002228
:1053CC009A6000BF0C37BD4680BC704780B487B074
:1053DC0000AF786039603B687B617B69184AA2FB3F
:1053EC0003239B0CDBB23B737B69154AA2FB0312B4
:1053FC00920C144901FB02F29B1A7B617B69124AE5
:10540C00A2FB03239B099BB2FB817B690E4AA2FB87
:10541C00031292094FF47A7101FB02F29B1A7B6121
:10542C007B699BB23B827B681A4607F10C031868B8
:10543C0010609B88938078681C37BD4680BC704791
:10544C0083DE1B4340420F00D34D621080B483B007
:10545C0000AF0346FB7197F90730002B0BDBFB7990
:10546C0003F01F02064997F907305B09012000FA87
:10547C0002F241F8232000BF0C37BD4680BC7047B8
:10548C0000E100E080B483B000AF03463960FB71EB
:10549C0097F90730002B0ADB3B68DAB20C4997F915
:1054AC0007301201D2B20B4483F800230AE03B68A8
:1054BC00DAB20849FB7903F00F03043B1201D2B2B4
:1054CC000B441A7600BF0C37BD4680BC704700BF3A
:1054DC0000E100E000ED00E080B582B000AF786044
:1054EC007B68013BB3F1807F01D301230FE00A4AB3
:1054FC007B68013B53600F214FF0FF30FFF7C2FF79
:10550C00054B00229A60044B07221A6000231846B0
:10551C000837BD4680BD00BF10E000E080B400AF8E
:10552C0000BFBD4680BC704780B500AF064B5B69C1
:10553C0003F00403002B04D0034B04225A61FCF744
:10554C00B7FE00BF80BD00BF0004014080B582B033
:10555C0000AF4FF080431B6903F00103002B43D0D5
:10556C004FF080431B694FF0804223F0010313611D
:10557C000023FB7135E0FB791D4A1B0113440C33EE
:10558C001B78DBB2002B29D0FB79194A1B01134481
:10559C0008331A6832231946FB790A4414491B0153
:1055AC000B4408331A60FB79114A1B01134408336E
:1055BC001A68FB790E491B010B4404331B689A4291
:1055CC000CD3FB790A4A1B011344083300221A60DE
:1055DC00FB79074A1B0113441B689847FB7901337D
:1055EC00FB71FB79042BC6D900BF0837BD4680BDC3
:1055FC003008002080B400AF064B5B6903F4005305
:10560C00002B03D0034B4FF400525A6100BFBD4630
:10561C0080BC70470004014080B598B000AF124BBD
:10562C00FB653B1D1846FBF7FFFC3B1D0C22F96D7F
:10563C001846FBF71DFD3B1D19460C48FBF780FD7A
:10564C000A4B1B7843F00203DAB2084B1A70074B73
:10565C001B7823F00103DAB2044B1A70034B184683
:10566C006037BD4680BD00BFE8F7FF1F080700206C
:10567C0080B500AF254B1B68244A43F0040313602C
:10568C00234B5B68224A43F480635360204B1B68B6
:10569C001F4A43F48033136000BF1D4B1B6803F497
:1056AC000033002BF9D01A4B5B68194A43F4803352
:1056BC005360174B5B68164A43F4E0135360144B6A
:1056CC001B68134A43F08073136000BF104B1B68B8
:1056DC0003F00073002BF9D00D4B5B680C4A43F0C0
:1056EC000203536000BF0A4B5B6803F00803002BF6
:1056FC00F9D0FAF771FD074B1B68074AA2FB03238D
:10570C009B091846FFF7E8FE00BF80BD0020024051
:10571C000010024000000020D34D621080B582B012
:10572C0000AF7860224BDB69214A43F00103D3615F
:10573C004FF080431B684FF0804223F0010313604D
:10574C001B4B1B691A4A43F001031361184B1B696D
:10575C00174A23F0010313614FF0804347229A62EA
:10576C004FF080427B68D3624FF080435B694FF00F
:10577C00804243F0010353614FF08043DB684FF0EC
:10578C00804243F00103D36000211C20FFF77AFE16
:10579C001C20FFF75BFE4FF080431B684FF08042EC
:1057AC0043F00103136000BF0837BD4680BD00BF46
:1057BC000010024080B483B000AF03463A60FB7126
:1057CC000B46BB80FB79124A1B0113443A681A60E2
:1057DC00BB884FF47A7202FB03F2FB7911460C4A38
:1057EC001B01134404331960FB79094A1B01134450
:1057FC00083300221A60FB79054A1B0113440C3351
:10580C0001221A7000BF0C37BD4680BC704700BF28
:10581C003008002080B483B000AF03463A60FB71BF
:10582C000B46BB80FB790F4A1B0113443A681A6084
:10583C00FB79BA880B491B010B4404331A60FB79C2
:10584C00084A1B011344083300221A60FB79054AED
:10585C001B0113440C3301221A7000BF0C37BD46D8
:10586C0080BC70473008002080B400AF0C4BDB6963
:10587C000B4A43F00203D3610A4B00221A60094B16
:10588C0047229A62074B4FF6FF72DA62054B1B6890
:10589C00044A43F00103136000BFBD4680BC70474F
:1058AC00001002400004004080B400AF024B5B6A61
:1058BC001846BD4680BC70470004004080B483B0DD
:1058CC0000AF78607B680EE00B4B5B690A4A43F0D3
:1058DC000103536100BF084B5B6AB3F57A7FFAD3BF
:1058EC007B68013B7B607B68002BEDD100BF0C37E4
:1058FC00BD4680BC704700BF0004004080B483B03C
:10590C0000AF7860084B5B69074A43F001035361B1
:10591C0000BF054B5A6A7B689A42FAD300BF0C371A
:10592C00BD4680BC704700BF0004004080B582B00B
:10593C0000AF0346FB800E4B9B690D4A43F01003EE
:10594C0093610C4B5B680B4A23F470035360094B57
:10595C005B68084A43F440135360FB88064A1946B7
:10596C000020FFF727FF00BF0837BD4680BD00BFF2
:10597C000010024000100140E159000880B483B0CF
:10598C0000AF0346FB80FB884FF47A7202FB03F3F3
:10599C001A46034B5A6000BF0C37BD4680BC70479B
:1059AC003008002080B400AF034B4FF400521A6152
:1059BC0000BFBD4680BC70470010014080B400AFF2
:1059CC00034B4FF000521A6100BFBD4680BC7047BC
:1059DC000010014080B500AF084B1B78DBB2002BE8
:1059EC0005D0FFF7EBFF054B00221A7004E0FFF720
:1059FC00D9FF024B01221A7000BF80BDA9060020FE
:105A0C0080B400AF0A4B9B69094A43F004039361CD
:105A1C00084B1B68074A23F470431360054B1B6843
:105A2C00044A43F44053136000BFBD4680BC70472A
:105A3C00001002400008014080B400AF034B082264
:105A4C001A6100BFBD4680BC704700BF0008014012
:105A5C0080B400AF034B4FF400221A6100BFBD4667
:105A6C0080BC70470008014080B500AF244B1B6818
:105A7C00234A23F470631360214B1B68204A43F4C0
:105A8C00006313601E4B1B681D4A23F48063136074
:105A9C001B4B1B681A4A23F440731360184BDB68CA
:105AAC00174A43F00403D360164B9B69154A43F025
:105ABC0004039361134B9B69124A43F001039361F6
:105ACC00114B114A9B689360104B1B680F4A43F0B3
